{
  "contractName": "Voting",
  "abi": [
    {
      "inputs": [],
      "stateMutability": "nonpayable",
      "type": "constructor"
    },
    {
      "inputs": [],
      "name": "main_election",
      "outputs": [
        {
          "internalType": "string",
          "name": "election_title",
          "type": "string"
        }
      ],
      "stateMutability": "view",
      "type": "function",
      "constant": true
    },
    {
      "inputs": [],
      "name": "main_group",
      "outputs": [
        {
          "internalType": "string",
          "name": "group_title",
          "type": "string"
        }
      ],
      "stateMutability": "view",
      "type": "function",
      "constant": true
    },
    {
      "inputs": [
        {
          "internalType": "string[]",
          "name": "candidateNames",
          "type": "string[]"
        }
      ],
      "name": "createCandidates",
      "outputs": [],
      "stateMutability": "nonpayable",
      "type": "function"
    },
    {
      "inputs": [
        {
          "internalType": "uint256",
          "name": "candidateIndex",
          "type": "uint256"
        },
        {
          "components": [
            {
              "internalType": "string",
              "name": "election_title",
              "type": "string"
            },
            {
              "components": [
                {
                  "internalType": "string",
                  "name": "name",
                  "type": "string"
                },
                {
                  "internalType": "uint256",
                  "name": "voteCount",
                  "type": "uint256"
                }
              ],
              "internalType": "struct Voting.Candidate[]",
              "name": "candidates",
              "type": "tuple[]"
            }
          ],
          "internalType": "struct Voting.Election",
          "name": "election",
          "type": "tuple"
        }
      ],
      "name": "vote",
      "outputs": [],
      "stateMutability": "nonpayable",
      "type": "function"
    },
    {
      "inputs": [
        {
          "internalType": "uint256",
          "name": "candidateIndex",
          "type": "uint256"
        },
        {
          "components": [
            {
              "internalType": "string",
              "name": "name",
              "type": "string"
            },
            {
              "internalType": "uint256",
              "name": "voteCount",
              "type": "uint256"
            }
          ],
          "internalType": "struct Voting.Candidate[]",
          "name": "candidates",
          "type": "tuple[]"
        }
      ],
      "name": "getCandidate",
      "outputs": [
        {
          "internalType": "string",
          "name": "",
          "type": "string"
        },
        {
          "internalType": "uint256",
          "name": "",
          "type": "uint256"
        }
      ],
      "stateMutability": "view",
      "type": "function",
      "constant": true
    },
    {
      "inputs": [
        {
          "components": [
            {
              "internalType": "string",
              "name": "name",
              "type": "string"
            },
            {
              "internalType": "uint256",
              "name": "voteCount",
              "type": "uint256"
            }
          ],
          "internalType": "struct Voting.Candidate[]",
          "name": "candidates",
          "type": "tuple[]"
        },
        {
          "internalType": "string",
          "name": "_name",
          "type": "string"
        },
        {
          "internalType": "uint256",
          "name": "index",
          "type": "uint256"
        }
      ],
      "name": "addCandidate",
      "outputs": [],
      "stateMutability": "nonpayable",
      "type": "function"
    },
    {
      "inputs": [
        {
          "components": [
            {
              "internalType": "string",
              "name": "name",
              "type": "string"
            },
            {
              "internalType": "uint256",
              "name": "voteCount",
              "type": "uint256"
            }
          ],
          "internalType": "struct Voting.Candidate[]",
          "name": "candidates",
          "type": "tuple[]"
        }
      ],
      "name": "getCount",
      "outputs": [
        {
          "internalType": "string",
          "name": "",
          "type": "string"
        }
      ],
      "stateMutability": "view",
      "type": "function",
      "constant": true
    }
  ],
  "bytecode": "0x60806040523480156200001157600080fd5b506000600267ffffffffffffffff811115620000325762000031620005bb565b5b6040519080825280602002602001820160405280156200006757816020015b6060815260200190600190039081620000515790505b5090506040518060400160405280600b81526020017f43616e646964617465203100000000000000000000000000000000000000000081525081600081518110620000b757620000b6620005ea565b5b60200260200101819052506040518060400160405280600b81526020017f43616e6469646174652032000000000000000000000000000000000000000000815250816001815181106200010f576200010e620005ea565b5b60200260200101819052506040518060400160405280600d81526020017f7465737420656c656374696f6e00000000000000000000000000000000000000815250600360000190805190602001906200016a9291906200036f565b506200017c81620002bc60201b60201c565b6040518060400160405280600a81526020017f746573742067726f757000000000000000000000000000000000000000000000815250600080019080519060200190620001cb9291906200036f565b506000600101600390806001815401808255809150506001900390600052602060002090600202016000909190919091506000820181600001908054620002129062000648565b6200021f92919062000400565b5060018201816001019080546200023892919062000498565b505050600060020173882e9dcbe8e2ef7f521934f9e6ce21a9c9f9b4fe9080600181540180825580915050600190039060005260206000200160009091909190916101000a81548173ffffffffffffffffffffffffffffffffffffffff021916908373ffffffffffffffffffffffffffffffffffffffff1602179055505062000703565b60005b81518110156200036b5760036001016040518060400160405280848481518110620002ef57620002ee620005ea565b5b60200260200101518152602001600081525090806001815401808255809150506001900390600052602060002090600202016000909190919091506000820151816000019080519060200190620003489291906200036f565b5060208201518160010155505080806200036290620006b6565b915050620002bf565b5050565b8280546200037d9062000648565b90600052602060002090601f016020900481019282620003a15760008555620003ed565b82601f10620003bc57805160ff1916838001178555620003ed565b82800160010185558215620003ed579182015b82811115620003ec578251825591602001919060010190620003cf565b5b509050620003fc919062000523565b5090565b8280546200040e9062000648565b90600052602060002090601f01602090048101928262000432576000855562000485565b82601f1062000445578054855562000485565b828001600101855582156200048557600052602060002091601f016020900482015b828111156200048457825482559160010191906001019062000467565b5b50905062000494919062000523565b5090565b828054828255906000526020600020906002028101928215620005105760005260206000209160020282015b828111156200050f5782826000820181600001908054620004e59062000648565b620004f292919062000400565b5060018201548160010155505091600201919060020190620004c4565b5b5090506200051f919062000542565b5090565b5b808211156200053e57600081600090555060010162000524565b5090565b5b808211156200057157600080820160006200055f919062000575565b60018201600090555060020162000543565b5090565b508054620005839062000648565b6000825580601f10620005975750620005b8565b601f016020900490600052602060002090810190620005b7919062000523565b5b50565b7f4e487b7100000000000000000000000000000000000000000000000000000000600052604160045260246000fd5b7f4e487b7100000000000000000000000000000000000000000000000000000000600052603260045260246000fd5b7f4e487b7100000000000000000000000000000000000000000000000000000000600052602260045260246000fd5b600060028204905060018216806200066157607f821691505b60208210810362000677576200067662000619565b5b50919050565b7f4e487b7100000000000000000000000000000000000000000000000000000000600052601160045260246000fd5b6000819050919050565b6000620006c382620006ac565b91507fffffffffffffffffffffffffffffffffffffffffffffffffffffffffffffffff8203620006f857620006f76200067d565b5b600182019050919050565b61128780620007136000396000f3fe608060405234801561001057600080fd5b506004361061007d5760003560e01c80639ef557401161005b5780639ef55740146100d8578063b07aa171146100f6578063e06cb4a814610126578063f9ee975a146101425761007d565b806315cd93a6146100825780635c46d0b2146100a057806388cd8efc146100bc575b600080fd5b61008a610173565b60405161009791906108d0565b60405180910390f35b6100ba60048036038101906100b59190610c55565b610207565b005b6100d660048036038101906100d19190610cb1565b610293565b005b6100e06102cc565b6040516100ed91906108d0565b60405180910390f35b610110600480360381019061010b9190610d3c565b610360565b60405161011d91906108d0565b60405180910390f35b610140600480360381019061013b9190610e66565b61042d565b005b61015c60048036038101906101579190610eaf565b6104d7565b60405161016a929190610f1a565b60405180910390f35b600080600001805461018490610f79565b80601f01602080910402602001604051908101604052809291908181526020018280546101b090610f79565b80156101fd5780601f106101d2576101008083540402835291602001916101fd565b820191906000526020600020905b8154815290600101906020018083116101e057829003601f168201915b5050505050905081565b6000821015801561021c575080602001515182105b61025b576040517f08c379a000000000000000000000000000000000000000000000000000000000815260040161025290610ff6565b60405180910390fd5b8060200151828151811061027257610271611016565b5b6020026020010151602001805180919061028b90611074565b815250505050565b604051806040016040528083815260200160008152508382815181106102bc576102bb611016565b5b6020026020010181905250505050565b60038060000180546102dd90610f79565b80601f016020809104026020016040519081016040528092919081815260200182805461030990610f79565b80156103565780601f1061032b57610100808354040283529160200191610356565b820191906000526020600020905b81548152906001019060200180831161033957829003601f168201915b5050505050905081565b60608060005b8351811015610423578184828151811061038357610382611016565b5b6020026020010151600001516103b68684815181106103a5576103a4611016565b5b602002602001015160200151610573565b6040516020016103c893929190611144565b6040516020818303038152906040529150600184516103e79190611180565b811461041057816040516020016103fe9190611200565b60405160208183030381529060405291505b808061041b90611074565b915050610366565b5080915050919050565b60005b81518110156104d3576003600101604051806040016040528084848151811061045c5761045b611016565b5b602002602001015181526020016000815250908060018154018082558091505060019003906000526020600020906002020160009091909190915060008201518160000190805190602001906104b3929190610794565b5060208201518160010155505080806104cb90611074565b915050610430565b5050565b606060008084101580156104eb5750825184105b61052a576040517f08c379a000000000000000000000000000000000000000000000000000000000815260040161052190610ff6565b60405180910390fd5b82848151811061053d5761053c611016565b5b60200260200101516000015183858151811061055c5761055b611016565b5b602002602001015160200151915091509250929050565b60606000600161058284610641565b01905060008167ffffffffffffffff8111156105a1576105a0610941565b5b6040519080825280601f01601f1916602001820160405280156105d35781602001600182028036833780820191505090505b509050600082602001820190505b600115610636578080600190039150507f3031323334353637383961626364656600000000000000000000000000000000600a86061a8153600a858161062a57610629611222565b5b049450600085036105e1575b819350505050919050565b600080600090507a184f03e93ff9f4daa797ed6e38ed64bf6a1f010000000000000000831061069f577a184f03e93ff9f4daa797ed6e38ed64bf6a1f010000000000000000838161069557610694611222565b5b0492506040810190505b6d04ee2d6d415b85acef810000000083106106dc576d04ee2d6d415b85acef810000000083816106d2576106d1611222565b5b0492506020810190505b662386f26fc10000831061070b57662386f26fc10000838161070157610700611222565b5b0492506010810190505b6305f5e1008310610734576305f5e100838161072a57610729611222565b5b0492506008810190505b612710831061075957612710838161074f5761074e611222565b5b0492506004810190505b6064831061077c576064838161077257610771611222565b5b0492506002810190505b600a831061078b576001810190505b80915050919050565b8280546107a090610f79565b90600052602060002090601f0160209004810192826107c25760008555610809565b82601f106107db57805160ff1916838001178555610809565b82800160010185558215610809579182015b828111156108085782518255916020019190600101906107ed565b5b509050610816919061081a565b5090565b5b8082111561083357600081600090555060010161081b565b5090565b600081519050919050565b600082825260208201905092915050565b60005b83811015610871578082015181840152602081019050610856565b83811115610880576000848401525b50505050565b6000601f19601f8301169050919050565b60006108a282610837565b6108ac8185610842565b93506108bc818560208601610853565b6108c581610886565b840191505092915050565b600060208201905081810360008301526108ea8184610897565b905092915050565b6000604051905090565b600080fd5b600080fd5b6000819050919050565b61091981610906565b811461092457600080fd5b50565b60008135905061093681610910565b92915050565b600080fd5b7f4e487b7100000000000000000000000000000000000000000000000000000000600052604160045260246000fd5b61097982610886565b810181811067ffffffffffffffff8211171561099857610997610941565b5b80604052505050565b60006109ab6108f2565b90506109b78282610970565b919050565b600080fd5b600080fd5b600080fd5b600067ffffffffffffffff8211156109e6576109e5610941565b5b6109ef82610886565b9050602081019050919050565b82818337600083830152505050565b6000610a1e610a19846109cb565b6109a1565b905082815260208101848484011115610a3a57610a396109c6565b5b610a458482856109fc565b509392505050565b600082601f830112610a6257610a616109c1565b5b8135610a72848260208601610a0b565b91505092915050565b600067ffffffffffffffff821115610a9657610a95610941565b5b602082029050602081019050919050565b600080fd5b600060408284031215610ac257610ac161093c565b5b610acc60406109a1565b9050600082013567ffffffffffffffff811115610aec57610aeb6109bc565b5b610af884828501610a4d565b6000830152506020610b0c84828501610927565b60208301525092915050565b6000610b2b610b2684610a7b565b6109a1565b90508083825260208201905060208402830185811115610b4e57610b4d610aa7565b5b835b81811015610b9557803567ffffffffffffffff811115610b7357610b726109c1565b5b808601610b808982610aac565b85526020850194505050602081019050610b50565b5050509392505050565b600082601f830112610bb457610bb36109c1565b5b8135610bc4848260208601610b18565b91505092915050565b600060408284031215610be357610be261093c565b5b610bed60406109a1565b9050600082013567ffffffffffffffff811115610c0d57610c0c6109bc565b5b610c1984828501610a4d565b600083015250602082013567ffffffffffffffff811115610c3d57610c3c6109bc565b5b610c4984828501610b9f565b60208301525092915050565b60008060408385031215610c6c57610c6b6108fc565b5b6000610c7a85828601610927565b925050602083013567ffffffffffffffff811115610c9b57610c9a610901565b5b610ca785828601610bcd565b9150509250929050565b600080600060608486031215610cca57610cc96108fc565b5b600084013567ffffffffffffffff811115610ce857610ce7610901565b5b610cf486828701610b9f565b935050602084013567ffffffffffffffff811115610d1557610d14610901565b5b610d2186828701610a4d565b9250506040610d3286828701610927565b9150509250925092565b600060208284031215610d5257610d516108fc565b5b600082013567ffffffffffffffff811115610d7057610d6f610901565b5b610d7c84828501610b9f565b91505092915050565b600067ffffffffffffffff821115610da057610d9f610941565b5b602082029050602081019050919050565b6000610dc4610dbf84610d85565b6109a1565b90508083825260208201905060208402830185811115610de757610de6610aa7565b5b835b81811015610e2e57803567ffffffffffffffff811115610e0c57610e0b6109c1565b5b808601610e198982610a4d565b85526020850194505050602081019050610de9565b5050509392505050565b600082601f830112610e4d57610e4c6109c1565b5b8135610e5d848260208601610db1565b91505092915050565b600060208284031215610e7c57610e7b6108fc565b5b600082013567ffffffffffffffff811115610e9a57610e99610901565b5b610ea684828501610e38565b91505092915050565b60008060408385031215610ec657610ec56108fc565b5b6000610ed485828601610927565b925050602083013567ffffffffffffffff811115610ef557610ef4610901565b5b610f0185828601610b9f565b9150509250929050565b610f1481610906565b82525050565b60006040820190508181036000830152610f348185610897565b9050610f436020830184610f0b565b9392505050565b7f4e487b7100000000000000000000000000000000000000000000000000000000600052602260045260246000fd5b60006002820490506001821680610f9157607f821691505b602082108103610fa457610fa3610f4a565b5b50919050565b7f496e76616c69642063616e64696461746520696e646578000000000000000000600082015250565b6000610fe0601783610842565b9150610feb82610faa565b602082019050919050565b6000602082019050818103600083015261100f81610fd3565b9050919050565b7f4e487b7100000000000000000000000000000000000000000000000000000000600052603260045260246000fd5b7f4e487b7100000000000000000000000000000000000000000000000000000000600052601160045260246000fd5b600061107f82610906565b91507fffffffffffffffffffffffffffffffffffffffffffffffffffffffffffffffff82036110b1576110b0611045565b5b600182019050919050565b600081905092915050565b60006110d282610837565b6110dc81856110bc565b93506110ec818560208601610853565b80840191505092915050565b7f3a20000000000000000000000000000000000000000000000000000000000000600082015250565b600061112e6002836110bc565b9150611139826110f8565b600282019050919050565b600061115082866110c7565b915061115c82856110c7565b915061116782611121565b915061117382846110c7565b9150819050949350505050565b600061118b82610906565b915061119683610906565b9250828210156111a9576111a8611045565b5b828203905092915050565b7f2c20000000000000000000000000000000000000000000000000000000000000600082015250565b60006111ea6002836110bc565b91506111f5826111b4565b600282019050919050565b600061120c82846110c7565b9150611217826111dd565b915081905092915050565b7f4e487b7100000000000000000000000000000000000000000000000000000000600052601260045260246000fdfea26469706673582212209333ca6bbd0c75c45f9aa2f944921f6884404b7555e064d75e2d1b0356ed59fd64736f6c634300080d0033",
  "immutableReferences": {},
  "source": "pragma solidity ^0.8.0;\r\nimport \"@openzeppelin/contracts/utils/Strings.sol\";\r\n\r\n\r\n/*This code was taken from chat-gpt and then altered.\r\n*/\r\ncontract Voting {\r\n    \r\n// Candidate struct\r\nstruct Candidate {\r\n    string name;\r\n    uint voteCount;\r\n}\r\n\r\n// structure of election\r\nstruct Election {\r\n    string election_title;\r\n    Candidate[] candidates;\r\n}\r\n\r\nstruct Group {\r\n    string group_title;\r\n    Election[] elections;\r\n    address[] members; // array of member addresses\r\n}\r\n\r\n// Array of candidates\r\nGroup public main_group;\r\nElection public main_election;\r\n\r\n// Constructor to initialize the candidates\r\nconstructor() {\r\n    string[] memory _candidateNames = new string[](2);\r\n    _candidateNames[0] = \"Candidate 1\";\r\n    _candidateNames[1] = \"Candidate 2\";\r\n    main_election.election_title=\"test election\";\r\n    createCandidates(_candidateNames);\r\n    main_group.group_title=\"test group\";\r\n    main_group.elections.push(main_election);\r\n    main_group.members.push(0x882e9dCbe8e2EF7f521934F9E6CE21A9c9f9b4FE);\r\n}\r\n\r\nfunction createCandidates(string[] memory candidateNames) public {\r\n    for(uint i = 0; i < candidateNames.length; i++) {\r\n        main_election.candidates.push(Candidate(candidateNames[i], 0));\r\n    }\r\n}\r\n\r\n\r\n// Function to vote for a candidate\r\nfunction vote(uint candidateIndex, Election memory election) public {\r\n    // Check if candidate index is valid\r\n    require(candidateIndex >= 0 && candidateIndex < election.candidates.length, \"Invalid candidate index\");\r\n\r\n    // Increment the vote count for the candidate\r\n    election.candidates[candidateIndex].voteCount++;\r\n}\r\n\r\n// Function to get the name and vote count for a candidate\r\nfunction getCandidate(uint candidateIndex, Candidate[] memory candidates) public view returns (string memory, uint) {\r\n    // Check if candidate index is valid\r\n    require(candidateIndex >= 0 && candidateIndex < candidates.length, \"Invalid candidate index\");\r\n\r\n    // Return the name and vote count for the candidate\r\n    return (candidates[candidateIndex].name, candidates[candidateIndex].voteCount);\r\n}\r\nfunction addCandidate(Candidate[] memory candidates, string memory _name, uint index) public {\r\n    candidates[index]=Candidate(_name, 0);\r\n}\r\n\r\n\r\n// function createElection() public{\r\n    \r\n// }\r\n\r\n//Function from chatGPT\r\nfunction getCount(Candidate[] memory candidates) public view returns (string memory) {\r\n    string memory result;\r\n\r\n    for (uint i = 0; i < candidates.length; i++) {\r\n        // Concatenate the name and vote count of the candidate to the result string\r\n        result = string(abi.encodePacked(result, candidates[i].name, \": \", Strings.toString(candidates[i].voteCount)));\r\n\r\n        // Add a comma and space if this is not the last candidate in the list\r\n        if (i != candidates.length - 1) {\r\n            result = string(abi.encodePacked(result, \", \"));\r\n        }\r\n    }\r\n\r\n    return result;\r\n}\r\n\r\n}\r\n",
  "sourcePath": "c:\\Users\\BryceG23\\CS\\CS5\\VotingBlock\\contracts\\Voting.sol",
  "compiler": {
    "name": "solc",
    "version": "0.8.13+commit.abaa5c0e.Emscripten.clang"
  },
  "schemaVersion": "3.4.11",
  "updatedAt": "2023-05-03T16:03:07.126Z",
  "networkType": "ethereum",
  "devdoc": {
    "kind": "dev",
    "methods": {},
    "version": 1
  },
  "userdoc": {
    "kind": "user",
    "methods": {},
    "version": 1
  }
}