{
  "contractName": "Voting",
  "abi": [
    {
      "inputs": [],
      "stateMutability": "nonpayable",
      "type": "constructor"
    },
    {
      "inputs": [],
      "name": "main_election",
      "outputs": [
        {
          "internalType": "string",
          "name": "election_title",
          "type": "string"
        }
      ],
      "stateMutability": "view",
      "type": "function",
      "constant": true
    },
    {
      "inputs": [],
      "name": "main_group",
      "outputs": [
        {
          "internalType": "string",
          "name": "group_title",
          "type": "string"
        }
      ],
      "stateMutability": "view",
      "type": "function",
      "constant": true
    },
    {
      "inputs": [
        {
          "internalType": "string[]",
          "name": "candidateNames",
          "type": "string[]"
        }
      ],
      "name": "createCandidates",
      "outputs": [],
      "stateMutability": "nonpayable",
      "type": "function"
    },
    {
      "inputs": [],
      "name": "getElections",
      "outputs": [
        {
          "components": [
            {
              "internalType": "string",
              "name": "election_title",
              "type": "string"
            },
            {
              "components": [
                {
                  "internalType": "string",
                  "name": "name",
                  "type": "string"
                },
                {
                  "internalType": "uint256",
                  "name": "voteCount",
                  "type": "uint256"
                }
              ],
              "internalType": "struct Voting.Candidate[]",
              "name": "candidates",
              "type": "tuple[]"
            }
          ],
          "internalType": "struct Voting.Election[]",
          "name": "elections",
          "type": "tuple[]"
        }
      ],
      "stateMutability": "view",
      "type": "function",
      "constant": true
    },
    {
      "inputs": [],
      "name": "createElection",
      "outputs": [],
      "stateMutability": "nonpayable",
      "type": "function"
    }
  ],
  "bytecode": "0x60806040523480156200001157600080fd5b506000600267ffffffffffffffff811115620000325762000031620005bb565b5b6040519080825280602002602001820160405280156200006757816020015b6060815260200190600190039081620000515790505b5090506040518060400160405280600b81526020017f43616e646964617465203100000000000000000000000000000000000000000081525081600081518110620000b757620000b6620005ea565b5b60200260200101819052506040518060400160405280600b81526020017f43616e6469646174652032000000000000000000000000000000000000000000815250816001815181106200010f576200010e620005ea565b5b60200260200101819052506040518060400160405280600d81526020017f7465737420656c656374696f6e00000000000000000000000000000000000000815250600360000190805190602001906200016a9291906200036f565b506200017c81620002bc60201b60201c565b6040518060400160405280600a81526020017f746573742067726f757000000000000000000000000000000000000000000000815250600080019080519060200190620001cb9291906200036f565b506000600101600390806001815401808255809150506001900390600052602060002090600202016000909190919091506000820181600001908054620002129062000648565b6200021f92919062000400565b5060018201816001019080546200023892919062000498565b505050600060020173882e9dcbe8e2ef7f521934f9e6ce21a9c9f9b4fe9080600181540180825580915050600190039060005260206000200160009091909190916101000a81548173ffffffffffffffffffffffffffffffffffffffff021916908373ffffffffffffffffffffffffffffffffffffffff1602179055505062000703565b60005b81518110156200036b5760036001016040518060400160405280848481518110620002ef57620002ee620005ea565b5b60200260200101518152602001600081525090806001815401808255809150506001900390600052602060002090600202016000909190919091506000820151816000019080519060200190620003489291906200036f565b5060208201518160010155505080806200036290620006b6565b915050620002bf565b5050565b8280546200037d9062000648565b90600052602060002090601f016020900481019282620003a15760008555620003ed565b82601f10620003bc57805160ff1916838001178555620003ed565b82800160010185558215620003ed579182015b82811115620003ec578251825591602001919060010190620003cf565b5b509050620003fc919062000523565b5090565b8280546200040e9062000648565b90600052602060002090601f01602090048101928262000432576000855562000485565b82601f1062000445578054855562000485565b828001600101855582156200048557600052602060002091601f016020900482015b828111156200048457825482559160010191906001019062000467565b5b50905062000494919062000523565b5090565b828054828255906000526020600020906002028101928215620005105760005260206000209160020282015b828111156200050f5782826000820181600001908054620004e59062000648565b620004f292919062000400565b5060018201548160010155505091600201919060020190620004c4565b5b5090506200051f919062000542565b5090565b5b808211156200053e57600081600090555060010162000524565b5090565b5b808211156200057157600080820160006200055f919062000575565b60018201600090555060020162000543565b5090565b508054620005839062000648565b6000825580601f10620005975750620005b8565b601f016020900490600052602060002090810190620005b7919062000523565b5b50565b7f4e487b7100000000000000000000000000000000000000000000000000000000600052604160045260246000fd5b7f4e487b7100000000000000000000000000000000000000000000000000000000600052603260045260246000fd5b7f4e487b7100000000000000000000000000000000000000000000000000000000600052602260045260246000fd5b600060028204905060018216806200066157607f821691505b60208210810362000677576200067662000619565b5b50919050565b7f4e487b7100000000000000000000000000000000000000000000000000000000600052601160045260246000fd5b6000819050919050565b6000620006c382620006ac565b91507fffffffffffffffffffffffffffffffffffffffffffffffffffffffffffffffff8203620006f857620006f76200067d565b5b600182019050919050565b610c3b80620007136000396000f3fe608060405234801561001057600080fd5b50600436106100575760003560e01c806315cd93a61461005c57806324c2286c1461007a5780639ef55740146100845780639f3a7f52146100a2578063e06cb4a8146100c0575b600080fd5b6100646100dc565b60405161007191906105db565b60405180910390f35b610082610170565b005b61008c610172565b60405161009991906105db565b60405180910390f35b6100aa610206565b6040516100b79190610865565b60405180910390f35b6100da60048036038101906100d59190610ab6565b6103f5565b005b60008060000180546100ed90610b2e565b80601f016020809104026020016040519081016040528092919081815260200182805461011990610b2e565b80156101665780601f1061013b57610100808354040283529160200191610166565b820191906000526020600020905b81548152906001019060200180831161014957829003601f168201915b5050505050905081565b565b600380600001805461018390610b2e565b80601f01602080910402602001604051908101604052809291908181526020018280546101af90610b2e565b80156101fc5780601f106101d1576101008083540402835291602001916101fc565b820191906000526020600020905b8154815290600101906020018083116101df57829003601f168201915b5050505050905081565b60606000600101805480602002602001604051908101604052809291908181526020016000905b828210156103ec578382906000526020600020906002020160405180604001604052908160008201805461026090610b2e565b80601f016020809104026020016040519081016040528092919081815260200182805461028c90610b2e565b80156102d95780601f106102ae576101008083540402835291602001916102d9565b820191906000526020600020905b8154815290600101906020018083116102bc57829003601f168201915b5050505050815260200160018201805480602002602001604051908101604052809291908181526020016000905b828210156103d5578382906000526020600020906002020160405180604001604052908160008201805461033a90610b2e565b80601f016020809104026020016040519081016040528092919081815260200182805461036690610b2e565b80156103b35780601f10610388576101008083540402835291602001916103b3565b820191906000526020600020905b81548152906001019060200180831161039657829003601f168201915b5050505050815260200160018201548152505081526020019060010190610307565b50505050815250508152602001906001019061022d565b50505050905090565b60005b815181101561049b576003600101604051806040016040528084848151811061042457610423610b5f565b5b6020026020010151815260200160008152509080600181540180825580915050600190039060005260206000209060020201600090919091909150600082015181600001908051906020019061047b92919061049f565b50602082015181600101555050808061049390610bbd565b9150506103f8565b5050565b8280546104ab90610b2e565b90600052602060002090601f0160209004810192826104cd5760008555610514565b82601f106104e657805160ff1916838001178555610514565b82800160010185558215610514579182015b828111156105135782518255916020019190600101906104f8565b5b5090506105219190610525565b5090565b5b8082111561053e576000816000905550600101610526565b5090565b600081519050919050565b600082825260208201905092915050565b60005b8381101561057c578082015181840152602081019050610561565b8381111561058b576000848401525b50505050565b6000601f19601f8301169050919050565b60006105ad82610542565b6105b7818561054d565b93506105c781856020860161055e565b6105d081610591565b840191505092915050565b600060208201905081810360008301526105f581846105a2565b905092915050565b600081519050919050565b600082825260208201905092915050565b6000819050602082019050919050565b600082825260208201905092915050565b600061064582610542565b61064f8185610629565b935061065f81856020860161055e565b61066881610591565b840191505092915050565b600081519050919050565b600082825260208201905092915050565b6000819050602082019050919050565b6000819050919050565b6106b28161069f565b82525050565b600060408301600083015184820360008601526106d5828261063a565b91505060208301516106ea60208601826106a9565b508091505092915050565b600061070183836106b8565b905092915050565b6000602082019050919050565b600061072182610673565b61072b818561067e565b93508360208202850161073d8561068f565b8060005b85811015610779578484038952815161075a85826106f5565b945061076583610709565b925060208a01995050600181019050610741565b50829750879550505050505092915050565b600060408301600083015184820360008601526107a8828261063a565b915050602083015184820360208601526107c28282610716565b9150508091505092915050565b60006107db838361078b565b905092915050565b6000602082019050919050565b60006107fb826105fd565b6108058185610608565b93508360208202850161081785610619565b8060005b85811015610853578484038952815161083485826107cf565b945061083f836107e3565b925060208a0199505060018101905061081b565b50829750879550505050505092915050565b6000602082019050818103600083015261087f81846107f0565b905092915050565b6000604051905090565b600080fd5b600080fd5b600080fd5b7f4e487b7100000000000000000000000000000000000000000000000000000000600052604160045260246000fd5b6108d882610591565b810181811067ffffffffffffffff821117156108f7576108f66108a0565b5b80604052505050565b600061090a610887565b905061091682826108cf565b919050565b600067ffffffffffffffff821115610936576109356108a0565b5b602082029050602081019050919050565b600080fd5b600080fd5b600067ffffffffffffffff82111561096c5761096b6108a0565b5b61097582610591565b9050602081019050919050565b82818337600083830152505050565b60006109a461099f84610951565b610900565b9050828152602081018484840111156109c0576109bf61094c565b5b6109cb848285610982565b509392505050565b600082601f8301126109e8576109e761089b565b5b81356109f8848260208601610991565b91505092915050565b6000610a14610a0f8461091b565b610900565b90508083825260208201905060208402830185811115610a3757610a36610947565b5b835b81811015610a7e57803567ffffffffffffffff811115610a5c57610a5b61089b565b5b808601610a6989826109d3565b85526020850194505050602081019050610a39565b5050509392505050565b600082601f830112610a9d57610a9c61089b565b5b8135610aad848260208601610a01565b91505092915050565b600060208284031215610acc57610acb610891565b5b600082013567ffffffffffffffff811115610aea57610ae9610896565b5b610af684828501610a88565b91505092915050565b7f4e487b7100000000000000000000000000000000000000000000000000000000600052602260045260246000fd5b60006002820490506001821680610b4657607f821691505b602082108103610b5957610b58610aff565b5b50919050565b7f4e487b7100000000000000000000000000000000000000000000000000000000600052603260045260246000fd5b7f4e487b7100000000000000000000000000000000000000000000000000000000600052601160045260246000fd5b6000610bc88261069f565b91507fffffffffffffffffffffffffffffffffffffffffffffffffffffffffffffffff8203610bfa57610bf9610b8e565b5b60018201905091905056fea2646970667358221220e04bcd22047573e3bcc81114e103e73b7fa8d474b375d58667873264dcbdb6d164736f6c634300080d0033",
  "immutableReferences": {},
  "source": "pragma solidity ^0.8.0;\r\n//import \"@openzeppelin/contracts/utils/Strings.sol\";\r\n\r\n\r\n/*This code was taken from chat-gpt and then altered.\r\n*/\r\ncontract Voting {\r\n    \r\n    // Candidate struct\r\nstruct Candidate {\r\n    string name;\r\n    uint voteCount;\r\n}\r\n\r\n// structure of election\r\nstruct Election {\r\n    string election_title;\r\n    Candidate[] candidates;\r\n}\r\n\r\nstruct Group {\r\n    string group_title;\r\n    Election[] elections;\r\n    address[] members; // array of member addresses\r\n}\r\n\r\n// Array of candidates\r\nGroup public main_group;\r\nElection public main_election;\r\n\r\n// Constructor to initialize the candidates\r\nconstructor() {\r\n    string[] memory _candidateNames = new string[](2);\r\n    _candidateNames[0] = \"Candidate 1\";\r\n    _candidateNames[1] = \"Candidate 2\";\r\n    main_election.election_title=\"test election\";\r\n    createCandidates(_candidateNames);\r\n    main_group.group_title=\"test group\";\r\n    main_group.elections.push(main_election);\r\n    main_group.members.push(0x882e9dCbe8e2EF7f521934F9E6CE21A9c9f9b4FE);\r\n}\r\n\r\nfunction createCandidates(string[] memory candidateNames) public {\r\n    for(uint i = 0; i < candidateNames.length; i++) {\r\n        main_election.candidates.push(Candidate(candidateNames[i], 0));\r\n    }\r\n}\r\nfunction getElections() public view returns (Election[] memory elections) {\r\n    return main_group.elections;\r\n}\r\n\r\n/*\r\n    // Function to vote for a candidate\r\n    function vote(uint candidateIndex, Candidate[] memory candidates) public {\r\n        // Check if candidate index is valid\r\n        require(candidateIndex >= 0 && candidateIndex < candidates.length, \"Invalid candidate index\");\r\n\r\n        // Increment the vote count for the candidate\r\n        candidates[candidateIndex].voteCount++;\r\n    }\r\n\r\n    // Function to get the name and vote count for a candidate\r\n    function getCandidate(uint candidateIndex, Candidate[] memory candidates) public view returns (string memory, uint) {\r\n        // Check if candidate index is valid\r\n        require(candidateIndex >= 0 && candidateIndex < candidates.length, \"Invalid candidate index\");\r\n\r\n        // Return the name and vote count for the candidate\r\n        return (candidates[candidateIndex].name, candidates[candidateIndex].voteCount);\r\n    }\r\n    */\r\n\r\n    function createElection() public{\r\n        \r\n    }\r\n\r\n    // function getCount() public{\r\n    //     string memory response = '';\r\n    //     for (uint i=0; i<candidates.length; i++) {\r\n    //         response = string.concat(response, Strings.toString(candidates[0].voteCount));\r\n    //     }\r\n    // }\r\n}\r\n",
  "sourcePath": "c:\\Users\\kaitl\\VotingBlockGit\\contracts\\Voting.sol",
  "compiler": {
    "name": "solc",
    "version": "0.8.13+commit.abaa5c0e.Emscripten.clang"
  },
  "schemaVersion": "3.4.11",
  "updatedAt": "2023-05-04T02:44:06.083Z",
  "networkType": "ethereum",
  "devdoc": {
    "kind": "dev",
    "methods": {},
    "version": 1
  },
  "userdoc": {
    "kind": "user",
    "methods": {},
    "version": 1
  }
}