{
  "contractName": "Voting",
  "abi": [
    {
      "inputs": [],
      "stateMutability": "nonpayable",
      "type": "constructor"
    },
    {
      "inputs": [
        {
          "internalType": "uint256",
          "name": "",
          "type": "uint256"
        }
      ],
      "name": "groups",
      "outputs": [
        {
          "internalType": "string",
          "name": "groupTitle",
          "type": "string"
        },
        {
          "internalType": "address",
          "name": "adminAddress",
          "type": "address"
        }
      ],
      "stateMutability": "view",
      "type": "function",
      "constant": true
    },
    {
      "inputs": [
        {
          "internalType": "string",
          "name": "name",
          "type": "string"
        }
      ],
      "name": "createGroup",
      "outputs": [],
      "stateMutability": "nonpayable",
      "type": "function"
    },
    {
      "inputs": [
        {
          "internalType": "uint256",
          "name": "groupID",
          "type": "uint256"
        },
        {
          "internalType": "string",
          "name": "name",
          "type": "string"
        }
      ],
      "name": "createElection",
      "outputs": [],
      "stateMutability": "nonpayable",
      "type": "function"
    },
    {
      "inputs": [
        {
          "internalType": "uint256",
          "name": "groupID",
          "type": "uint256"
        },
        {
          "internalType": "string",
          "name": "name",
          "type": "string"
        }
      ],
      "name": "createCandidate",
      "outputs": [],
      "stateMutability": "nonpayable",
      "type": "function"
    },
    {
      "inputs": [],
      "name": "getGroups",
      "outputs": [
        {
          "components": [
            {
              "internalType": "string",
              "name": "groupTitle",
              "type": "string"
            },
            {
              "components": [
                {
                  "internalType": "string",
                  "name": "electionTitle",
                  "type": "string"
                },
                {
                  "components": [
                    {
                      "internalType": "string",
                      "name": "name",
                      "type": "string"
                    },
                    {
                      "internalType": "uint256",
                      "name": "voteCount",
                      "type": "uint256"
                    }
                  ],
                  "internalType": "struct Voting.Candidate[]",
                  "name": "candidates",
                  "type": "tuple[]"
                }
              ],
              "internalType": "struct Voting.Election[]",
              "name": "elections",
              "type": "tuple[]"
            },
            {
              "internalType": "address[]",
              "name": "members",
              "type": "address[]"
            },
            {
              "internalType": "address",
              "name": "adminAddress",
              "type": "address"
            }
          ],
          "internalType": "struct Voting.Group[]",
          "name": "",
          "type": "tuple[]"
        }
      ],
      "stateMutability": "view",
      "type": "function",
      "constant": true
    },
    {
      "inputs": [
        {
          "internalType": "uint256",
          "name": "groupID",
          "type": "uint256"
        },
        {
          "internalType": "uint256",
          "name": "electionIndex",
          "type": "uint256"
        },
        {
          "internalType": "uint256",
          "name": "candidateIndex",
          "type": "uint256"
        }
      ],
      "name": "vote",
      "outputs": [],
      "stateMutability": "nonpayable",
      "type": "function"
    },
    {
      "inputs": [
        {
          "internalType": "uint256",
          "name": "groupID",
          "type": "uint256"
        },
        {
          "internalType": "uint256",
          "name": "electionIndex",
          "type": "uint256"
        },
        {
          "internalType": "uint256",
          "name": "candidateIndex",
          "type": "uint256"
        }
      ],
      "name": "getCandidate",
      "outputs": [
        {
          "internalType": "string",
          "name": "",
          "type": "string"
        },
        {
          "internalType": "uint256",
          "name": "",
          "type": "uint256"
        }
      ],
      "stateMutability": "view",
      "type": "function",
      "constant": true
    }
  ],
  "bytecode": "0x60806040523480156200001157600080fd5b50620000586040518060400160405280600481526020017f6d61696e000000000000000000000000000000000000000000000000000000008152506200013660201b60201c565b620000a060006040518060400160405280601081526020017f323031362064656d207072696d617279000000000000000000000000000000008152506200027a60201b60201c565b620000e860006040518060400160405280600b81526020017f43616e64696461746520310000000000000000000000000000000000000000008152506200039e60201b60201c565b6200013060006040518060400160405280600b81526020017f43616e64696461746520320000000000000000000000000000000000000000008152506200039e60201b60201c565b6200064f565b60006001816001815401808255809150500390600052602060002090505060008060016000805490506200016b919062000581565b815481106200017f576200017e620005bc565b5b9060005260206000209060040201905081816000019080519060200190620001a992919062000498565b50338160030160006101000a81548173ffffffffffffffffffffffffffffffffffffffff021916908373ffffffffffffffffffffffffffffffffffffffff160217905550806002018160030160009054906101000a900473ffffffffffffffffffffffffffffffffffffffff169080600181540180825580915050600190039060005260206000200160009091909190916101000a81548173ffffffffffffffffffffffffffffffffffffffff021916908373ffffffffffffffffffffffffffffffffffffffff1602179055505050565b60008281548110620002915762000290620005bc565b5b906000526020600020906004020160030160009054906101000a900473ffffffffffffffffffffffffffffffffffffffff1673ffffffffffffffffffffffffffffffffffffffff163373ffffffffffffffffffffffffffffffffffffffff1614620002fb57600080fd5b6000808381548110620003135762000312620005bc565b5b9060005260206000209060040201600101905080600181600181540180825580915050039060005260206000209050506000816001838054905062000359919062000581565b815481106200036d576200036c620005bc565b5b90600052602060002090600202019050828160000190805190602001906200039792919062000498565b5050505050565b6000808381548110620003b657620003b5620005bc565b5b9060005260206000209060040201600101600160008581548110620003e057620003df620005bc565b5b90600052602060002090600402016001018054905062000401919062000581565b81548110620004155762000414620005bc565b5b906000526020600020906002020160010190508060405180604001604052808481526020016000815250908060018154018082558091505060019003906000526020600020906002020160009091909190915060008201518160000190805190602001906200048692919062000498565b50602082015181600101555050505050565b828054620004a6906200061a565b90600052602060002090601f016020900481019282620004ca576000855562000516565b82601f10620004e557805160ff191683800117855562000516565b8280016001018555821562000516579182015b8281111562000515578251825591602001919060010190620004f8565b5b50905062000525919062000529565b5090565b5b80821115620005445760008160009055506001016200052a565b5090565b6000819050919050565b7f4e487b7100000000000000000000000000000000000000000000000000000000600052601160045260246000fd5b60006200058e8262000548565b91506200059b8362000548565b925082821015620005b157620005b062000552565b5b828203905092915050565b7f4e487b7100000000000000000000000000000000000000000000000000000000600052603260045260246000fd5b7f4e487b7100000000000000000000000000000000000000000000000000000000600052602260045260246000fd5b600060028204905060018216806200063357607f821691505b602082108103620006495762000648620005eb565b5b50919050565b6116d6806200065f6000396000f3fe608060405234801561001057600080fd5b506004361061007d5760003560e01c80638a6655d61161005b5780638a6655d6146100eb57806396324bd414610107578063c72b517614610138578063dc2ddcae146101565761007d565b8063588d49f41461008257806373ddf411146100b35780637da09d94146100cf575b600080fd5b61009c60048036038101906100979190610ce6565b610172565b6040516100aa929190610de1565b60405180910390f35b6100cd60048036038101906100c89190610f46565b6102fc565b005b6100e960048036038101906100e49190610f46565b6103e9565b005b61010560048036038101906101009190610ce6565b6104ff565b005b610121600480360381019061011c9190610fa2565b61061f565b60405161012f929190611010565b60405180910390f35b6101406106fb565b60405161014d919061148f565b60405180910390f35b610170600480360381019061016b91906114b1565b610abc565b005b60606000806000868154811061018b5761018a6114fa565b5b906000526020600020906004020160010185815481106101ae576101ad6114fa565b5b90600052602060002090600202019050600084101580156101d55750806001018054905084105b610214576040517f08c379a000000000000000000000000000000000000000000000000000000000815260040161020b90611575565b60405180910390fd5b80600101848154811061022a576102296114fa565b5b9060005260206000209060020201600001816001018581548110610251576102506114fa565b5b90600052602060002090600202016001015481805461026f906115c4565b80601f016020809104026020016040519081016040528092919081815260200182805461029b906115c4565b80156102e85780601f106102bd576101008083540402835291602001916102e8565b820191906000526020600020905b8154815290600101906020018083116102cb57829003601f168201915b505050505091509250925050935093915050565b6000808381548110610311576103106114fa565b5b9060005260206000209060040201600101600160008581548110610338576103376114fa565b5b9060005260206000209060040201600101805490506103579190611624565b81548110610368576103676114fa565b5b906000526020600020906002020160010190508060405180604001604052808481526020016000815250908060018154018082558091505060019003906000526020600020906002020160009091909190915060008201518160000190805190602001906103d7929190610bf9565b50602082015181600101555050505050565b600082815481106103fd576103fc6114fa565b5b906000526020600020906004020160030160009054906101000a900473ffffffffffffffffffffffffffffffffffffffff1673ffffffffffffffffffffffffffffffffffffffff163373ffffffffffffffffffffffffffffffffffffffff161461046657600080fd5b600080838154811061047b5761047a6114fa565b5b906000526020600020906004020160010190508060018160018154018082558091505003906000526020600020905050600081600183805490506104bf9190611624565b815481106104d0576104cf6114fa565b5b90600052602060002090600202019050828160000190805190602001906104f8929190610bf9565b5050505050565b6000811015801561055a57506000838154811061051f5761051e6114fa565b5b90600052602060002090600402016001018281548110610542576105416114fa565b5b90600052602060002090600202016001018054905081105b610599576040517f08c379a000000000000000000000000000000000000000000000000000000000815260040161059090611575565b60405180910390fd5b600083815481106105ad576105ac6114fa565b5b906000526020600020906004020160010182815481106105d0576105cf6114fa565b5b906000526020600020906002020160010181815481106105f3576105f26114fa565b5b9060005260206000209060020201600101600081548092919061061590611658565b9190505550505050565b6000818154811061062f57600080fd5b9060005260206000209060040201600091509050806000018054610652906115c4565b80601f016020809104026020016040519081016040528092919081815260200182805461067e906115c4565b80156106cb5780601f106106a0576101008083540402835291602001916106cb565b820191906000526020600020905b8154815290600101906020018083116106ae57829003601f168201915b5050505050908060030160009054906101000a900473ffffffffffffffffffffffffffffffffffffffff16905082565b60606000805480602002602001604051908101604052809291908181526020016000905b82821015610ab35783829060005260206000209060040201604051806080016040529081600082018054610752906115c4565b80601f016020809104026020016040519081016040528092919081815260200182805461077e906115c4565b80156107cb5780601f106107a0576101008083540402835291602001916107cb565b820191906000526020600020905b8154815290600101906020018083116107ae57829003601f168201915b5050505050815260200160018201805480602002602001604051908101604052809291908181526020016000905b828210156109b8578382906000526020600020906002020160405180604001604052908160008201805461082c906115c4565b80601f0160208091040260200160405190810160405280929190818152602001828054610858906115c4565b80156108a55780601f1061087a576101008083540402835291602001916108a5565b820191906000526020600020905b81548152906001019060200180831161088857829003601f168201915b5050505050815260200160018201805480602002602001604051908101604052809291908181526020016000905b828210156109a15783829060005260206000209060020201604051806040016040529081600082018054610906906115c4565b80601f0160208091040260200160405190810160405280929190818152602001828054610932906115c4565b801561097f5780601f106109545761010080835404028352916020019161097f565b820191906000526020600020905b81548152906001019060200180831161096257829003601f168201915b50505050508152602001600182015481525050815260200190600101906108d3565b5050505081525050815260200190600101906107f9565b50505050815260200160028201805480602002602001604051908101604052809291908181526020018280548015610a4557602002820191906000526020600020905b8160009054906101000a900473ffffffffffffffffffffffffffffffffffffffff1673ffffffffffffffffffffffffffffffffffffffff16815260200190600101908083116109fb575b505050505081526020016003820160009054906101000a900473ffffffffffffffffffffffffffffffffffffffff1673ffffffffffffffffffffffffffffffffffffffff1673ffffffffffffffffffffffffffffffffffffffff16815250508152602001906001019061071f565b50505050905090565b6000600181600181540180825580915050039060005260206000209050506000806001600080549050610aef9190611624565b81548110610b0057610aff6114fa565b5b9060005260206000209060040201905081816000019080519060200190610b28929190610bf9565b50338160030160006101000a81548173ffffffffffffffffffffffffffffffffffffffff021916908373ffffffffffffffffffffffffffffffffffffffff160217905550806002018160030160009054906101000a900473ffffffffffffffffffffffffffffffffffffffff169080600181540180825580915050600190039060005260206000200160009091909190916101000a81548173ffffffffffffffffffffffffffffffffffffffff021916908373ffffffffffffffffffffffffffffffffffffffff1602179055505050565b828054610c05906115c4565b90600052602060002090601f016020900481019282610c275760008555610c6e565b82601f10610c4057805160ff1916838001178555610c6e565b82800160010185558215610c6e579182015b82811115610c6d578251825591602001919060010190610c52565b5b509050610c7b9190610c7f565b5090565b5b80821115610c98576000816000905550600101610c80565b5090565b6000604051905090565b600080fd5b600080fd5b6000819050919050565b610cc381610cb0565b8114610cce57600080fd5b50565b600081359050610ce081610cba565b92915050565b600080600060608486031215610cff57610cfe610ca6565b5b6000610d0d86828701610cd1565b9350506020610d1e86828701610cd1565b9250506040610d2f86828701610cd1565b9150509250925092565b600081519050919050565b600082825260208201905092915050565b60005b83811015610d73578082015181840152602081019050610d58565b83811115610d82576000848401525b50505050565b6000601f19601f8301169050919050565b6000610da482610d39565b610dae8185610d44565b9350610dbe818560208601610d55565b610dc781610d88565b840191505092915050565b610ddb81610cb0565b82525050565b60006040820190508181036000830152610dfb8185610d99565b9050610e0a6020830184610dd2565b9392505050565b600080fd5b600080fd5b7f4e487b7100000000000000000000000000000000000000000000000000000000600052604160045260246000fd5b610e5382610d88565b810181811067ffffffffffffffff82111715610e7257610e71610e1b565b5b80604052505050565b6000610e85610c9c565b9050610e918282610e4a565b919050565b600067ffffffffffffffff821115610eb157610eb0610e1b565b5b610eba82610d88565b9050602081019050919050565b82818337600083830152505050565b6000610ee9610ee484610e96565b610e7b565b905082815260208101848484011115610f0557610f04610e16565b5b610f10848285610ec7565b509392505050565b600082601f830112610f2d57610f2c610e11565b5b8135610f3d848260208601610ed6565b91505092915050565b60008060408385031215610f5d57610f5c610ca6565b5b6000610f6b85828601610cd1565b925050602083013567ffffffffffffffff811115610f8c57610f8b610cab565b5b610f9885828601610f18565b9150509250929050565b600060208284031215610fb857610fb7610ca6565b5b6000610fc684828501610cd1565b91505092915050565b600073ffffffffffffffffffffffffffffffffffffffff82169050919050565b6000610ffa82610fcf565b9050919050565b61100a81610fef565b82525050565b6000604082019050818103600083015261102a8185610d99565b90506110396020830184611001565b9392505050565b600081519050919050565b600082825260208201905092915050565b6000819050602082019050919050565b600082825260208201905092915050565b600061108882610d39565b611092818561106c565b93506110a2818560208601610d55565b6110ab81610d88565b840191505092915050565b600081519050919050565b600082825260208201905092915050565b6000819050602082019050919050565b600081519050919050565b600082825260208201905092915050565b6000819050602082019050919050565b61111781610cb0565b82525050565b6000604083016000830151848203600086015261113a828261107d565b915050602083015161114f602086018261110e565b508091505092915050565b6000611166838361111d565b905092915050565b6000602082019050919050565b6000611186826110e2565b61119081856110ed565b9350836020820285016111a2856110fe565b8060005b858110156111de57848403895281516111bf858261115a565b94506111ca8361116e565b925060208a019950506001810190506111a6565b50829750879550505050505092915050565b6000604083016000830151848203600086015261120d828261107d565b91505060208301518482036020860152611227828261117b565b9150508091505092915050565b600061124083836111f0565b905092915050565b6000602082019050919050565b6000611260826110b6565b61126a81856110c1565b93508360208202850161127c856110d2565b8060005b858110156112b857848403895281516112998582611234565b94506112a483611248565b925060208a01995050600181019050611280565b50829750879550505050505092915050565b600081519050919050565b600082825260208201905092915050565b6000819050602082019050919050565b6112ff81610fef565b82525050565b600061131183836112f6565b60208301905092915050565b6000602082019050919050565b6000611335826112ca565b61133f81856112d5565b935061134a836112e6565b8060005b8381101561137b5781516113628882611305565b975061136d8361131d565b92505060018101905061134e565b5085935050505092915050565b600060808301600083015184820360008601526113a5828261107d565b915050602083015184820360208601526113bf8282611255565b915050604083015184820360408601526113d9828261132a565b91505060608301516113ee60608601826112f6565b508091505092915050565b60006114058383611388565b905092915050565b6000602082019050919050565b600061142582611040565b61142f818561104b565b9350836020820285016114418561105c565b8060005b8581101561147d578484038952815161145e85826113f9565b94506114698361140d565b925060208a01995050600181019050611445565b50829750879550505050505092915050565b600060208201905081810360008301526114a9818461141a565b905092915050565b6000602082840312156114c7576114c6610ca6565b5b600082013567ffffffffffffffff8111156114e5576114e4610cab565b5b6114f184828501610f18565b91505092915050565b7f4e487b7100000000000000000000000000000000000000000000000000000000600052603260045260246000fd5b7f496e76616c69642063616e64696461746520696e646578000000000000000000600082015250565b600061155f601783610d44565b915061156a82611529565b602082019050919050565b6000602082019050818103600083015261158e81611552565b9050919050565b7f4e487b7100000000000000000000000000000000000000000000000000000000600052602260045260246000fd5b600060028204905060018216806115dc57607f821691505b6020821081036115ef576115ee611595565b5b50919050565b7f4e487b7100000000000000000000000000000000000000000000000000000000600052601160045260246000fd5b600061162f82610cb0565b915061163a83610cb0565b92508282101561164d5761164c6115f5565b5b828203905092915050565b600061166382610cb0565b91507fffffffffffffffffffffffffffffffffffffffffffffffffffffffffffffffff8203611695576116946115f5565b5b60018201905091905056fea26469706673582212205bf24140958f8587e77ebc2c2e45d989e87aa0ab11d59a92d7975c262655293364736f6c634300080d0033",
  "immutableReferences": {},
  "source": "pragma solidity ^0.8.0;\r\n\r\n//import \"@openzeppelin/contracts/utils/Strings.sol\";\r\n\r\ncontract Voting {\r\n    \r\n    // Candidate struct\r\n    struct Candidate {\r\n        string name;\r\n        uint voteCount;\r\n    }\r\n\r\n    // Structure of election\r\n    struct Election {\r\n        string electionTitle;\r\n        Candidate[] candidates;\r\n    }\r\n\r\n    struct Group {\r\n        string groupTitle;\r\n        Election[] elections; // fixed-size array of elections\r\n        address[] members; // Array of member addresses\r\n        address adminAddress; \r\n    }\r\n\r\n    // Array of groups\r\n    Group[] public groups;\r\n\r\n    // Constructor to initialize the candidates\r\n    constructor() {\r\n        createGroup('main');\r\n        createElection(0, '2016 dem primary');\r\n        createCandidate(0, 'Candidate 1');\r\n        createCandidate(0, 'Candidate 2');\r\n    }\r\n    // adds a new group to groups[]\r\n    function createGroup(string memory name) public { \r\n        // Expand the storage array\r\n        groups.push();\r\n        Group storage newGroup = groups[groups.length - 1];\r\n        newGroup.groupTitle = name;\r\n        newGroup.adminAddress=msg.sender;// set admin to the address which calls the function\r\n        newGroup.members.push(newGroup.adminAddress);\r\n    }\r\n    \r\n    // adds a new election to a specified group in groups[]\r\n    // function createElection(uint groupID, string memory name) public { \r\n    //     Election[] storage elections = groups[groupID].elections;\r\n    //     elections.push();\r\n    //     Election storage newElection = elections[elections.length-1];\r\n    //     newElection.electionTitle=name;\r\n    // }\r\n\r\n   function createElection(uint groupID, string memory name) public { \r\n        require(msg.sender == groups[groupID].adminAddress);\r\n        Election[] storage elections = groups[groupID].elections;\r\n        elections.push();\r\n        Election storage newElection = elections[elections.length-1];\r\n        newElection.electionTitle=name;\r\n    }    \r\n    // adds a new candidate to the last election in a specified group\r\n    function createCandidate(uint groupID, string memory name) public {\r\n        Candidate[] storage candidates = groups[groupID].elections[groups[groupID].elections.length - 1].candidates;\r\n        candidates.push(Candidate(name, 0));\r\n    }\r\n    function getGroups() public view returns (Group[] memory) {\r\n        return groups;\r\n    }\r\n\r\n    // Function to vote for a candidate\r\n    function vote(uint groupID, uint electionIndex, uint candidateIndex) public {\r\n        // Election storage election = groups[groupID].elections[electionIndex];\r\n        // Check if candidate index is valid\r\n        require(candidateIndex >= 0 && candidateIndex < groups[groupID].elections[electionIndex].candidates.length, \"Invalid candidate index\");\r\n\r\n        // Increment the vote count for the candidate\r\n        groups[groupID].elections[electionIndex].candidates[candidateIndex].voteCount++;\r\n    }\r\n\r\n    // Function to get the name and vote count for a candidate\r\n    function getCandidate(uint groupID, uint electionIndex, uint candidateIndex) public view returns (string memory, uint) {\r\n        Election storage election = groups[groupID].elections[electionIndex];\r\n        // Check if candidate index is valid\r\n        require(candidateIndex >= 0 && candidateIndex < election.candidates.length, \"Invalid candidate index\");\r\n\r\n        // Return the name and vote count for the candidate\r\n        return (election.candidates[candidateIndex].name, election.candidates[candidateIndex].voteCount);\r\n    }\r\n    /*\r\n    function endElection (uint groupID, uint electionIndex) public {\r\n        \r\n    }\r\n    */\r\n}",
  "sourcePath": "c:\\Users\\BryceG23\\CS\\CS5\\VotingBlock\\contracts\\Voting.sol",
  "compiler": {
    "name": "solc",
    "version": "0.8.13+commit.abaa5c0e.Emscripten.clang"
  },
  "schemaVersion": "3.4.11",
  "updatedAt": "2023-05-16T15:59:33.159Z",
  "networkType": "ethereum",
  "devdoc": {
    "kind": "dev",
    "methods": {},
    "version": 1
  },
  "userdoc": {
    "kind": "user",
    "methods": {},
    "version": 1
  }
}