{
  "contractName": "Voting",
  "abi": [
    {
      "inputs": [],
      "stateMutability": "nonpayable",
      "type": "constructor"
    },
    {
      "inputs": [
        {
          "internalType": "uint256",
          "name": "",
          "type": "uint256"
        }
      ],
      "name": "groups",
      "outputs": [
        {
          "internalType": "string",
          "name": "groupTitle",
          "type": "string"
        }
      ],
      "stateMutability": "view",
      "type": "function"
    },
    {
      "inputs": [
        {
          "internalType": "string",
          "name": "name",
          "type": "string"
        }
      ],
      "name": "createGroup",
      "outputs": [],
      "stateMutability": "nonpayable",
      "type": "function"
    },
    {
      "inputs": [
        {
          "internalType": "uint256",
          "name": "groupID",
          "type": "uint256"
        },
        {
          "internalType": "string",
          "name": "name",
          "type": "string"
        }
      ],
      "name": "createElection",
      "outputs": [],
      "stateMutability": "nonpayable",
      "type": "function"
    },
    {
      "inputs": [
        {
          "internalType": "uint256",
          "name": "groupID",
          "type": "uint256"
        },
        {
          "internalType": "string",
          "name": "name",
          "type": "string"
        }
      ],
      "name": "createCandidate",
      "outputs": [],
      "stateMutability": "nonpayable",
      "type": "function"
    },
    {
      "inputs": [],
      "name": "getGroups",
      "outputs": [
        {
          "components": [
            {
              "internalType": "string",
              "name": "groupTitle",
              "type": "string"
            },
            {
              "components": [
                {
                  "internalType": "string",
                  "name": "electionTitle",
                  "type": "string"
                },
                {
                  "components": [
                    {
                      "internalType": "string",
                      "name": "name",
                      "type": "string"
                    },
                    {
                      "internalType": "uint256",
                      "name": "voteCount",
                      "type": "uint256"
                    }
                  ],
                  "internalType": "struct Voting.Candidate[]",
                  "name": "candidates",
                  "type": "tuple[]"
                }
              ],
              "internalType": "struct Voting.Election[]",
              "name": "elections",
              "type": "tuple[]"
            }
          ],
          "internalType": "struct Voting.Group[]",
          "name": "",
          "type": "tuple[]"
        }
      ],
      "stateMutability": "view",
      "type": "function"
    },
    {
      "inputs": [
        {
          "internalType": "uint256",
          "name": "groupID",
          "type": "uint256"
        },
        {
          "internalType": "uint256",
          "name": "electionIndex",
          "type": "uint256"
        },
        {
          "internalType": "uint256",
          "name": "candidateIndex",
          "type": "uint256"
        }
      ],
      "name": "vote",
      "outputs": [],
      "stateMutability": "nonpayable",
      "type": "function"
    },
    {
      "inputs": [
        {
          "internalType": "uint256",
          "name": "groupID",
          "type": "uint256"
        },
        {
          "internalType": "uint256",
          "name": "electionIndex",
          "type": "uint256"
        },
        {
          "internalType": "uint256",
          "name": "candidateIndex",
          "type": "uint256"
        }
      ],
      "name": "getCandidate",
      "outputs": [
        {
          "internalType": "string",
          "name": "",
          "type": "string"
        },
        {
          "internalType": "uint256",
          "name": "",
          "type": "uint256"
        }
      ],
      "stateMutability": "view",
      "type": "function"
    }
  ],
  "bytecode": "0x60806040523480156200001157600080fd5b50620000586040518060400160405280600481526020017f6d61696e000000000000000000000000000000000000000000000000000000008152506200013660201b60201c565b620000a060006040518060400160405280601081526020017f323031362064656d207072696d61727900000000000000000000000000000000815250620001ae60201b60201c565b620000e860006040518060400160405280600b81526020017f43616e64696461746520310000000000000000000000000000000000000000008152506200025160201b60201c565b6200013060006040518060400160405280600b81526020017f43616e64696461746520320000000000000000000000000000000000000000008152506200025160201b60201c565b62000502565b60006001816001815401808255809150500390600052602060002090505060008060016000805490506200016b919062000434565b815481106200017f576200017e6200046f565b5b9060005260206000209060020201905081816000019080519060200190620001a99291906200034b565b505050565b6000808381548110620001c657620001c56200046f565b5b906000526020600020906002020160010190508060018160018154018082558091505003906000526020600020905050600081600183805490506200020c919062000434565b8154811062000220576200021f6200046f565b5b90600052602060002090600202019050828160000190805190602001906200024a9291906200034b565b5050505050565b60008083815481106200026957620002686200046f565b5b90600052602060002090600202016001016001600085815481106200029357620002926200046f565b5b906000526020600020906002020160010180549050620002b4919062000434565b81548110620002c857620002c76200046f565b5b90600052602060002090600202016001019050806040518060400160405280848152602001600081525090806001815401808255809150506001900390600052602060002090600202016000909190919091506000820151816000019080519060200190620003399291906200034b565b50602082015181600101555050505050565b8280546200035990620004cd565b90600052602060002090601f0160209004810192826200037d5760008555620003c9565b82601f106200039857805160ff1916838001178555620003c9565b82800160010185558215620003c9579182015b82811115620003c8578251825591602001919060010190620003ab565b5b509050620003d89190620003dc565b5090565b5b80821115620003f7576000816000905550600101620003dd565b5090565b6000819050919050565b7f4e487b7100000000000000000000000000000000000000000000000000000000600052601160045260246000fd5b60006200044182620003fb565b91506200044e83620003fb565b92508282101562000464576200046362000405565b5b828203905092915050565b7f4e487b7100000000000000000000000000000000000000000000000000000000600052603260045260246000fd5b7f4e487b7100000000000000000000000000000000000000000000000000000000600052602260045260246000fd5b60006002820490506001821680620004e657607f821691505b602082108103620004fc57620004fb6200049e565b5b50919050565b61134880620005126000396000f3fe608060405234801561001057600080fd5b506004361061007d5760003560e01c80638a6655d61161005b5780638a6655d6146100eb57806396324bd414610107578063c72b517614610137578063dc2ddcae146101555761007d565b8063588d49f41461008257806373ddf411146100b35780637da09d94146100cf575b600080fd5b61009c60048036038101906100979190610a92565b610171565b6040516100aa929190610b8d565b60405180910390f35b6100cd60048036038101906100c89190610cf2565b6102fb565b005b6100e960048036038101906100e49190610cf2565b6103e8565b005b61010560048036038101906101009190610a92565b610481565b005b610121600480360381019061011c9190610d4e565b6105a1565b60405161012e9190610d7b565b60405180910390f35b61013f610657565b60405161014c9190611101565b60405180910390f35b61016f600480360381019061016a9190611123565b610934565b005b60606000806000868154811061018a5761018961116c565b5b906000526020600020906002020160010185815481106101ad576101ac61116c565b5b90600052602060002090600202019050600084101580156101d45750806001018054905084105b610213576040517f08c379a000000000000000000000000000000000000000000000000000000000815260040161020a906111e7565b60405180910390fd5b8060010184815481106102295761022861116c565b5b90600052602060002090600202016000018160010185815481106102505761024f61116c565b5b90600052602060002090600202016001015481805461026e90611236565b80601f016020809104026020016040519081016040528092919081815260200182805461029a90611236565b80156102e75780601f106102bc576101008083540402835291602001916102e7565b820191906000526020600020905b8154815290600101906020018083116102ca57829003601f168201915b505050505091509250925050935093915050565b60008083815481106103105761030f61116c565b5b90600052602060002090600202016001016001600085815481106103375761033661116c565b5b9060005260206000209060020201600101805490506103569190611296565b815481106103675761036661116c565b5b906000526020600020906002020160010190508060405180604001604052808481526020016000815250908060018154018082558091505060019003906000526020600020906002020160009091909190915060008201518160000190805190602001906103d69291906109a5565b50602082015181600101555050505050565b60008083815481106103fd576103fc61116c565b5b906000526020600020906002020160010190508060018160018154018082558091505003906000526020600020905050600081600183805490506104419190611296565b815481106104525761045161116c565b5b906000526020600020906002020190508281600001908051906020019061047a9291906109a5565b5050505050565b600081101580156104dc5750600083815481106104a1576104a061116c565b5b906000526020600020906002020160010182815481106104c4576104c361116c565b5b90600052602060002090600202016001018054905081105b61051b576040517f08c379a0000000000000000000000000000000000000000000000000000000008152600401610512906111e7565b60405180910390fd5b6000838154811061052f5761052e61116c565b5b906000526020600020906002020160010182815481106105525761055161116c565b5b906000526020600020906002020160010181815481106105755761057461116c565b5b90600052602060002090600202016001016000815480929190610597906112ca565b9190505550505050565b600081815481106105b157600080fd5b90600052602060002090600202016000915090508060000180546105d490611236565b80601f016020809104026020016040519081016040528092919081815260200182805461060090611236565b801561064d5780601f106106225761010080835404028352916020019161064d565b820191906000526020600020905b81548152906001019060200180831161063057829003601f168201915b5050505050905081565b60606000805480602002602001604051908101604052809291908181526020016000905b8282101561092b57838290600052602060002090600202016040518060400160405290816000820180546106ae90611236565b80601f01602080910402602001604051908101604052809291908181526020018280546106da90611236565b80156107275780601f106106fc57610100808354040283529160200191610727565b820191906000526020600020905b81548152906001019060200180831161070a57829003601f168201915b5050505050815260200160018201805480602002602001604051908101604052809291908181526020016000905b82821015610914578382906000526020600020906002020160405180604001604052908160008201805461078890611236565b80601f01602080910402602001604051908101604052809291908181526020018280546107b490611236565b80156108015780601f106107d657610100808354040283529160200191610801565b820191906000526020600020905b8154815290600101906020018083116107e457829003601f168201915b5050505050815260200160018201805480602002602001604051908101604052809291908181526020016000905b828210156108fd578382906000526020600020906002020160405180604001604052908160008201805461086290611236565b80601f016020809104026020016040519081016040528092919081815260200182805461088e90611236565b80156108db5780601f106108b0576101008083540402835291602001916108db565b820191906000526020600020905b8154815290600101906020018083116108be57829003601f168201915b505050505081526020016001820154815250508152602001906001019061082f565b505050508152505081526020019060010190610755565b50505050815250508152602001906001019061067b565b50505050905090565b60006001816001815401808255809150500390600052602060002090505060008060016000805490506109679190611296565b815481106109785761097761116c565b5b90600052602060002090600202019050818160000190805190602001906109a09291906109a5565b505050565b8280546109b190611236565b90600052602060002090601f0160209004810192826109d35760008555610a1a565b82601f106109ec57805160ff1916838001178555610a1a565b82800160010185558215610a1a579182015b82811115610a195782518255916020019190600101906109fe565b5b509050610a279190610a2b565b5090565b5b80821115610a44576000816000905550600101610a2c565b5090565b6000604051905090565b600080fd5b600080fd5b6000819050919050565b610a6f81610a5c565b8114610a7a57600080fd5b50565b600081359050610a8c81610a66565b92915050565b600080600060608486031215610aab57610aaa610a52565b5b6000610ab986828701610a7d565b9350506020610aca86828701610a7d565b9250506040610adb86828701610a7d565b9150509250925092565b600081519050919050565b600082825260208201905092915050565b60005b83811015610b1f578082015181840152602081019050610b04565b83811115610b2e576000848401525b50505050565b6000601f19601f8301169050919050565b6000610b5082610ae5565b610b5a8185610af0565b9350610b6a818560208601610b01565b610b7381610b34565b840191505092915050565b610b8781610a5c565b82525050565b60006040820190508181036000830152610ba78185610b45565b9050610bb66020830184610b7e565b9392505050565b600080fd5b600080fd5b7f4e487b7100000000000000000000000000000000000000000000000000000000600052604160045260246000fd5b610bff82610b34565b810181811067ffffffffffffffff82111715610c1e57610c1d610bc7565b5b80604052505050565b6000610c31610a48565b9050610c3d8282610bf6565b919050565b600067ffffffffffffffff821115610c5d57610c5c610bc7565b5b610c6682610b34565b9050602081019050919050565b82818337600083830152505050565b6000610c95610c9084610c42565b610c27565b905082815260208101848484011115610cb157610cb0610bc2565b5b610cbc848285610c73565b509392505050565b600082601f830112610cd957610cd8610bbd565b5b8135610ce9848260208601610c82565b91505092915050565b60008060408385031215610d0957610d08610a52565b5b6000610d1785828601610a7d565b925050602083013567ffffffffffffffff811115610d3857610d37610a57565b5b610d4485828601610cc4565b9150509250929050565b600060208284031215610d6457610d63610a52565b5b6000610d7284828501610a7d565b91505092915050565b60006020820190508181036000830152610d958184610b45565b905092915050565b600081519050919050565b600082825260208201905092915050565b6000819050602082019050919050565b600082825260208201905092915050565b6000610de582610ae5565b610def8185610dc9565b9350610dff818560208601610b01565b610e0881610b34565b840191505092915050565b600081519050919050565b600082825260208201905092915050565b6000819050602082019050919050565b600081519050919050565b600082825260208201905092915050565b6000819050602082019050919050565b610e7481610a5c565b82525050565b60006040830160008301518482036000860152610e978282610dda565b9150506020830151610eac6020860182610e6b565b508091505092915050565b6000610ec38383610e7a565b905092915050565b6000602082019050919050565b6000610ee382610e3f565b610eed8185610e4a565b935083602082028501610eff85610e5b565b8060005b85811015610f3b5784840389528151610f1c8582610eb7565b9450610f2783610ecb565b925060208a01995050600181019050610f03565b50829750879550505050505092915050565b60006040830160008301518482036000860152610f6a8282610dda565b91505060208301518482036020860152610f848282610ed8565b9150508091505092915050565b6000610f9d8383610f4d565b905092915050565b6000602082019050919050565b6000610fbd82610e13565b610fc78185610e1e565b935083602082028501610fd985610e2f565b8060005b858110156110155784840389528151610ff68582610f91565b945061100183610fa5565b925060208a01995050600181019050610fdd565b50829750879550505050505092915050565b600060408301600083015184820360008601526110448282610dda565b9150506020830151848203602086015261105e8282610fb2565b9150508091505092915050565b60006110778383611027565b905092915050565b6000602082019050919050565b600061109782610d9d565b6110a18185610da8565b9350836020820285016110b385610db9565b8060005b858110156110ef57848403895281516110d0858261106b565b94506110db8361107f565b925060208a019950506001810190506110b7565b50829750879550505050505092915050565b6000602082019050818103600083015261111b818461108c565b905092915050565b60006020828403121561113957611138610a52565b5b600082013567ffffffffffffffff81111561115757611156610a57565b5b61116384828501610cc4565b91505092915050565b7f4e487b7100000000000000000000000000000000000000000000000000000000600052603260045260246000fd5b7f496e76616c69642063616e64696461746520696e646578000000000000000000600082015250565b60006111d1601783610af0565b91506111dc8261119b565b602082019050919050565b60006020820190508181036000830152611200816111c4565b9050919050565b7f4e487b7100000000000000000000000000000000000000000000000000000000600052602260045260246000fd5b6000600282049050600182168061124e57607f821691505b60208210810361126157611260611207565b5b50919050565b7f4e487b7100000000000000000000000000000000000000000000000000000000600052601160045260246000fd5b60006112a182610a5c565b91506112ac83610a5c565b9250828210156112bf576112be611267565b5b828203905092915050565b60006112d582610a5c565b91507fffffffffffffffffffffffffffffffffffffffffffffffffffffffffffffffff820361130757611306611267565b5b60018201905091905056fea26469706673582212205c8384cb029f19eaf0486d9fa102c8782eaf4d35f74436eff833c34a29d85b1064736f6c634300080d0033",
  "immutableReferences": {},
  "source": "pragma solidity ^0.8.0;\r\n\r\n//import \"@openzeppelin/contracts/utils/Strings.sol\";\r\n\r\ncontract Voting {\r\n    \r\n    // Candidate struct\r\n    struct Candidate {\r\n        string name;\r\n        uint voteCount;\r\n    }\r\n\r\n    // Structure of election\r\n    struct Election {\r\n        string electionTitle;\r\n        Candidate[] candidates;\r\n    }\r\n\r\n    struct Group {\r\n        string groupTitle;\r\n        Election[] elections; // fixed-size array of elections\r\n        //address[] members; // Array of member addresses\r\n    }\r\n\r\n    // Array of groups\r\n    Group[] public groups;\r\n\r\n    // Constructor to initialize the candidates\r\n    constructor() {\r\n        createGroup('main');\r\n        createElection(0, '2016 dem primary');\r\n        createCandidate(0, 'Candidate 1');\r\n        createCandidate(0, 'Candidate 2');\r\n    }\r\n    // adds a new group to groups[]\r\n    function createGroup(string memory name) public { \r\n        // Expand the storage array\r\n        groups.push();\r\n        Group storage newGroup = groups[groups.length - 1];\r\n        newGroup.groupTitle = name;\r\n    }\r\n    \r\n    // adds a new election to a specified group in groups[]\r\n    function createElection(uint groupID, string memory name) public { \r\n        Election[] storage elections = groups[groupID].elections;\r\n        elections.push();\r\n        Election storage newElection = elections[elections.length-1];\r\n        newElection.electionTitle=name;\r\n    }\r\n    // adds a new candidate to the last election in a specified group\r\n    function createCandidate(uint groupID, string memory name) public {\r\n        Candidate[] storage candidates = groups[groupID].elections[groups[groupID].elections.length - 1].candidates;\r\n        candidates.push(Candidate(name, 0));\r\n    }\r\n\r\n    function getGroups() public view returns (Group[] memory) {\r\n        return groups;\r\n    }\r\n\r\n    // Function to vote for a candidate\r\n    function vote(uint groupID, uint electionIndex, uint candidateIndex) public {\r\n        // Election storage election = groups[groupID].elections[electionIndex];\r\n        // Check if candidate index is valid\r\n        require(candidateIndex >= 0 && candidateIndex < groups[groupID].elections[electionIndex].candidates.length, \"Invalid candidate index\");\r\n\r\n        // Increment the vote count for the candidate\r\n        groups[groupID].elections[electionIndex].candidates[candidateIndex].voteCount++;\r\n    }\r\n\r\n    // Function to get the name and vote count for a candidate\r\n    function getCandidate(uint groupID, uint electionIndex, uint candidateIndex) public view returns (string memory, uint) {\r\n        Election storage election = groups[groupID].elections[electionIndex];\r\n        // Check if candidate index is valid\r\n        require(candidateIndex >= 0 && candidateIndex < election.candidates.length, \"Invalid candidate index\");\r\n\r\n        // Return the name and vote count for the candidate\r\n        return (election.candidates[candidateIndex].name, election.candidates[candidateIndex].voteCount);\r\n    }\r\n\r\n}",
  "sourcePath": "C:\\Users\\kaitl\\VotingBlockGit\\contracts\\Voting.sol",
  "compiler": {
    "name": "solc",
    "version": "0.8.13+commit.abaa5c0e.Emscripten.clang"
  },
  "schemaVersion": "3.4.11",
  "updatedAt": "2023-05-09T16:06:19.765Z",
  "devdoc": {
    "kind": "dev",
    "methods": {},
    "version": 1
  },
  "userdoc": {
    "kind": "user",
    "methods": {},
    "version": 1
  }
}