{
  "contractName": "Voting",
  "abi": [
    {
      "inputs": [],
      "stateMutability": "nonpayable",
      "type": "constructor"
    },
    {
      "inputs": [],
      "name": "main_election",
      "outputs": [
        {
          "internalType": "string",
          "name": "election_title",
          "type": "string"
        }
      ],
      "stateMutability": "view",
      "type": "function",
      "constant": true
    },
    {
      "inputs": [],
      "name": "main_group",
      "outputs": [
        {
          "internalType": "string",
          "name": "group_title",
          "type": "string"
        }
      ],
      "stateMutability": "view",
      "type": "function",
      "constant": true
    },
    {
      "inputs": [
        {
          "internalType": "string[]",
          "name": "candidateNames",
          "type": "string[]"
        }
      ],
      "name": "createCandidates",
      "outputs": [],
      "stateMutability": "nonpayable",
      "type": "function"
    },
    {
      "inputs": [
        {
          "internalType": "uint256",
          "name": "candidateIndex",
          "type": "uint256"
        },
        {
          "components": [
            {
              "internalType": "string",
              "name": "election_title",
              "type": "string"
            },
            {
              "components": [
                {
                  "internalType": "string",
                  "name": "name",
                  "type": "string"
                },
                {
                  "internalType": "uint256",
                  "name": "voteCount",
                  "type": "uint256"
                }
              ],
              "internalType": "struct Voting.Candidate[]",
              "name": "candidates",
              "type": "tuple[]"
            }
          ],
          "internalType": "struct Voting.Election",
          "name": "election",
          "type": "tuple"
        }
      ],
      "name": "vote",
      "outputs": [],
      "stateMutability": "nonpayable",
      "type": "function"
    },
    {
      "inputs": [
        {
          "internalType": "uint256",
          "name": "candidateIndex",
          "type": "uint256"
        },
        {
          "components": [
            {
              "internalType": "string",
              "name": "name",
              "type": "string"
            },
            {
              "internalType": "uint256",
              "name": "voteCount",
              "type": "uint256"
            }
          ],
          "internalType": "struct Voting.Candidate[]",
          "name": "candidates",
          "type": "tuple[]"
        }
      ],
      "name": "getCandidate",
      "outputs": [
        {
          "internalType": "string",
          "name": "",
          "type": "string"
        },
        {
          "internalType": "uint256",
          "name": "",
          "type": "uint256"
        }
      ],
      "stateMutability": "view",
      "type": "function",
      "constant": true
    },
    {
      "inputs": [],
      "name": "createElection",
      "outputs": [],
      "stateMutability": "nonpayable",
      "type": "function"
    }
  ],
  "bytecode": "0x60806040523480156200001157600080fd5b506000600267ffffffffffffffff811115620000325762000031620005bb565b5b6040519080825280602002602001820160405280156200006757816020015b6060815260200190600190039081620000515790505b5090506040518060400160405280600b81526020017f43616e646964617465203100000000000000000000000000000000000000000081525081600081518110620000b757620000b6620005ea565b5b60200260200101819052506040518060400160405280600b81526020017f43616e6469646174652032000000000000000000000000000000000000000000815250816001815181106200010f576200010e620005ea565b5b60200260200101819052506040518060400160405280600d81526020017f7465737420656c656374696f6e00000000000000000000000000000000000000815250600360000190805190602001906200016a9291906200036f565b506200017c81620002bc60201b60201c565b6040518060400160405280600a81526020017f746573742067726f757000000000000000000000000000000000000000000000815250600080019080519060200190620001cb9291906200036f565b506000600101600390806001815401808255809150506001900390600052602060002090600202016000909190919091506000820181600001908054620002129062000648565b6200021f92919062000400565b5060018201816001019080546200023892919062000498565b505050600060020173882e9dcbe8e2ef7f521934f9e6ce21a9c9f9b4fe9080600181540180825580915050600190039060005260206000200160009091909190916101000a81548173ffffffffffffffffffffffffffffffffffffffff021916908373ffffffffffffffffffffffffffffffffffffffff1602179055505062000703565b60005b81518110156200036b5760036001016040518060400160405280848481518110620002ef57620002ee620005ea565b5b60200260200101518152602001600081525090806001815401808255809150506001900390600052602060002090600202016000909190919091506000820151816000019080519060200190620003489291906200036f565b5060208201518160010155505080806200036290620006b6565b915050620002bf565b5050565b8280546200037d9062000648565b90600052602060002090601f016020900481019282620003a15760008555620003ed565b82601f10620003bc57805160ff1916838001178555620003ed565b82800160010185558215620003ed579182015b82811115620003ec578251825591602001919060010190620003cf565b5b509050620003fc919062000523565b5090565b8280546200040e9062000648565b90600052602060002090601f01602090048101928262000432576000855562000485565b82601f1062000445578054855562000485565b828001600101855582156200048557600052602060002091601f016020900482015b828111156200048457825482559160010191906001019062000467565b5b50905062000494919062000523565b5090565b828054828255906000526020600020906002028101928215620005105760005260206000209160020282015b828111156200050f5782826000820181600001908054620004e59062000648565b620004f292919062000400565b5060018201548160010155505091600201919060020190620004c4565b5b5090506200051f919062000542565b5090565b5b808211156200053e57600081600090555060010162000524565b5090565b5b808211156200057157600080820160006200055f919062000575565b60018201600090555060020162000543565b5090565b508054620005839062000648565b6000825580601f10620005975750620005b8565b601f016020900490600052602060002090810190620005b7919062000523565b5b50565b7f4e487b7100000000000000000000000000000000000000000000000000000000600052604160045260246000fd5b7f4e487b7100000000000000000000000000000000000000000000000000000000600052603260045260246000fd5b7f4e487b7100000000000000000000000000000000000000000000000000000000600052602260045260246000fd5b600060028204905060018216806200066157607f821691505b60208210810362000677576200067662000619565b5b50919050565b7f4e487b7100000000000000000000000000000000000000000000000000000000600052601160045260246000fd5b6000819050919050565b6000620006c382620006ac565b91507fffffffffffffffffffffffffffffffffffffffffffffffffffffffffffffffff8203620006f857620006f76200067d565b5b600182019050919050565b610c9c80620007136000396000f3fe608060405234801561001057600080fd5b50600436106100625760003560e01c806315cd93a61461006757806324c2286c146100855780635c46d0b21461008f5780639ef55740146100ab578063e06cb4a8146100c9578063f9ee975a146100e5575b600080fd5b61006f610116565b60405161007c919061054e565b60405180910390f35b61008d6101aa565b005b6100a960048036038101906100a491906108d3565b6101ac565b005b6100b3610238565b6040516100c0919061054e565b60405180910390f35b6100e360048036038101906100de9190610a10565b6102cc565b005b6100ff60048036038101906100fa9190610a59565b610376565b60405161010d929190610ac4565b60405180910390f35b600080600001805461012790610b23565b80601f016020809104026020016040519081016040528092919081815260200182805461015390610b23565b80156101a05780601f10610175576101008083540402835291602001916101a0565b820191906000526020600020905b81548152906001019060200180831161018357829003601f168201915b5050505050905081565b565b600082101580156101c1575080602001515182105b610200576040517f08c379a00000000000000000000000000000000000000000000000000000000081526004016101f790610ba0565b60405180910390fd5b8060200151828151811061021757610216610bc0565b5b6020026020010151602001805180919061023090610c1e565b815250505050565b600380600001805461024990610b23565b80601f016020809104026020016040519081016040528092919081815260200182805461027590610b23565b80156102c25780601f10610297576101008083540402835291602001916102c2565b820191906000526020600020905b8154815290600101906020018083116102a557829003601f168201915b5050505050905081565b60005b815181101561037257600360010160405180604001604052808484815181106102fb576102fa610bc0565b5b60200260200101518152602001600081525090806001815401808255809150506001900390600052602060002090600202016000909190919091506000820151816000019080519060200190610352929190610412565b50602082015181600101555050808061036a90610c1e565b9150506102cf565b5050565b6060600080841015801561038a5750825184105b6103c9576040517f08c379a00000000000000000000000000000000000000000000000000000000081526004016103c090610ba0565b60405180910390fd5b8284815181106103dc576103db610bc0565b5b6020026020010151600001518385815181106103fb576103fa610bc0565b5b602002602001015160200151915091509250929050565b82805461041e90610b23565b90600052602060002090601f0160209004810192826104405760008555610487565b82601f1061045957805160ff1916838001178555610487565b82800160010185558215610487579182015b8281111561048657825182559160200191906001019061046b565b5b5090506104949190610498565b5090565b5b808211156104b1576000816000905550600101610499565b5090565b600081519050919050565b600082825260208201905092915050565b60005b838110156104ef5780820151818401526020810190506104d4565b838111156104fe576000848401525b50505050565b6000601f19601f8301169050919050565b6000610520826104b5565b61052a81856104c0565b935061053a8185602086016104d1565b61054381610504565b840191505092915050565b600060208201905081810360008301526105688184610515565b905092915050565b6000604051905090565b600080fd5b600080fd5b6000819050919050565b61059781610584565b81146105a257600080fd5b50565b6000813590506105b48161058e565b92915050565b600080fd5b7f4e487b7100000000000000000000000000000000000000000000000000000000600052604160045260246000fd5b6105f782610504565b810181811067ffffffffffffffff82111715610616576106156105bf565b5b80604052505050565b6000610629610570565b905061063582826105ee565b919050565b600080fd5b600080fd5b600080fd5b600067ffffffffffffffff821115610664576106636105bf565b5b61066d82610504565b9050602081019050919050565b82818337600083830152505050565b600061069c61069784610649565b61061f565b9050828152602081018484840111156106b8576106b7610644565b5b6106c384828561067a565b509392505050565b600082601f8301126106e0576106df61063f565b5b81356106f0848260208601610689565b91505092915050565b600067ffffffffffffffff821115610714576107136105bf565b5b602082029050602081019050919050565b600080fd5b6000604082840312156107405761073f6105ba565b5b61074a604061061f565b9050600082013567ffffffffffffffff81111561076a5761076961063a565b5b610776848285016106cb565b600083015250602061078a848285016105a5565b60208301525092915050565b60006107a96107a4846106f9565b61061f565b905080838252602082019050602084028301858111156107cc576107cb610725565b5b835b8181101561081357803567ffffffffffffffff8111156107f1576107f061063f565b5b8086016107fe898261072a565b855260208501945050506020810190506107ce565b5050509392505050565b600082601f8301126108325761083161063f565b5b8135610842848260208601610796565b91505092915050565b600060408284031215610861576108606105ba565b5b61086b604061061f565b9050600082013567ffffffffffffffff81111561088b5761088a61063a565b5b610897848285016106cb565b600083015250602082013567ffffffffffffffff8111156108bb576108ba61063a565b5b6108c78482850161081d565b60208301525092915050565b600080604083850312156108ea576108e961057a565b5b60006108f8858286016105a5565b925050602083013567ffffffffffffffff8111156109195761091861057f565b5b6109258582860161084b565b9150509250929050565b600067ffffffffffffffff82111561094a576109496105bf565b5b602082029050602081019050919050565b600061096e6109698461092f565b61061f565b9050808382526020820190506020840283018581111561099157610990610725565b5b835b818110156109d857803567ffffffffffffffff8111156109b6576109b561063f565b5b8086016109c389826106cb565b85526020850194505050602081019050610993565b5050509392505050565b600082601f8301126109f7576109f661063f565b5b8135610a0784826020860161095b565b91505092915050565b600060208284031215610a2657610a2561057a565b5b600082013567ffffffffffffffff811115610a4457610a4361057f565b5b610a50848285016109e2565b91505092915050565b60008060408385031215610a7057610a6f61057a565b5b6000610a7e858286016105a5565b925050602083013567ffffffffffffffff811115610a9f57610a9e61057f565b5b610aab8582860161081d565b9150509250929050565b610abe81610584565b82525050565b60006040820190508181036000830152610ade8185610515565b9050610aed6020830184610ab5565b9392505050565b7f4e487b7100000000000000000000000000000000000000000000000000000000600052602260045260246000fd5b60006002820490506001821680610b3b57607f821691505b602082108103610b4e57610b4d610af4565b5b50919050565b7f496e76616c69642063616e64696461746520696e646578000000000000000000600082015250565b6000610b8a6017836104c0565b9150610b9582610b54565b602082019050919050565b60006020820190508181036000830152610bb981610b7d565b9050919050565b7f4e487b7100000000000000000000000000000000000000000000000000000000600052603260045260246000fd5b7f4e487b7100000000000000000000000000000000000000000000000000000000600052601160045260246000fd5b6000610c2982610584565b91507fffffffffffffffffffffffffffffffffffffffffffffffffffffffffffffffff8203610c5b57610c5a610bef565b5b60018201905091905056fea264697066735822122059ef634cd5ff6c11909486a907b9d469804da4f38069f7a45ed57e9d7a3c750064736f6c634300080d0033",
  "immutableReferences": {},
  "source": "pragma solidity ^0.8.0;\r\nimport \"@openzeppelin/contracts/utils/Strings.sol\";\r\n\r\n\r\n/*This code was taken from chat-gpt and then altered.\r\n*/\r\ncontract Voting {\r\n    \r\n// Candidate struct\r\nstruct Candidate {\r\n    string name;\r\n    uint voteCount;\r\n}\r\n\r\n// structure of election\r\nstruct Election {\r\n    string election_title;\r\n    Candidate[] candidates;\r\n}\r\n\r\nstruct Group {\r\n    string group_title;\r\n    Election[] elections;\r\n    address[] members; // array of member addresses\r\n}\r\n\r\n// Array of candidates\r\nGroup public main_group;\r\nElection public main_election;\r\n\r\n// Constructor to initialize the candidates\r\nconstructor() {\r\n    string[] memory _candidateNames = new string[](2);\r\n    _candidateNames[0] = \"Candidate 1\";\r\n    _candidateNames[1] = \"Candidate 2\";\r\n    main_election.election_title=\"test election\";\r\n    createCandidates(_candidateNames);\r\n    main_group.group_title=\"test group\";\r\n    main_group.elections.push(main_election);\r\n    main_group.members.push(0x882e9dCbe8e2EF7f521934F9E6CE21A9c9f9b4FE);\r\n}\r\n\r\nfunction createCandidates(string[] memory candidateNames) public {\r\n    for(uint i = 0; i < candidateNames.length; i++) {\r\n        main_election.candidates.push(Candidate(candidateNames[i], 0));\r\n    }\r\n}\r\n\r\n\r\n// Function to vote for a candidate\r\nfunction vote(uint candidateIndex, Election memory election) public {\r\n    // Check if candidate index is valid\r\n    require(candidateIndex >= 0 && candidateIndex < election.candidates.length, \"Invalid candidate index\");\r\n\r\n    // Increment the vote count for the candidate\r\n    election.candidates[candidateIndex].voteCount++;\r\n}\r\n\r\n//Function from chatGPT\r\n// function getCount(Candidate[] memory candidates) public view returns (string memory) {\r\n//     string memory result;\r\n\r\n//     for (uint i = 0; i < candidates.length; i++) {\r\n//         // Concatenate the name and vote count of the candidate to the result string\r\n//         result = string(abi.encodePacked(result, candidates[i].name, \": \", Strings.toString(candidates[i].voteCount)));\r\n\r\n//         // Add a comma and space if this is not the last candidate in the list\r\n//         if (i != candidates.length - 1) {\r\n//             result = string(abi.encodePacked(result, \", \"));\r\n//         }\r\n//     }\r\n\r\n//     return result;\r\n// }\r\n\r\n    // Function to get the name and vote count for a candidate\r\nfunction getCandidate(uint candidateIndex, Candidate[] memory candidates) public view returns (string memory, uint) {\r\n    // Check if candidate index is valid\r\n    require(candidateIndex >= 0 && candidateIndex < candidates.length, \"Invalid candidate index\");\r\n\r\n    // Return the name and vote count for the candidate\r\n    return (candidates[candidateIndex].name, candidates[candidateIndex].voteCount);\r\n}\r\n\r\nfunction createElection() public{\r\n    \r\n}\r\n}\r\n",
  "sourcePath": "c:\\Users\\BryceG23\\CS\\CS5\\VotingBlock\\contracts\\Voting.sol",
  "compiler": {
    "name": "solc",
    "version": "0.8.13+commit.abaa5c0e.Emscripten.clang"
  },
  "schemaVersion": "3.4.11",
  "updatedAt": "2023-05-03T16:19:35.495Z",
  "networkType": "ethereum",
  "devdoc": {
    "kind": "dev",
    "methods": {},
    "version": 1
  },
  "userdoc": {
    "kind": "user",
    "methods": {},
    "version": 1
  }
}