{
  "contractName": "Voting",
  "abi": [
    {
      "inputs": [],
      "stateMutability": "nonpayable",
      "type": "constructor"
    },
    {
      "inputs": [
        {
          "internalType": "uint256",
          "name": "",
          "type": "uint256"
        }
      ],
      "name": "groups",
      "outputs": [
        {
          "internalType": "string",
          "name": "groupTitle",
          "type": "string"
        },
        {
          "internalType": "address",
          "name": "adminAddress",
          "type": "address"
        }
      ],
      "stateMutability": "view",
      "type": "function",
      "constant": true
    },
    {
      "inputs": [
        {
          "internalType": "string",
          "name": "name",
          "type": "string"
        }
      ],
      "name": "createGroup",
      "outputs": [],
      "stateMutability": "nonpayable",
      "type": "function"
    },
    {
      "inputs": [
        {
          "internalType": "uint256",
          "name": "groupID",
          "type": "uint256"
        },
        {
          "internalType": "string",
          "name": "name",
          "type": "string"
        },
        {
          "internalType": "string[]",
          "name": "options",
          "type": "string[]"
        }
      ],
      "name": "createPoll",
      "outputs": [],
      "stateMutability": "nonpayable",
      "type": "function"
    },
    {
      "inputs": [],
      "name": "getGroups",
      "outputs": [
        {
          "components": [
            {
              "internalType": "string",
              "name": "groupTitle",
              "type": "string"
            },
            {
              "components": [
                {
                  "internalType": "string",
                  "name": "pollTitle",
                  "type": "string"
                },
                {
                  "components": [
                    {
                      "internalType": "string",
                      "name": "name",
                      "type": "string"
                    },
                    {
                      "internalType": "uint256",
                      "name": "voteCount",
                      "type": "uint256"
                    }
                  ],
                  "internalType": "struct Voting.Option[]",
                  "name": "options",
                  "type": "tuple[]"
                },
                {
                  "internalType": "address[]",
                  "name": "voted",
                  "type": "address[]"
                }
              ],
              "internalType": "struct Voting.Poll[]",
              "name": "polls",
              "type": "tuple[]"
            },
            {
              "components": [
                {
                  "internalType": "string",
                  "name": "pollTitle",
                  "type": "string"
                },
                {
                  "components": [
                    {
                      "internalType": "string",
                      "name": "name",
                      "type": "string"
                    },
                    {
                      "internalType": "uint256",
                      "name": "voteCount",
                      "type": "uint256"
                    }
                  ],
                  "internalType": "struct Voting.Option[]",
                  "name": "options",
                  "type": "tuple[]"
                },
                {
                  "internalType": "address[]",
                  "name": "voted",
                  "type": "address[]"
                }
              ],
              "internalType": "struct Voting.Poll[]",
              "name": "completed",
              "type": "tuple[]"
            },
            {
              "internalType": "address[]",
              "name": "members",
              "type": "address[]"
            },
            {
              "internalType": "address",
              "name": "adminAddress",
              "type": "address"
            }
          ],
          "internalType": "struct Voting.Group[]",
          "name": "",
          "type": "tuple[]"
        }
      ],
      "stateMutability": "view",
      "type": "function",
      "constant": true
    },
    {
      "inputs": [
        {
          "internalType": "uint256",
          "name": "groupID",
          "type": "uint256"
        }
      ],
      "name": "getPolls",
      "outputs": [
        {
          "components": [
            {
              "internalType": "string",
              "name": "pollTitle",
              "type": "string"
            },
            {
              "components": [
                {
                  "internalType": "string",
                  "name": "name",
                  "type": "string"
                },
                {
                  "internalType": "uint256",
                  "name": "voteCount",
                  "type": "uint256"
                }
              ],
              "internalType": "struct Voting.Option[]",
              "name": "options",
              "type": "tuple[]"
            },
            {
              "internalType": "address[]",
              "name": "voted",
              "type": "address[]"
            }
          ],
          "internalType": "struct Voting.Poll[]",
          "name": "",
          "type": "tuple[]"
        }
      ],
      "stateMutability": "view",
      "type": "function",
      "constant": true
    },
    {
      "inputs": [
        {
          "internalType": "uint256",
          "name": "groupID",
          "type": "uint256"
        },
        {
          "internalType": "uint256",
          "name": "pollIndex",
          "type": "uint256"
        },
        {
          "internalType": "uint256",
          "name": "optionIndex",
          "type": "uint256"
        }
      ],
      "name": "vote",
      "outputs": [],
      "stateMutability": "nonpayable",
      "type": "function"
    },
    {
      "inputs": [
        {
          "internalType": "uint256",
          "name": "groupID",
          "type": "uint256"
        },
        {
          "internalType": "uint256",
          "name": "pollIndex",
          "type": "uint256"
        },
        {
          "internalType": "uint256",
          "name": "optionIndex",
          "type": "uint256"
        }
      ],
      "name": "getCandidate",
      "outputs": [
        {
          "internalType": "string",
          "name": "",
          "type": "string"
        },
        {
          "internalType": "uint256",
          "name": "",
          "type": "uint256"
        }
      ],
      "stateMutability": "view",
      "type": "function",
      "constant": true
    },
    {
      "inputs": [
        {
          "internalType": "uint256",
          "name": "groupID",
          "type": "uint256"
        },
        {
          "internalType": "address",
          "name": "member_address",
          "type": "address"
        }
      ],
      "name": "addMember",
      "outputs": [],
      "stateMutability": "nonpayable",
      "type": "function"
    },
    {
      "inputs": [
        {
          "internalType": "uint256",
          "name": "groupID",
          "type": "uint256"
        },
        {
          "internalType": "address",
          "name": "member_address",
          "type": "address"
        }
      ],
      "name": "removeMember",
      "outputs": [],
      "stateMutability": "nonpayable",
      "type": "function"
    },
    {
      "inputs": [
        {
          "internalType": "uint256",
          "name": "groupID",
          "type": "uint256"
        },
        {
          "internalType": "uint256",
          "name": "pollIndex",
          "type": "uint256"
        }
      ],
      "name": "endPoll",
      "outputs": [],
      "stateMutability": "nonpayable",
      "type": "function"
    }
  ],
  "bytecode": "0x60806040523480156200001157600080fd5b50620000586040518060400160405280600481526020017f6d61696e00000000000000000000000000000000000000000000000000000000815250620001b060201b60201c565b6000600267ffffffffffffffff81111562000078576200007762000578565b5b604051908082528060200260200182016040528015620000ad57816020015b6060815260200190600190039081620000975790505b5090506040518060400160405280600f81526020017f53656e61746f722053616e64657273000000000000000000000000000000000081525081600081518110620000fd57620000fc620005a7565b5b60200260200101819052506040518060400160405280601181526020017f53656372657461727920436c696e746f6e00000000000000000000000000000081525081600181518110620001555762000154620005a7565b5b6020026020010181905250620001a960006040518060400160405280601081526020017f323031362064656d207072696d6172790000000000000000000000000000000081525083620002f460201b60201c565b50620006fb565b6000600181600181540180825580915050039060005260206000209050506000806001600080549050620001e591906200060f565b81548110620001f957620001f8620005a7565b5b906000526020600020906005020190508181600001908051906020019062000223929190620004c8565b50338160040160006101000a81548173ffffffffffffffffffffffffffffffffffffffff021916908373ffffffffffffffffffffffffffffffffffffffff160217905550806003018160040160009054906101000a900473ffffffffffffffffffffffffffffffffffffffff169080600181540180825580915050600190039060005260206000200160009091909190916101000a81548173ffffffffffffffffffffffffffffffffffffffff021916908373ffffffffffffffffffffffffffffffffffffffff1602179055505050565b600083815481106200030b576200030a620005a7565b5b906000526020600020906005020160040160009054906101000a900473ffffffffffffffffffffffffffffffffffffffff1673ffffffffffffffffffffffffffffffffffffffff163373ffffffffffffffffffffffffffffffffffffffff16146200037557600080fd5b60008084815481106200038d576200038c620005a7565b5b90600052602060002090600502016001019050806001816001815401808255809150500390600052602060002090505060008160018380549050620003d391906200060f565b81548110620003e757620003e6620005a7565b5b906000526020600020906003020190508381600001908051906020019062000411929190620004c8565b5060005b8351811015620004c057816001016040518060400160405280868481518110620004445762000443620005a7565b5b602002602001015181526020016000815250908060018154018082558091505060019003906000526020600020906002020160009091909190915060008201518160000190805190602001906200049d929190620004c8565b506020820151816001015550508080620004b7906200064a565b91505062000415565b505050505050565b828054620004d690620006c6565b90600052602060002090601f016020900481019282620004fa576000855562000546565b82601f106200051557805160ff191683800117855562000546565b8280016001018555821562000546579182015b828111156200054557825182559160200191906001019062000528565b5b50905062000555919062000559565b5090565b5b80821115620005745760008160009055506001016200055a565b5090565b7f4e487b7100000000000000000000000000000000000000000000000000000000600052604160045260246000fd5b7f4e487b7100000000000000000000000000000000000000000000000000000000600052603260045260246000fd5b6000819050919050565b7f4e487b7100000000000000000000000000000000000000000000000000000000600052601160045260246000fd5b60006200061c82620005d6565b91506200062983620005d6565b9250828210156200063f576200063e620005e0565b5b828203905092915050565b60006200065782620005d6565b91507fffffffffffffffffffffffffffffffffffffffffffffffffffffffffffffffff82036200068c576200068b620005e0565b5b600182019050919050565b7f4e487b7100000000000000000000000000000000000000000000000000000000600052602260045260246000fd5b60006002820490506001821680620006df57607f821691505b602082108103620006f557620006f462000697565b5b50919050565b612ccd806200070b6000396000f3fe608060405234801561001057600080fd5b506004361061009e5760003560e01c806396324bd41161006657806396324bd414610144578063bbd8c7db14610175578063c72b517614610191578063ce2dee05146101af578063dc2ddcae146101df5761009e565b80630c9ef9a2146100a3578063588d49f4146100bf5780636be7658b146100f057806374d0a6761461010c5780638a6655d614610128575b600080fd5b6100bd60048036038101906100b89190611f53565b6101fb565b005b6100d960048036038101906100d49190611fde565b6103b8565b6040516100e79291906120c8565b60405180910390f35b61010a60048036038101906101059190612156565b610542565b005b61012660048036038101906101219190612156565b61082f565b005b610142600480360381019061013d9190611fde565b6109d3565b005b61015e60048036038101906101599190612196565b610c8d565b60405161016c9291906121d2565b60405180910390f35b61018f600480360381019061018a9190612202565b610d69565b005b610199610f80565b6040516101a691906126c5565b60405180910390f35b6101c960048036038101906101c49190612196565b611649565b6040516101d6919061276d565b60405180910390f35b6101f960048036038101906101f4919061278f565b6118e8565b005b6000838154811061020f5761020e6127d8565b5b906000526020600020906005020160040160009054906101000a900473ffffffffffffffffffffffffffffffffffffffff1673ffffffffffffffffffffffffffffffffffffffff163373ffffffffffffffffffffffffffffffffffffffff161461027857600080fd5b600080848154811061028d5761028c6127d8565b5b906000526020600020906005020160010190508060018160018154018082558091505003906000526020600020905050600081600183805490506102d19190612836565b815481106102e2576102e16127d8565b5b906000526020600020906003020190508381600001908051906020019061030a929190611a25565b5060005b83518110156103b057816001016040518060400160405280868481518110610339576103386127d8565b5b60200260200101518152602001600081525090806001815401808255809150506001900390600052602060002090600202016000909190919091506000820151816000019080519060200190610390929190611a25565b5060208201518160010155505080806103a89061286a565b91505061030e565b505050505050565b6060600080600086815481106103d1576103d06127d8565b5b906000526020600020906005020160010185815481106103f4576103f36127d8565b5b906000526020600020906003020190506000841015801561041b5750806001018054905084105b61045a576040517f08c379a0000000000000000000000000000000000000000000000000000000008152600401610451906128fe565b60405180910390fd5b8060010184815481106104705761046f6127d8565b5b9060005260206000209060020201600001816001018581548110610497576104966127d8565b5b9060005260206000209060020201600101548180546104b59061294d565b80601f01602080910402602001604051908101604052809291908181526020018280546104e19061294d565b801561052e5780601f106105035761010080835404028352916020019161052e565b820191906000526020600020905b81548152906001019060200180831161051157829003601f168201915b505050505091509250925050935093915050565b6000821015610586576040517f08c379a000000000000000000000000000000000000000000000000000000000815260040161057d906129ca565b60405180910390fd5b600073ffffffffffffffffffffffffffffffffffffffff168173ffffffffffffffffffffffffffffffffffffffff16036105f5576040517f08c379a00000000000000000000000000000000000000000000000000000000081526004016105ec90612a36565b60405180910390fd5b600080838154811061060a576106096127d8565b5b9060005260206000209060050201905060005b81600301805490508110156107e0578273ffffffffffffffffffffffffffffffffffffffff16826003018281548110610659576106586127d8565b5b9060005260206000200160009054906101000a900473ffffffffffffffffffffffffffffffffffffffff1673ffffffffffffffffffffffffffffffffffffffff16036107cd5760008190505b600183600301805490506106b99190612836565b81101561077e57826003016001826106d19190612a56565b815481106106e2576106e16127d8565b5b9060005260206000200160009054906101000a900473ffffffffffffffffffffffffffffffffffffffff16836003018281548110610723576107226127d8565b5b9060005260206000200160006101000a81548173ffffffffffffffffffffffffffffffffffffffff021916908373ffffffffffffffffffffffffffffffffffffffff16021790555080806107769061286a565b9150506106a5565b508160030180548061079357610792612aac565b5b6001900381819060005260206000200160006101000a81549073ffffffffffffffffffffffffffffffffffffffff021916905590556107e0565b80806107d89061286a565b91505061061d565b81600301805490508103610829576040517f08c379a000000000000000000000000000000000000000000000000000000000815260040161082090612b99565b60405180910390fd5b50505050565b6000821015610873576040517f08c379a000000000000000000000000000000000000000000000000000000000815260040161086a906129ca565b60405180910390fd5b600073ffffffffffffffffffffffffffffffffffffffff168173ffffffffffffffffffffffffffffffffffffffff16036108e2576040517f08c379a00000000000000000000000000000000000000000000000000000000081526004016108d990612a36565b60405180910390fd5b60008083815481106108f7576108f66127d8565b5b9060005260206000209060050201905060008160030180549050905081600301839080600181540180825580915050600190039060005260206000200160009091909190916101000a81548173ffffffffffffffffffffffffffffffffffffffff021916908373ffffffffffffffffffffffffffffffffffffffff1602179055508160030180549050818061098b9061286a565b9250146109cd576040517f08c379a00000000000000000000000000000000000000000000000000000000081526004016109c490612c77565b60405180910390fd5b50505050565b60008084815481106109e8576109e76127d8565b5b90600052602060002090600502016001018381548110610a0b57610a0a6127d8565b5b906000526020600020906003020190506000808581548110610a3057610a2f6127d8565b5b9060005260206000209060050201600301905060005b8180549050811015610ad6573373ffffffffffffffffffffffffffffffffffffffff16828281548110610a7c57610a7b6127d8565b5b9060005260206000200160009054906101000a900473ffffffffffffffffffffffffffffffffffffffff1673ffffffffffffffffffffffffffffffffffffffff160315610ad6578080610ace9061286a565b915050610a46565b8180549050811015610c8557600090505b8260020180549050811015610b7d573373ffffffffffffffffffffffffffffffffffffffff16836002018281548110610b2357610b226127d8565b5b9060005260206000200160009054906101000a900473ffffffffffffffffffffffffffffffffffffffff1673ffffffffffffffffffffffffffffffffffffffff160315610b7d578080610b759061286a565b915050610ae7565b82600201805490508103610c845760008410158015610ba25750826001018054905084105b610be1576040517f08c379a0000000000000000000000000000000000000000000000000000000008152600401610bd8906128fe565b60405180910390fd5b826001018481548110610bf757610bf66127d8565b5b90600052602060002090600202016001016000815480929190610c199061286a565b919050555082600201339080600181540180825580915050600190039060005260206000200160009091909190916101000a81548173ffffffffffffffffffffffffffffffffffffffff021916908373ffffffffffffffffffffffffffffffffffffffff1602179055505b5b505050505050565b60008181548110610c9d57600080fd5b9060005260206000209060050201600091509050806000018054610cc09061294d565b80601f0160208091040260200160405190810160405280929190818152602001828054610cec9061294d565b8015610d395780601f10610d0e57610100808354040283529160200191610d39565b820191906000526020600020905b815481529060010190602001808311610d1c57829003601f168201915b5050505050908060040160009054906101000a900473ffffffffffffffffffffffffffffffffffffffff16905082565b6000808381548110610d7e57610d7d6127d8565b5b9060005260206000209060050201600101905060008381548110610da557610da46127d8565b5b9060005260206000209060050201600201818381548110610dc957610dc86127d8565b5b906000526020600020906003020190806001815401808255809150506001900390600052602060002090600302016000909190919091506000820181600001908054610e149061294d565b610e1f929190611aab565b506001820181600101908054610e36929190611b38565b506002820181600201908054610e4d929190611bba565b50505060008290505b60018280549050610e679190612836565b811015610f205781600182610e7c9190612a56565b81548110610e8d57610e8c6127d8565b5b9060005260206000209060030201828281548110610eae57610ead6127d8565b5b90600052602060002090600302016000820181600001908054610ed09061294d565b610edb929190611aab565b506001820181600101908054610ef2929190611b38565b506002820181600201908054610f09929190611bba565b509050508080610f189061286a565b915050610e56565b5080805480610f3257610f31612aac565b5b600190038181906000526020600020906003020160008082016000610f579190611c0c565b600182016000610f679190611c4c565b600282016000610f779190611c70565b50509055505050565b60606000805480602002602001604051908101604052809291908181526020016000905b8282101561164057838290600052602060002090600502016040518060a0016040529081600082018054610fd79061294d565b80601f01602080910402602001604051908101604052809291908181526020018280546110039061294d565b80156110505780601f1061102557610100808354040283529160200191611050565b820191906000526020600020905b81548152906001019060200180831161103357829003601f168201915b5050505050815260200160018201805480602002602001604051908101604052809291908181526020016000905b828210156112cb57838290600052602060002090600302016040518060600160405290816000820180546110b19061294d565b80601f01602080910402602001604051908101604052809291908181526020018280546110dd9061294d565b801561112a5780601f106110ff5761010080835404028352916020019161112a565b820191906000526020600020905b81548152906001019060200180831161110d57829003601f168201915b5050505050815260200160018201805480602002602001604051908101604052809291908181526020016000905b82821015611226578382906000526020600020906002020160405180604001604052908160008201805461118b9061294d565b80601f01602080910402602001604051908101604052809291908181526020018280546111b79061294d565b80156112045780601f106111d957610100808354040283529160200191611204565b820191906000526020600020905b8154815290600101906020018083116111e757829003601f168201915b5050505050815260200160018201548152505081526020019060010190611158565b505050508152602001600282018054806020026020016040519081016040528092919081815260200182805480156112b357602002820191906000526020600020905b8160009054906101000a900473ffffffffffffffffffffffffffffffffffffffff1673ffffffffffffffffffffffffffffffffffffffff1681526020019060010190808311611269575b5050505050815250508152602001906001019061107e565b50505050815260200160028201805480602002602001604051908101604052809291908181526020016000905b82821015611545578382906000526020600020906003020160405180606001604052908160008201805461132b9061294d565b80601f01602080910402602001604051908101604052809291908181526020018280546113579061294d565b80156113a45780601f10611379576101008083540402835291602001916113a4565b820191906000526020600020905b81548152906001019060200180831161138757829003601f168201915b5050505050815260200160018201805480602002602001604051908101604052809291908181526020016000905b828210156114a057838290600052602060002090600202016040518060400160405290816000820180546114059061294d565b80601f01602080910402602001604051908101604052809291908181526020018280546114319061294d565b801561147e5780601f106114535761010080835404028352916020019161147e565b820191906000526020600020905b81548152906001019060200180831161146157829003601f168201915b50505050508152602001600182015481525050815260200190600101906113d2565b5050505081526020016002820180548060200260200160405190810160405280929190818152602001828054801561152d57602002820191906000526020600020905b8160009054906101000a900473ffffffffffffffffffffffffffffffffffffffff1673ffffffffffffffffffffffffffffffffffffffff16815260200190600101908083116114e3575b505050505081525050815260200190600101906112f8565b505050508152602001600382018054806020026020016040519081016040528092919081815260200182805480156115d257602002820191906000526020600020905b8160009054906101000a900473ffffffffffffffffffffffffffffffffffffffff1673ffffffffffffffffffffffffffffffffffffffff1681526020019060010190808311611588575b505050505081526020016004820160009054906101000a900473ffffffffffffffffffffffffffffffffffffffff1673ffffffffffffffffffffffffffffffffffffffff1673ffffffffffffffffffffffffffffffffffffffff168152505081526020019060010190610fa4565b50505050905090565b60606000828154811061165f5761165e6127d8565b5b9060005260206000209060050201600101805480602002602001604051908101604052809291908181526020016000905b828210156118dd57838290600052602060002090600302016040518060600160405290816000820180546116c39061294d565b80601f01602080910402602001604051908101604052809291908181526020018280546116ef9061294d565b801561173c5780601f106117115761010080835404028352916020019161173c565b820191906000526020600020905b81548152906001019060200180831161171f57829003601f168201915b5050505050815260200160018201805480602002602001604051908101604052809291908181526020016000905b82821015611838578382906000526020600020906002020160405180604001604052908160008201805461179d9061294d565b80601f01602080910402602001604051908101604052809291908181526020018280546117c99061294d565b80156118165780601f106117eb57610100808354040283529160200191611816565b820191906000526020600020905b8154815290600101906020018083116117f957829003601f168201915b505050505081526020016001820154815250508152602001906001019061176a565b505050508152602001600282018054806020026020016040519081016040528092919081815260200182805480156118c557602002820191906000526020600020905b8160009054906101000a900473ffffffffffffffffffffffffffffffffffffffff1673ffffffffffffffffffffffffffffffffffffffff168152602001906001019080831161187b575b50505050508152505081526020019060010190611690565b505050509050919050565b600060018160018154018082558091505003906000526020600020905050600080600160008054905061191b9190612836565b8154811061192c5761192b6127d8565b5b9060005260206000209060050201905081816000019080519060200190611954929190611a25565b50338160040160006101000a81548173ffffffffffffffffffffffffffffffffffffffff021916908373ffffffffffffffffffffffffffffffffffffffff160217905550806003018160040160009054906101000a900473ffffffffffffffffffffffffffffffffffffffff169080600181540180825580915050600190039060005260206000200160009091909190916101000a81548173ffffffffffffffffffffffffffffffffffffffff021916908373ffffffffffffffffffffffffffffffffffffffff1602179055505050565b828054611a319061294d565b90600052602060002090601f016020900481019282611a535760008555611a9a565b82601f10611a6c57805160ff1916838001178555611a9a565b82800160010185558215611a9a579182015b82811115611a99578251825591602001919060010190611a7e565b5b509050611aa79190611c91565b5090565b828054611ab79061294d565b90600052602060002090601f016020900481019282611ad95760008555611b27565b82601f10611aea5780548555611b27565b82800160010185558215611b2757600052602060002091601f016020900482015b82811115611b26578254825591600101919060010190611b0b565b5b509050611b349190611c91565b5090565b828054828255906000526020600020906002028101928215611ba95760005260206000209160020282015b82811115611ba85782826000820181600001908054611b819061294d565b611b8c929190611aab565b5060018201548160010155505091600201919060020190611b63565b5b509050611bb69190611cae565b5090565b828054828255906000526020600020908101928215611bfb5760005260206000209182015b82811115611bfa578254825591600101919060010190611bdf565b5b509050611c089190611c91565b5090565b508054611c189061294d565b6000825580601f10611c2a5750611c49565b601f016020900490600052602060002090810190611c489190611c91565b5b50565b5080546000825560020290600052602060002090810190611c6d9190611cae565b50565b5080546000825590600052602060002090810190611c8e9190611c91565b50565b5b80821115611caa576000816000905550600101611c92565b5090565b5b80821115611cd95760008082016000611cc89190611c0c565b600182016000905550600201611caf565b5090565b6000604051905090565b600080fd5b600080fd5b6000819050919050565b611d0481611cf1565b8114611d0f57600080fd5b50565b600081359050611d2181611cfb565b92915050565b600080fd5b600080fd5b6000601f19601f8301169050919050565b7f4e487b7100000000000000000000000000000000000000000000000000000000600052604160045260246000fd5b611d7a82611d31565b810181811067ffffffffffffffff82111715611d9957611d98611d42565b5b80604052505050565b6000611dac611cdd565b9050611db88282611d71565b919050565b600067ffffffffffffffff821115611dd857611dd7611d42565b5b611de182611d31565b9050602081019050919050565b82818337600083830152505050565b6000611e10611e0b84611dbd565b611da2565b905082815260208101848484011115611e2c57611e2b611d2c565b5b611e37848285611dee565b509392505050565b600082601f830112611e5457611e53611d27565b5b8135611e64848260208601611dfd565b91505092915050565b600067ffffffffffffffff821115611e8857611e87611d42565b5b602082029050602081019050919050565b600080fd5b6000611eb1611eac84611e6d565b611da2565b90508083825260208201905060208402830185811115611ed457611ed3611e99565b5b835b81811015611f1b57803567ffffffffffffffff811115611ef957611ef8611d27565b5b808601611f068982611e3f565b85526020850194505050602081019050611ed6565b5050509392505050565b600082601f830112611f3a57611f39611d27565b5b8135611f4a848260208601611e9e565b91505092915050565b600080600060608486031215611f6c57611f6b611ce7565b5b6000611f7a86828701611d12565b935050602084013567ffffffffffffffff811115611f9b57611f9a611cec565b5b611fa786828701611e3f565b925050604084013567ffffffffffffffff811115611fc857611fc7611cec565b5b611fd486828701611f25565b9150509250925092565b600080600060608486031215611ff757611ff6611ce7565b5b600061200586828701611d12565b935050602061201686828701611d12565b925050604061202786828701611d12565b9150509250925092565b600081519050919050565b600082825260208201905092915050565b60005b8381101561206b578082015181840152602081019050612050565b8381111561207a576000848401525b50505050565b600061208b82612031565b612095818561203c565b93506120a581856020860161204d565b6120ae81611d31565b840191505092915050565b6120c281611cf1565b82525050565b600060408201905081810360008301526120e28185612080565b90506120f160208301846120b9565b9392505050565b600073ffffffffffffffffffffffffffffffffffffffff82169050919050565b6000612123826120f8565b9050919050565b61213381612118565b811461213e57600080fd5b50565b6000813590506121508161212a565b92915050565b6000806040838503121561216d5761216c611ce7565b5b600061217b85828601611d12565b925050602061218c85828601612141565b9150509250929050565b6000602082840312156121ac576121ab611ce7565b5b60006121ba84828501611d12565b91505092915050565b6121cc81612118565b82525050565b600060408201905081810360008301526121ec8185612080565b90506121fb60208301846121c3565b9392505050565b6000806040838503121561221957612218611ce7565b5b600061222785828601611d12565b925050602061223885828601611d12565b9150509250929050565b600081519050919050565b600082825260208201905092915050565b6000819050602082019050919050565b600082825260208201905092915050565b600061228a82612031565b612294818561226e565b93506122a481856020860161204d565b6122ad81611d31565b840191505092915050565b600081519050919050565b600082825260208201905092915050565b6000819050602082019050919050565b600081519050919050565b600082825260208201905092915050565b6000819050602082019050919050565b61231981611cf1565b82525050565b6000604083016000830151848203600086015261233c828261227f565b91505060208301516123516020860182612310565b508091505092915050565b6000612368838361231f565b905092915050565b6000602082019050919050565b6000612388826122e4565b61239281856122ef565b9350836020820285016123a485612300565b8060005b858110156123e057848403895281516123c1858261235c565b94506123cc83612370565b925060208a019950506001810190506123a8565b50829750879550505050505092915050565b600081519050919050565b600082825260208201905092915050565b6000819050602082019050919050565b61242781612118565b82525050565b6000612439838361241e565b60208301905092915050565b6000602082019050919050565b600061245d826123f2565b61246781856123fd565b93506124728361240e565b8060005b838110156124a357815161248a888261242d565b975061249583612445565b925050600181019050612476565b5085935050505092915050565b600060608301600083015184820360008601526124cd828261227f565b915050602083015184820360208601526124e7828261237d565b915050604083015184820360408601526125018282612452565b9150508091505092915050565b600061251a83836124b0565b905092915050565b6000602082019050919050565b600061253a826122b8565b61254481856122c3565b935083602082028501612556856122d4565b8060005b858110156125925784840389528151612573858261250e565b945061257e83612522565b925060208a0199505060018101905061255a565b50829750879550505050505092915050565b600060a08301600083015184820360008601526125c1828261227f565b915050602083015184820360208601526125db828261252f565b915050604083015184820360408601526125f5828261252f565b9150506060830151848203606086015261260f8282612452565b9150506080830151612624608086018261241e565b508091505092915050565b600061263b83836125a4565b905092915050565b6000602082019050919050565b600061265b82612242565b612665818561224d565b9350836020820285016126778561225e565b8060005b858110156126b35784840389528151612694858261262f565b945061269f83612643565b925060208a0199505060018101905061267b565b50829750879550505050505092915050565b600060208201905081810360008301526126df8184612650565b905092915050565b600082825260208201905092915050565b6000612703826122b8565b61270d81856126e7565b93508360208202850161271f856122d4565b8060005b8581101561275b578484038952815161273c858261250e565b945061274783612522565b925060208a01995050600181019050612723565b50829750879550505050505092915050565b6000602082019050818103600083015261278781846126f8565b905092915050565b6000602082840312156127a5576127a4611ce7565b5b600082013567ffffffffffffffff8111156127c3576127c2611cec565b5b6127cf84828501611e3f565b91505092915050565b7f4e487b7100000000000000000000000000000000000000000000000000000000600052603260045260246000fd5b7f4e487b7100000000000000000000000000000000000000000000000000000000600052601160045260246000fd5b600061284182611cf1565b915061284c83611cf1565b92508282101561285f5761285e612807565b5b828203905092915050565b600061287582611cf1565b91507fffffffffffffffffffffffffffffffffffffffffffffffffffffffffffffffff82036128a7576128a6612807565b5b600182019050919050565b7f496e76616c6964206f7074696f6e20696e646578000000000000000000000000600082015250565b60006128e860148361203c565b91506128f3826128b2565b602082019050919050565b60006020820190508181036000830152612917816128db565b9050919050565b7f4e487b7100000000000000000000000000000000000000000000000000000000600052602260045260246000fd5b6000600282049050600182168061296557607f821691505b6020821081036129785761297761291e565b5b50919050565b7f496e76616c69642067726f757049440000000000000000000000000000000000600082015250565b60006129b4600f8361203c565b91506129bf8261297e565b602082019050919050565b600060208201905081810360008301526129e3816129a7565b9050919050565b7f496e76616c6964206d656d6265725f6164647265737300000000000000000000600082015250565b6000612a2060168361203c565b9150612a2b826129ea565b602082019050919050565b60006020820190508181036000830152612a4f81612a13565b9050919050565b6000612a6182611cf1565b9150612a6c83611cf1565b9250827fffffffffffffffffffffffffffffffffffffffffffffffffffffffffffffffff03821115612aa157612aa0612807565b5b828201905092915050565b7f4e487b7100000000000000000000000000000000000000000000000000000000600052603160045260246000fd5b7f4572726f72202d2d2072656d6f76654d656d626572282920646964206e6f742060008201527f73756363657366756c6c792072756e2e206d656d6265725f616464726573732060208201527f776173206e6f742072656d6f7665642066726f6d2067726f7570206d656d626560408201527f7273206172726179000000000000000000000000000000000000000000000000606082015250565b6000612b8360688361203c565b9150612b8e82612adb565b608082019050919050565b60006020820190508181036000830152612bb281612b76565b9050919050565b7f4572726f72202d2d204164644d656d626572282920646964206e6f742073756360008201527f63657366756c6c792072756e2e206d656d6265725f616464726573732077617360208201527f206e6f7420616464656420746f2067726f7570206d656d62657273206172726160408201527f7900000000000000000000000000000000000000000000000000000000000000606082015250565b6000612c6160618361203c565b9150612c6c82612bb9565b608082019050919050565b60006020820190508181036000830152612c9081612c54565b905091905056fea2646970667358221220e2457d3358bd6fce6af0835155d03b7ba0c3f5fab731ef72ffea8cb2ae52eca364736f6c634300080d0033",
  "immutableReferences": {},
  "source": "pragma solidity ^0.8.0;\r\n\r\n//import \"@openzeppelin/contracts/utils/Strings.sol\";\r\n\r\ncontract Voting {\r\n    \r\n    // Option struct\r\n    struct Option {\r\n        string name;\r\n        uint voteCount;\r\n    }\r\n\r\n    // Structure of poll\r\n    struct Poll {\r\n        string pollTitle;\r\n        Option[] options;\r\n        address[] voted;  // members addresses for those who have already voted\r\n    }\r\n\r\n    struct Group {\r\n        string groupTitle;\r\n        Poll[] polls; // active polls\r\n        Poll[] completed; // completed polls\r\n        address[] members; // Array of member addresses\r\n        address adminAddress;\r\n    }\r\n\r\n    // Array of groups\r\n    Group[] public groups;\r\n\r\n    // Constructor to initialize the options\r\n    constructor() {\r\n        createGroup('main');\r\n        string[] memory options = new string[](2);\r\n        options[0] = \"Senator Sanders\";\r\n        options[1] = \"Secretary Clinton\";        \r\n        createPoll(0, '2016 dem primary', options);\r\n    }\r\n\r\n    // adds a new group to groups[]\r\n    function createGroup(string memory name) public { \r\n        // Expand the storage array\r\n        groups.push();\r\n        Group storage newGroup = groups[groups.length - 1];\r\n        newGroup.groupTitle = name;\r\n        newGroup.adminAddress=msg.sender;// set admin to the address which calls the function\r\n        newGroup.members.push(newGroup.adminAddress);\r\n    }\r\n\r\n   function createPoll(uint groupID, string memory name, string[] memory options) public { \r\n        require(msg.sender == groups[groupID].adminAddress);\r\n        Poll[] storage polls = groups[groupID].polls;\r\n        polls.push();\r\n        Poll storage newPoll = polls[polls.length-1];\r\n        newPoll.pollTitle=name;\r\n        for(uint i = 0; i < options.length; i++) {\r\n            newPoll.options.push(Option(options[i], 0));\r\n        }\r\n    } \r\n\r\n    // adds a new option to the last poll in a specified group\r\n    // function createOptions(uint groupID, string[] memory names) public {\r\n    //     Option[] storage options = groups[groupID].polls[groups[groupID].polls.length - 1].options;\r\n    //     for(uint i = 0; i < names.length; i++) {\r\n    //         options.push(Option(names[i], 0));\r\n    //     }\r\n    // }\r\n\r\n    function getGroups() public view returns (Group[] memory) {\r\n        return groups;\r\n    }\r\n\r\n    function getPolls(uint groupID) public view returns(Poll[] memory) {\r\n        return groups[groupID].polls;\r\n    }\r\n\r\n    // Function to vote for an option\r\n    function vote(uint groupID, uint pollIndex, uint optionIndex) public {\r\n        Poll storage poll = groups[groupID].polls[pollIndex];\r\n        address[] storage members = groups[groupID].members;\r\n        uint i = 0;\r\n        for(; i < members.length; i++) { // checks if user is a member of the group\r\n            if(members[i]==msg.sender) { \r\n                break;\r\n            }\r\n        }\r\n        if(i < members.length) {\r\n            i = 0;\r\n            for(; i < poll.voted.length; i++) { // checks if user has already voted\r\n                if(poll.voted[i]==msg.sender) { \r\n                    break;\r\n                }\r\n            }\r\n            if(i==poll.voted.length) {\r\n                // Check if option index is valid\r\n                require(optionIndex >= 0 && optionIndex < poll.options.length, \"Invalid option index\");\r\n                // Increment the vote count for the option\r\n                poll.options[optionIndex].voteCount++;\r\n                poll.voted.push(msg.sender);\r\n            }\r\n        }\r\n        \r\n    }\r\n\r\n    // Function to get the name and vote count for a option\r\n    function getCandidate(uint groupID, uint pollIndex, uint optionIndex) public view returns (string memory, uint) {\r\n        Poll storage poll = groups[groupID].polls[pollIndex];\r\n        // Check if option index is valid\r\n        require(optionIndex >= 0 && optionIndex < poll.options.length, \"Invalid option index\");\r\n\r\n        // Return the name and vote count for the option\r\n        return (poll.options[optionIndex].name, poll.options[optionIndex].voteCount);\r\n    }\r\n\r\n    function addMember(uint groupID, address member_address) public{\r\n        require(groupID >= 0, \"Invalid groupID\");\r\n        require(member_address != address(0),\"Invalid member_address\");\r\n\r\n        Group storage m_group = groups[groupID];\r\n        uint init_length = m_group.members.length; // initial length of group members\r\n\r\n        m_group.members.push(member_address);\r\n\r\n        if(init_length++ != m_group.members.length){\r\n            revert(\"Error -- AddMember() did not succesfully run. member_address was not added to group members array\");\r\n        }\r\n    }\r\n\r\n    function removeMember(uint groupID, address member_address) public {\r\n        require(groupID >= 0, \"Invalid groupID\");\r\n        require(member_address != address(0),\"Invalid member_address\");\r\n        Group storage m_group = groups[groupID];\r\n        uint i = 0;\r\n        for (; i < m_group.members.length; i++) {\r\n            if(m_group.members[i] == member_address){ // this address is the one to remove\r\n                for(uint j = i; j < m_group.members.length-1; j++) {\r\n                    m_group.members[j]=m_group.members[j+1];\r\n                }\r\n                m_group.members.pop();\r\n                break;\r\n            }\r\n        }\r\n\r\n        if(i == m_group.members.length){\r\n            revert(\"Error -- removeMember() did not succesfully run. member_address was not removed from group members array\");\r\n        }\r\n    }\r\n\r\n    function endPoll (uint groupID, uint pollIndex) public {\r\n        Poll[] storage polls = groups[groupID].polls;\r\n        groups[groupID].completed.push(polls[pollIndex]);\r\n        for(uint i = pollIndex; i < polls.length-1; i++) {\r\n            polls[i]=polls[i+1];\r\n        }\r\n        polls.pop();\r\n    }\r\n}",
  "sourcePath": "c:\\Users\\BryceG23\\CS\\CS5\\VotingBlock\\contracts\\Voting.sol",
  "compiler": {
    "name": "solc",
    "version": "0.8.13+commit.abaa5c0e.Emscripten.clang"
  },
  "schemaVersion": "3.4.11",
  "updatedAt": "2023-05-30T17:02:43.416Z",
  "networkType": "ethereum",
  "devdoc": {
    "kind": "dev",
    "methods": {},
    "version": 1
  },
  "userdoc": {
    "kind": "user",
    "methods": {},
    "version": 1
  }
}