{
  "contractName": "Voting",
  "abi": [
    {
      "inputs": [],
      "stateMutability": "nonpayable",
      "type": "constructor"
    },
    {
      "inputs": [
        {
          "internalType": "uint256",
          "name": "",
          "type": "uint256"
        }
      ],
      "name": "groups",
      "outputs": [
        {
          "internalType": "string",
          "name": "groupTitle",
          "type": "string"
        },
        {
          "internalType": "address",
          "name": "adminAddress",
          "type": "address"
        }
      ],
      "stateMutability": "view",
      "type": "function",
      "constant": true
    },
    {
      "inputs": [
        {
          "internalType": "string",
          "name": "name",
          "type": "string"
        }
      ],
      "name": "createGroup",
      "outputs": [],
      "stateMutability": "nonpayable",
      "type": "function"
    },
    {
      "inputs": [
        {
          "internalType": "uint256",
          "name": "groupID",
          "type": "uint256"
        },
        {
          "internalType": "string",
          "name": "name",
          "type": "string"
        }
      ],
      "name": "createElection",
      "outputs": [],
      "stateMutability": "nonpayable",
      "type": "function"
    },
    {
      "inputs": [
        {
          "internalType": "uint256",
          "name": "groupID",
          "type": "uint256"
        },
        {
          "internalType": "string",
          "name": "name",
          "type": "string"
        }
      ],
      "name": "createCandidate",
      "outputs": [],
      "stateMutability": "nonpayable",
      "type": "function"
    },
    {
      "inputs": [],
      "name": "getGroups",
      "outputs": [
        {
          "components": [
            {
              "internalType": "string",
              "name": "groupTitle",
              "type": "string"
            },
            {
              "components": [
                {
                  "internalType": "string",
                  "name": "electionTitle",
                  "type": "string"
                },
                {
                  "components": [
                    {
                      "internalType": "string",
                      "name": "name",
                      "type": "string"
                    },
                    {
                      "internalType": "uint256",
                      "name": "voteCount",
                      "type": "uint256"
                    }
                  ],
                  "internalType": "struct Voting.Candidate[]",
                  "name": "candidates",
                  "type": "tuple[]"
                }
              ],
              "internalType": "struct Voting.Election[]",
              "name": "elections",
              "type": "tuple[]"
            },
            {
              "internalType": "address[]",
              "name": "members",
              "type": "address[]"
            },
            {
              "internalType": "address",
              "name": "adminAddress",
              "type": "address"
            }
          ],
          "internalType": "struct Voting.Group[]",
          "name": "",
          "type": "tuple[]"
        }
      ],
      "stateMutability": "view",
      "type": "function",
      "constant": true
    },
    {
      "inputs": [
        {
          "internalType": "uint256",
          "name": "groupID",
          "type": "uint256"
        },
        {
          "internalType": "uint256",
          "name": "electionIndex",
          "type": "uint256"
        },
        {
          "internalType": "uint256",
          "name": "candidateIndex",
          "type": "uint256"
        }
      ],
      "name": "vote",
      "outputs": [],
      "stateMutability": "nonpayable",
      "type": "function"
    },
    {
      "inputs": [
        {
          "internalType": "uint256",
          "name": "groupID",
          "type": "uint256"
        },
        {
          "internalType": "uint256",
          "name": "electionIndex",
          "type": "uint256"
        },
        {
          "internalType": "uint256",
          "name": "candidateIndex",
          "type": "uint256"
        }
      ],
      "name": "getCandidate",
      "outputs": [
        {
          "internalType": "string",
          "name": "",
          "type": "string"
        },
        {
          "internalType": "uint256",
          "name": "",
          "type": "uint256"
        }
      ],
      "stateMutability": "view",
      "type": "function",
      "constant": true
    },
    {
      "inputs": [
        {
          "internalType": "uint256",
          "name": "groupID",
          "type": "uint256"
        },
        {
          "internalType": "address",
          "name": "member_address",
          "type": "address"
        }
      ],
      "name": "addMember",
      "outputs": [
        {
          "internalType": "bool",
          "name": "",
          "type": "bool"
        }
      ],
      "stateMutability": "nonpayable",
      "type": "function"
    },
    {
      "inputs": [
        {
          "internalType": "uint256",
          "name": "groupID",
          "type": "uint256"
        },
        {
          "internalType": "address",
          "name": "member_address",
          "type": "address"
        }
      ],
      "name": "removeMember",
      "outputs": [
        {
          "internalType": "bool",
          "name": "",
          "type": "bool"
        }
      ],
      "stateMutability": "nonpayable",
      "type": "function"
    }
  ],
  "bytecode": "0x60806040523480156200001157600080fd5b50620000586040518060400160405280600481526020017f6d61696e000000000000000000000000000000000000000000000000000000008152506200013660201b60201c565b620000a060006040518060400160405280601081526020017f323031362064656d207072696d617279000000000000000000000000000000008152506200027a60201b60201c565b620000e860006040518060400160405280600b81526020017f43616e64696461746520310000000000000000000000000000000000000000008152506200039e60201b60201c565b6200013060006040518060400160405280600b81526020017f43616e64696461746520320000000000000000000000000000000000000000008152506200039e60201b60201c565b6200064f565b60006001816001815401808255809150500390600052602060002090505060008060016000805490506200016b919062000581565b815481106200017f576200017e620005bc565b5b9060005260206000209060040201905081816000019080519060200190620001a992919062000498565b50338160030160006101000a81548173ffffffffffffffffffffffffffffffffffffffff021916908373ffffffffffffffffffffffffffffffffffffffff160217905550806002018160030160009054906101000a900473ffffffffffffffffffffffffffffffffffffffff169080600181540180825580915050600190039060005260206000200160009091909190916101000a81548173ffffffffffffffffffffffffffffffffffffffff021916908373ffffffffffffffffffffffffffffffffffffffff1602179055505050565b60008281548110620002915762000290620005bc565b5b906000526020600020906004020160030160009054906101000a900473ffffffffffffffffffffffffffffffffffffffff1673ffffffffffffffffffffffffffffffffffffffff163373ffffffffffffffffffffffffffffffffffffffff1614620002fb57600080fd5b6000808381548110620003135762000312620005bc565b5b9060005260206000209060040201600101905080600181600181540180825580915050039060005260206000209050506000816001838054905062000359919062000581565b815481106200036d576200036c620005bc565b5b90600052602060002090600202019050828160000190805190602001906200039792919062000498565b5050505050565b6000808381548110620003b657620003b5620005bc565b5b9060005260206000209060040201600101600160008581548110620003e057620003df620005bc565b5b90600052602060002090600402016001018054905062000401919062000581565b81548110620004155762000414620005bc565b5b906000526020600020906002020160010190508060405180604001604052808481526020016000815250908060018154018082558091505060019003906000526020600020906002020160009091909190915060008201518160000190805190602001906200048692919062000498565b50602082015181600101555050505050565b828054620004a6906200061a565b90600052602060002090601f016020900481019282620004ca576000855562000516565b82601f10620004e557805160ff191683800117855562000516565b8280016001018555821562000516579182015b8281111562000515578251825591602001919060010190620004f8565b5b50905062000525919062000529565b5090565b5b80821115620005445760008160009055506001016200052a565b5090565b6000819050919050565b7f4e487b7100000000000000000000000000000000000000000000000000000000600052601160045260246000fd5b60006200058e8262000548565b91506200059b8362000548565b925082821015620005b157620005b062000552565b5b828203905092915050565b7f4e487b7100000000000000000000000000000000000000000000000000000000600052603260045260246000fd5b7f4e487b7100000000000000000000000000000000000000000000000000000000600052602260045260246000fd5b600060028204905060018216806200063357607f821691505b602082108103620006495762000648620005eb565b5b50919050565b611e44806200065f6000396000f3fe608060405234801561001057600080fd5b50600436106100935760003560e01c80637da09d94116100665780637da09d94146101455780638a6655d61461016157806396324bd41461017d578063c72b5176146101ae578063dc2ddcae146101cc57610093565b8063588d49f4146100985780636be7658b146100c957806373ddf411146100f957806374d0a67614610115575b600080fd5b6100b260048036038101906100ad919061111e565b6101e8565b6040516100c0929190611219565b60405180910390f35b6100e360048036038101906100de91906112a7565b610372565b6040516100f09190611302565b60405180910390f35b610113600480360381019061010e9190611452565b61057f565b005b61012f600480360381019061012a91906112a7565b61066c565b60405161013c9190611302565b60405180910390f35b61015f600480360381019061015a9190611452565b610821565b005b61017b6004803603810190610176919061111e565b610937565b005b610197600480360381019061019291906114ae565b610a57565b6040516101a59291906114ea565b60405180910390f35b6101b6610b33565b6040516101c39190611969565b60405180910390f35b6101e660048036038101906101e1919061198b565b610ef4565b005b606060008060008681548110610201576102006119d4565b5b90600052602060002090600402016001018581548110610224576102236119d4565b5b906000526020600020906002020190506000841015801561024b5750806001018054905084105b61028a576040517f08c379a000000000000000000000000000000000000000000000000000000000815260040161028190611a4f565b60405180910390fd5b8060010184815481106102a05761029f6119d4565b5b90600052602060002090600202016000018160010185815481106102c7576102c66119d4565b5b9060005260206000209060020201600101548180546102e590611a9e565b80601f016020809104026020016040519081016040528092919081815260200182805461031190611a9e565b801561035e5780601f106103335761010080835404028352916020019161035e565b820191906000526020600020905b81548152906001019060200180831161034157829003601f168201915b505050505091509250925050935093915050565b6000808310156103b7576040517f08c379a00000000000000000000000000000000000000000000000000000000081526004016103ae90611b1b565b60405180910390fd5b600073ffffffffffffffffffffffffffffffffffffffff168273ffffffffffffffffffffffffffffffffffffffff1603610426576040517f08c379a000000000000000000000000000000000000000000000000000000000815260040161041d90611b87565b60405180910390fd5b600080848154811061043b5761043a6119d4565b5b906000526020600020906004020190506000805b826002018054905081101561052c578473ffffffffffffffffffffffffffffffffffffffff1683600201828154811061048b5761048a6119d4565b5b9060005260206000200160009054906101000a900473ffffffffffffffffffffffffffffffffffffffff1673ffffffffffffffffffffffffffffffffffffffff1603610519578260020181815481106104e7576104e66119d4565b5b9060005260206000200160006101000a81549073ffffffffffffffffffffffffffffffffffffffff0219169055600191505b808061052490611bd6565b91505061044f565b506000151581151503610574576040517f08c379a000000000000000000000000000000000000000000000000000000000815260040161056b90611cdc565b60405180910390fd5b809250505092915050565b6000808381548110610594576105936119d4565b5b90600052602060002090600402016001016001600085815481106105bb576105ba6119d4565b5b9060005260206000209060040201600101805490506105da9190611cfc565b815481106105eb576105ea6119d4565b5b9060005260206000209060020201600101905080604051806040016040528084815260200160008152509080600181540180825580915050600190039060005260206000209060020201600090919091909150600082015181600001908051906020019061065a929190611031565b50602082015181600101555050505050565b6000808310156106b1576040517f08c379a00000000000000000000000000000000000000000000000000000000081526004016106a890611b1b565b60405180910390fd5b600073ffffffffffffffffffffffffffffffffffffffff168273ffffffffffffffffffffffffffffffffffffffff1603610720576040517f08c379a000000000000000000000000000000000000000000000000000000000815260040161071790611b87565b60405180910390fd5b6000808481548110610735576107346119d4565b5b906000526020600020906004020190506000808260020180549050905082600201859080600181540180825580915050600190039060005260206000200160009091909190916101000a81548173ffffffffffffffffffffffffffffffffffffffff021916908373ffffffffffffffffffffffffffffffffffffffff160217905550826002018054905081806107ca90611bd6565b9250036107e0576001915081935050505061081b565b6040517f08c379a000000000000000000000000000000000000000000000000000000000815260040161081290611dee565b60405180910390fd5b92915050565b60008281548110610835576108346119d4565b5b906000526020600020906004020160030160009054906101000a900473ffffffffffffffffffffffffffffffffffffffff1673ffffffffffffffffffffffffffffffffffffffff163373ffffffffffffffffffffffffffffffffffffffff161461089e57600080fd5b60008083815481106108b3576108b26119d4565b5b906000526020600020906004020160010190508060018160018154018082558091505003906000526020600020905050600081600183805490506108f79190611cfc565b81548110610908576109076119d4565b5b9060005260206000209060020201905082816000019080519060200190610930929190611031565b5050505050565b60008110158015610992575060008381548110610957576109566119d4565b5b9060005260206000209060040201600101828154811061097a576109796119d4565b5b90600052602060002090600202016001018054905081105b6109d1576040517f08c379a00000000000000000000000000000000000000000000000000000000081526004016109c890611a4f565b60405180910390fd5b600083815481106109e5576109e46119d4565b5b90600052602060002090600402016001018281548110610a0857610a076119d4565b5b90600052602060002090600202016001018181548110610a2b57610a2a6119d4565b5b90600052602060002090600202016001016000815480929190610a4d90611bd6565b9190505550505050565b60008181548110610a6757600080fd5b9060005260206000209060040201600091509050806000018054610a8a90611a9e565b80601f0160208091040260200160405190810160405280929190818152602001828054610ab690611a9e565b8015610b035780601f10610ad857610100808354040283529160200191610b03565b820191906000526020600020905b815481529060010190602001808311610ae657829003601f168201915b5050505050908060030160009054906101000a900473ffffffffffffffffffffffffffffffffffffffff16905082565b60606000805480602002602001604051908101604052809291908181526020016000905b82821015610eeb5783829060005260206000209060040201604051806080016040529081600082018054610b8a90611a9e565b80601f0160208091040260200160405190810160405280929190818152602001828054610bb690611a9e565b8015610c035780601f10610bd857610100808354040283529160200191610c03565b820191906000526020600020905b815481529060010190602001808311610be657829003601f168201915b5050505050815260200160018201805480602002602001604051908101604052809291908181526020016000905b82821015610df05783829060005260206000209060020201604051806040016040529081600082018054610c6490611a9e565b80601f0160208091040260200160405190810160405280929190818152602001828054610c9090611a9e565b8015610cdd5780601f10610cb257610100808354040283529160200191610cdd565b820191906000526020600020905b815481529060010190602001808311610cc057829003601f168201915b5050505050815260200160018201805480602002602001604051908101604052809291908181526020016000905b82821015610dd95783829060005260206000209060020201604051806040016040529081600082018054610d3e90611a9e565b80601f0160208091040260200160405190810160405280929190818152602001828054610d6a90611a9e565b8015610db75780601f10610d8c57610100808354040283529160200191610db7565b820191906000526020600020905b815481529060010190602001808311610d9a57829003601f168201915b5050505050815260200160018201548152505081526020019060010190610d0b565b505050508152505081526020019060010190610c31565b50505050815260200160028201805480602002602001604051908101604052809291908181526020018280548015610e7d57602002820191906000526020600020905b8160009054906101000a900473ffffffffffffffffffffffffffffffffffffffff1673ffffffffffffffffffffffffffffffffffffffff1681526020019060010190808311610e33575b505050505081526020016003820160009054906101000a900473ffffffffffffffffffffffffffffffffffffffff1673ffffffffffffffffffffffffffffffffffffffff1673ffffffffffffffffffffffffffffffffffffffff168152505081526020019060010190610b57565b50505050905090565b6000600181600181540180825580915050039060005260206000209050506000806001600080549050610f279190611cfc565b81548110610f3857610f376119d4565b5b9060005260206000209060040201905081816000019080519060200190610f60929190611031565b50338160030160006101000a81548173ffffffffffffffffffffffffffffffffffffffff021916908373ffffffffffffffffffffffffffffffffffffffff160217905550806002018160030160009054906101000a900473ffffffffffffffffffffffffffffffffffffffff169080600181540180825580915050600190039060005260206000200160009091909190916101000a81548173ffffffffffffffffffffffffffffffffffffffff021916908373ffffffffffffffffffffffffffffffffffffffff1602179055505050565b82805461103d90611a9e565b90600052602060002090601f01602090048101928261105f57600085556110a6565b82601f1061107857805160ff19168380011785556110a6565b828001600101855582156110a6579182015b828111156110a557825182559160200191906001019061108a565b5b5090506110b391906110b7565b5090565b5b808211156110d05760008160009055506001016110b8565b5090565b6000604051905090565b600080fd5b600080fd5b6000819050919050565b6110fb816110e8565b811461110657600080fd5b50565b600081359050611118816110f2565b92915050565b600080600060608486031215611137576111366110de565b5b600061114586828701611109565b935050602061115686828701611109565b925050604061116786828701611109565b9150509250925092565b600081519050919050565b600082825260208201905092915050565b60005b838110156111ab578082015181840152602081019050611190565b838111156111ba576000848401525b50505050565b6000601f19601f8301169050919050565b60006111dc82611171565b6111e6818561117c565b93506111f681856020860161118d565b6111ff816111c0565b840191505092915050565b611213816110e8565b82525050565b6000604082019050818103600083015261123381856111d1565b9050611242602083018461120a565b9392505050565b600073ffffffffffffffffffffffffffffffffffffffff82169050919050565b600061127482611249565b9050919050565b61128481611269565b811461128f57600080fd5b50565b6000813590506112a18161127b565b92915050565b600080604083850312156112be576112bd6110de565b5b60006112cc85828601611109565b92505060206112dd85828601611292565b9150509250929050565b60008115159050919050565b6112fc816112e7565b82525050565b600060208201905061131760008301846112f3565b92915050565b600080fd5b600080fd5b7f4e487b7100000000000000000000000000000000000000000000000000000000600052604160045260246000fd5b61135f826111c0565b810181811067ffffffffffffffff8211171561137e5761137d611327565b5b80604052505050565b60006113916110d4565b905061139d8282611356565b919050565b600067ffffffffffffffff8211156113bd576113bc611327565b5b6113c6826111c0565b9050602081019050919050565b82818337600083830152505050565b60006113f56113f0846113a2565b611387565b90508281526020810184848401111561141157611410611322565b5b61141c8482856113d3565b509392505050565b600082601f8301126114395761143861131d565b5b81356114498482602086016113e2565b91505092915050565b60008060408385031215611469576114686110de565b5b600061147785828601611109565b925050602083013567ffffffffffffffff811115611498576114976110e3565b5b6114a485828601611424565b9150509250929050565b6000602082840312156114c4576114c36110de565b5b60006114d284828501611109565b91505092915050565b6114e481611269565b82525050565b6000604082019050818103600083015261150481856111d1565b905061151360208301846114db565b9392505050565b600081519050919050565b600082825260208201905092915050565b6000819050602082019050919050565b600082825260208201905092915050565b600061156282611171565b61156c8185611546565b935061157c81856020860161118d565b611585816111c0565b840191505092915050565b600081519050919050565b600082825260208201905092915050565b6000819050602082019050919050565b600081519050919050565b600082825260208201905092915050565b6000819050602082019050919050565b6115f1816110e8565b82525050565b600060408301600083015184820360008601526116148282611557565b915050602083015161162960208601826115e8565b508091505092915050565b600061164083836115f7565b905092915050565b6000602082019050919050565b6000611660826115bc565b61166a81856115c7565b93508360208202850161167c856115d8565b8060005b858110156116b857848403895281516116998582611634565b94506116a483611648565b925060208a01995050600181019050611680565b50829750879550505050505092915050565b600060408301600083015184820360008601526116e78282611557565b915050602083015184820360208601526117018282611655565b9150508091505092915050565b600061171a83836116ca565b905092915050565b6000602082019050919050565b600061173a82611590565b611744818561159b565b935083602082028501611756856115ac565b8060005b858110156117925784840389528151611773858261170e565b945061177e83611722565b925060208a0199505060018101905061175a565b50829750879550505050505092915050565b600081519050919050565b600082825260208201905092915050565b6000819050602082019050919050565b6117d981611269565b82525050565b60006117eb83836117d0565b60208301905092915050565b6000602082019050919050565b600061180f826117a4565b61181981856117af565b9350611824836117c0565b8060005b8381101561185557815161183c88826117df565b9750611847836117f7565b925050600181019050611828565b5085935050505092915050565b6000608083016000830151848203600086015261187f8282611557565b91505060208301518482036020860152611899828261172f565b915050604083015184820360408601526118b38282611804565b91505060608301516118c860608601826117d0565b508091505092915050565b60006118df8383611862565b905092915050565b6000602082019050919050565b60006118ff8261151a565b6119098185611525565b93508360208202850161191b85611536565b8060005b85811015611957578484038952815161193885826118d3565b9450611943836118e7565b925060208a0199505060018101905061191f565b50829750879550505050505092915050565b6000602082019050818103600083015261198381846118f4565b905092915050565b6000602082840312156119a1576119a06110de565b5b600082013567ffffffffffffffff8111156119bf576119be6110e3565b5b6119cb84828501611424565b91505092915050565b7f4e487b7100000000000000000000000000000000000000000000000000000000600052603260045260246000fd5b7f496e76616c69642063616e64696461746520696e646578000000000000000000600082015250565b6000611a3960178361117c565b9150611a4482611a03565b602082019050919050565b60006020820190508181036000830152611a6881611a2c565b9050919050565b7f4e487b7100000000000000000000000000000000000000000000000000000000600052602260045260246000fd5b60006002820490506001821680611ab657607f821691505b602082108103611ac957611ac8611a6f565b5b50919050565b7f496e76616c69642067726f757049440000000000000000000000000000000000600082015250565b6000611b05600f8361117c565b9150611b1082611acf565b602082019050919050565b60006020820190508181036000830152611b3481611af8565b9050919050565b7f496e76616c6964206d656d6265725f6164647265737300000000000000000000600082015250565b6000611b7160168361117c565b9150611b7c82611b3b565b602082019050919050565b60006020820190508181036000830152611ba081611b64565b9050919050565b7f4e487b7100000000000000000000000000000000000000000000000000000000600052601160045260246000fd5b6000611be1826110e8565b91507fffffffffffffffffffffffffffffffffffffffffffffffffffffffffffffffff8203611c1357611c12611ba7565b5b600182019050919050565b7f4572726f72202d2d2072656d6f76654d656d626572282920646964206e6f742060008201527f73756363657366756c6c792072756e2e206d656d6265725f616464726573732060208201527f776173206e6f742072656d6f7665642066726f6d2067726f7570206d656d626560408201527f7273206172726179000000000000000000000000000000000000000000000000606082015250565b6000611cc660688361117c565b9150611cd182611c1e565b608082019050919050565b60006020820190508181036000830152611cf581611cb9565b9050919050565b6000611d07826110e8565b9150611d12836110e8565b925082821015611d2557611d24611ba7565b5b828203905092915050565b7f4572726f72202d2d204164644d656d626572282920646964206e6f742073756360008201527f63657366756c6c792072756e2e206d656d6265725f616464726573732077617360208201527f206e6f7420616464656420746f2067726f7570206d656d62657273206172726160408201527f7900000000000000000000000000000000000000000000000000000000000000606082015250565b6000611dd860618361117c565b9150611de382611d30565b608082019050919050565b60006020820190508181036000830152611e0781611dcb565b905091905056fea26469706673582212200e6c009a454e6edd74b85c7274b666b745397a6191fe448cd878714b280872c564736f6c634300080d0033",
  "immutableReferences": {},
  "source": "pragma solidity ^0.8.0;\n\n//import \"@openzeppelin/contracts/utils/Strings.sol\";\n\ncontract Voting {\n    \n    // Candidate struct\n    struct Candidate {\n        string name;\n        uint voteCount;\n    }\n\n    // Structure of election\n    struct Election {\n        string electionTitle;\n        Candidate[] candidates;\n    }\n\n    struct Group {\n        string groupTitle;\n        Election[] elections; // fixed-size array of elections\n        address[] members; // Array of member addresses\n        address adminAddress; \n    }\n\n    // Array of groups\n    Group[] public groups;\n\n    // Constructor to initialize the candidates\n    constructor() {\n        createGroup('main');\n        createElection(0, '2016 dem primary');\n        createCandidate(0, 'Candidate 1');\n        createCandidate(0, 'Candidate 2');\n    }\n    // adds a new group to groups[]\n    function createGroup(string memory name) public { \n        // Expand the storage array\n        groups.push();\n        Group storage newGroup = groups[groups.length - 1];\n        newGroup.groupTitle = name;\n        newGroup.adminAddress=msg.sender;// set admin to the address which calls the function\n        newGroup.members.push(newGroup.adminAddress);\n    }\n    \n    // adds a new election to a specified group in groups[]\n    // function createElection(uint groupID, string memory name) public { \n    //     Election[] storage elections = groups[groupID].elections;\n    //     elections.push();\n    //     Election storage newElection = elections[elections.length-1];\n    //     newElection.electionTitle=name;\n    // }\n\n   function createElection(uint groupID, string memory name) public { \n        require(msg.sender == groups[groupID].adminAddress);\n        Election[] storage elections = groups[groupID].elections;\n        elections.push();\n        Election storage newElection = elections[elections.length-1];\n        newElection.electionTitle=name;\n    }    \n    // adds a new candidate to the last election in a specified group\n    function createCandidate(uint groupID, string memory name) public {\n        Candidate[] storage candidates = groups[groupID].elections[groups[groupID].elections.length - 1].candidates;\n        candidates.push(Candidate(name, 0));\n    }\n    function getGroups() public view returns (Group[] memory) {\n        return groups;\n    }\n\n    // Function to vote for a candidate\n    function vote(uint groupID, uint electionIndex, uint candidateIndex) public {\n        // Election storage election = groups[groupID].elections[electionIndex];\n        // Check if candidate index is valid\n        require(candidateIndex >= 0 && candidateIndex < groups[groupID].elections[electionIndex].candidates.length, \"Invalid candidate index\");\n\n        // Increment the vote count for the candidate\n        groups[groupID].elections[electionIndex].candidates[candidateIndex].voteCount++;\n    }\n\n    // Function to get the name and vote count for a candidate\n    function getCandidate(uint groupID, uint electionIndex, uint candidateIndex) public view returns (string memory, uint) {\n        Election storage election = groups[groupID].elections[electionIndex];\n        // Check if candidate index is valid\n        require(candidateIndex >= 0 && candidateIndex < election.candidates.length, \"Invalid candidate index\");\n\n        // Return the name and vote count for the candidate\n        return (election.candidates[candidateIndex].name, election.candidates[candidateIndex].voteCount);\n    }\n\n\n    /**\n    This function adds a member to a group\n    @param groupID {uint} - ID of the group\n    @param member_address {address} - the address of the user to be added\n    @return {bool} - whether the function was succesful or not\n     */\n    function addMember(uint groupID, address member_address) public returns (bool){\n        require(groupID >= 0, \"Invalid groupID\");\n        require(member_address != address(0),\"Invalid member_address\");\n\n        Group storage m_group = groups[groupID];\n        bool task_accomplished = false;\n        uint init_length = m_group.members.length; // initial length of group members\n\n        m_group.members.push(member_address);\n\n        if(init_length++ == m_group.members.length){\n            task_accomplished = true;\n            return task_accomplished;\n        }else{\n            revert(\"Error -- AddMember() did not succesfully run. member_address was not added to group members array\");\n        }\n    }\n\n    /**\n    This function removes a member from a group\n    @param groupID {uint} - ID of the group\n    @param member_address {address} - the address of the user to be added\n    @return {bool} - whether the function was succesful or not\n     */\n    function removeMember(uint groupID, address member_address) public returns (bool){\n        require(groupID >= 0, \"Invalid groupID\");\n        require(member_address != address(0),\"Invalid member_address\");\n        Group storage m_group = groups[groupID];\n        bool task_accomplished = false;\n\n        for (uint256 i = 0; i < m_group.members.length; i++) {\n            if(m_group.members[i] == member_address){ // this address is the one to remove\n                delete m_group.members[i];\n                task_accomplished = true;\n            }\n        }\n\n        if(task_accomplished == false){\n            revert(\"Error -- removeMember() did not succesfully run. member_address was not removed from group members array\");\n        }\n        return task_accomplished;\n    }\n\n    /*\n    function endElection (uint groupID, uint electionIndex) public {\n        \n    }\n    */\n}",
  "sourcePath": "/Users/darhart1/Desktop/repos/VotingBlock/contracts/Voting.sol",
  "compiler": {
    "name": "solc",
    "version": "0.8.13+commit.abaa5c0e.Emscripten.clang"
  },
  "schemaVersion": "3.4.11",
  "updatedAt": "2023-05-16T16:11:10.822Z",
  "networkType": "ethereum",
  "devdoc": {
    "kind": "dev",
    "methods": {
      "addMember(uint256,address)": {
        "params": {
          "groupID": "{uint} - ID of the group",
          "member_address": "{address} - the address of the user to be added"
        },
        "returns": {
          "_0": "{bool} - whether the function was succesful or not"
        }
      },
      "removeMember(uint256,address)": {
        "params": {
          "groupID": "{uint} - ID of the group",
          "member_address": "{address} - the address of the user to be added"
        },
        "returns": {
          "_0": "{bool} - whether the function was succesful or not"
        }
      }
    },
    "version": 1
  },
  "userdoc": {
    "kind": "user",
    "methods": {
      "addMember(uint256,address)": {
        "notice": "This function adds a member to a group"
      },
      "removeMember(uint256,address)": {
        "notice": "This function removes a member from a group"
      }
    },
    "version": 1
  }
}