{
  "contractName": "Voting",
  "abi": [
    {
      "inputs": [],
      "stateMutability": "nonpayable",
      "type": "constructor"
    },
    {
      "inputs": [
        {
          "internalType": "uint256",
          "name": "",
          "type": "uint256"
        }
      ],
      "name": "groups",
      "outputs": [
        {
          "internalType": "string",
          "name": "groupTitle",
          "type": "string"
        },
        {
          "internalType": "address",
          "name": "adminAddress",
          "type": "address"
        }
      ],
      "stateMutability": "view",
      "type": "function",
      "constant": true
    },
    {
      "inputs": [
        {
          "internalType": "string",
          "name": "name",
          "type": "string"
        }
      ],
      "name": "createGroup",
      "outputs": [],
      "stateMutability": "nonpayable",
      "type": "function"
    },
    {
      "inputs": [
        {
          "internalType": "uint256",
          "name": "groupID",
          "type": "uint256"
        },
        {
          "internalType": "string",
          "name": "name",
          "type": "string"
        }
      ],
      "name": "createElection",
      "outputs": [],
      "stateMutability": "nonpayable",
      "type": "function"
    },
    {
      "inputs": [
        {
          "internalType": "uint256",
          "name": "groupID",
          "type": "uint256"
        },
        {
          "internalType": "string",
          "name": "name",
          "type": "string"
        }
      ],
      "name": "createCandidate",
      "outputs": [],
      "stateMutability": "nonpayable",
      "type": "function"
    },
    {
      "inputs": [],
      "name": "getGroups",
      "outputs": [
        {
          "components": [
            {
              "internalType": "string",
              "name": "groupTitle",
              "type": "string"
            },
            {
              "components": [
                {
                  "internalType": "string",
                  "name": "electionTitle",
                  "type": "string"
                },
                {
                  "components": [
                    {
                      "internalType": "string",
                      "name": "name",
                      "type": "string"
                    },
                    {
                      "internalType": "uint256",
                      "name": "voteCount",
                      "type": "uint256"
                    }
                  ],
                  "internalType": "struct Voting.Candidate[]",
                  "name": "candidates",
                  "type": "tuple[]"
                },
                {
                  "internalType": "address[]",
                  "name": "voted",
                  "type": "address[]"
                }
              ],
              "internalType": "struct Voting.Election[]",
              "name": "elections",
              "type": "tuple[]"
            },
            {
              "components": [
                {
                  "internalType": "string",
                  "name": "electionTitle",
                  "type": "string"
                },
                {
                  "components": [
                    {
                      "internalType": "string",
                      "name": "name",
                      "type": "string"
                    },
                    {
                      "internalType": "uint256",
                      "name": "voteCount",
                      "type": "uint256"
                    }
                  ],
                  "internalType": "struct Voting.Candidate[]",
                  "name": "candidates",
                  "type": "tuple[]"
                },
                {
                  "internalType": "address[]",
                  "name": "voted",
                  "type": "address[]"
                }
              ],
              "internalType": "struct Voting.Election[]",
              "name": "completed",
              "type": "tuple[]"
            },
            {
              "internalType": "address[]",
              "name": "members",
              "type": "address[]"
            },
            {
              "internalType": "address",
              "name": "adminAddress",
              "type": "address"
            }
          ],
          "internalType": "struct Voting.Group[]",
          "name": "",
          "type": "tuple[]"
        }
      ],
      "stateMutability": "view",
      "type": "function",
      "constant": true
    },
    {
      "inputs": [
        {
          "internalType": "uint256",
          "name": "groupID",
          "type": "uint256"
        }
      ],
      "name": "getElections",
      "outputs": [
        {
          "components": [
            {
              "internalType": "string",
              "name": "electionTitle",
              "type": "string"
            },
            {
              "components": [
                {
                  "internalType": "string",
                  "name": "name",
                  "type": "string"
                },
                {
                  "internalType": "uint256",
                  "name": "voteCount",
                  "type": "uint256"
                }
              ],
              "internalType": "struct Voting.Candidate[]",
              "name": "candidates",
              "type": "tuple[]"
            },
            {
              "internalType": "address[]",
              "name": "voted",
              "type": "address[]"
            }
          ],
          "internalType": "struct Voting.Election[]",
          "name": "",
          "type": "tuple[]"
        }
      ],
      "stateMutability": "view",
      "type": "function",
      "constant": true
    },
    {
      "inputs": [
        {
          "internalType": "uint256",
          "name": "groupID",
          "type": "uint256"
        },
        {
          "internalType": "uint256",
          "name": "electionIndex",
          "type": "uint256"
        },
        {
          "internalType": "uint256",
          "name": "candidateIndex",
          "type": "uint256"
        }
      ],
      "name": "vote",
      "outputs": [],
      "stateMutability": "nonpayable",
      "type": "function"
    },
    {
      "inputs": [
        {
          "internalType": "uint256",
          "name": "groupID",
          "type": "uint256"
        },
        {
          "internalType": "uint256",
          "name": "electionIndex",
          "type": "uint256"
        },
        {
          "internalType": "uint256",
          "name": "candidateIndex",
          "type": "uint256"
        }
      ],
      "name": "getCandidate",
      "outputs": [
        {
          "internalType": "string",
          "name": "",
          "type": "string"
        },
        {
          "internalType": "uint256",
          "name": "",
          "type": "uint256"
        }
      ],
      "stateMutability": "view",
      "type": "function",
      "constant": true
    },
    {
      "inputs": [
        {
          "internalType": "uint256",
          "name": "groupID",
          "type": "uint256"
        },
        {
          "internalType": "address",
          "name": "member_address",
          "type": "address"
        }
      ],
      "name": "addMember",
      "outputs": [],
      "stateMutability": "nonpayable",
      "type": "function"
    },
    {
      "inputs": [
        {
          "internalType": "uint256",
          "name": "groupID",
          "type": "uint256"
        },
        {
          "internalType": "address",
          "name": "member_address",
          "type": "address"
        }
      ],
      "name": "removeMember",
      "outputs": [],
      "stateMutability": "nonpayable",
      "type": "function"
    },
    {
      "inputs": [
        {
          "internalType": "uint256",
          "name": "groupID",
          "type": "uint256"
        },
        {
          "internalType": "uint256",
          "name": "electionIndex",
          "type": "uint256"
        }
      ],
      "name": "endElection",
      "outputs": [],
      "stateMutability": "nonpayable",
      "type": "function"
    }
  ],
  "bytecode": "0x60806040523480156200001157600080fd5b50620000586040518060400160405280600481526020017f6d61696e000000000000000000000000000000000000000000000000000000008152506200013660201b60201c565b620000a060006040518060400160405280601081526020017f323031362064656d207072696d617279000000000000000000000000000000008152506200027a60201b60201c565b620000e860006040518060400160405280600b81526020017f43616e64696461746520310000000000000000000000000000000000000000008152506200039e60201b60201c565b6200013060006040518060400160405280600b81526020017f43616e64696461746520320000000000000000000000000000000000000000008152506200039e60201b60201c565b6200064f565b60006001816001815401808255809150500390600052602060002090505060008060016000805490506200016b919062000581565b815481106200017f576200017e620005bc565b5b9060005260206000209060050201905081816000019080519060200190620001a992919062000498565b50338160040160006101000a81548173ffffffffffffffffffffffffffffffffffffffff021916908373ffffffffffffffffffffffffffffffffffffffff160217905550806003018160040160009054906101000a900473ffffffffffffffffffffffffffffffffffffffff169080600181540180825580915050600190039060005260206000200160009091909190916101000a81548173ffffffffffffffffffffffffffffffffffffffff021916908373ffffffffffffffffffffffffffffffffffffffff1602179055505050565b60008281548110620002915762000290620005bc565b5b906000526020600020906005020160040160009054906101000a900473ffffffffffffffffffffffffffffffffffffffff1673ffffffffffffffffffffffffffffffffffffffff163373ffffffffffffffffffffffffffffffffffffffff1614620002fb57600080fd5b6000808381548110620003135762000312620005bc565b5b9060005260206000209060050201600101905080600181600181540180825580915050039060005260206000209050506000816001838054905062000359919062000581565b815481106200036d576200036c620005bc565b5b90600052602060002090600302019050828160000190805190602001906200039792919062000498565b5050505050565b6000808381548110620003b657620003b5620005bc565b5b9060005260206000209060050201600101600160008581548110620003e057620003df620005bc565b5b90600052602060002090600502016001018054905062000401919062000581565b81548110620004155762000414620005bc565b5b906000526020600020906003020160010190508060405180604001604052808481526020016000815250908060018154018082558091505060019003906000526020600020906002020160009091909190915060008201518160000190805190602001906200048692919062000498565b50602082015181600101555050505050565b828054620004a6906200061a565b90600052602060002090601f016020900481019282620004ca576000855562000516565b82601f10620004e557805160ff191683800117855562000516565b8280016001018555821562000516579182015b8281111562000515578251825591602001919060010190620004f8565b5b50905062000525919062000529565b5090565b5b80821115620005445760008160009055506001016200052a565b5090565b6000819050919050565b7f4e487b7100000000000000000000000000000000000000000000000000000000600052601160045260246000fd5b60006200058e8262000548565b91506200059b8362000548565b925082821015620005b157620005b062000552565b5b828203905092915050565b7f4e487b7100000000000000000000000000000000000000000000000000000000600052603260045260246000fd5b7f4e487b7100000000000000000000000000000000000000000000000000000000600052602260045260246000fd5b600060028204905060018216806200063357607f821691505b602082108103620006495762000648620005eb565b5b50919050565b61290b806200065f6000396000f3fe608060405234801561001057600080fd5b50600436106100a95760003560e01c80637da09d94116100715780637da09d941461014f5780638a6655d61461016b57806396324bd414610187578063b1c0fbf6146101b8578063c72b5176146101e8578063dc2ddcae14610206576100a9565b80634976d0b0146100ae578063588d49f4146100ca5780636be7658b146100fb57806373ddf4111461011757806374d0a67614610133575b600080fd5b6100c860048036038101906100c39190611c36565b610222565b005b6100e460048036038101906100df9190611c76565b610439565b6040516100f2929190611d71565b60405180910390f35b61011560048036038101906101109190611dff565b6105c3565b005b610131600480360381019061012c9190611f74565b610867565b005b61014d60048036038101906101489190611dff565b610954565b005b61016960048036038101906101649190611f74565b6109e3565b005b61018560048036038101906101809190611c76565b610af9565b005b6101a1600480360381019061019c9190611fd0565b610db3565b6040516101af92919061200c565b60405180910390f35b6101d260048036038101906101cd9190611fd0565b610e8f565b6040516101df9190612372565b60405180910390f35b6101f061112e565b6040516101fd9190612567565b60405180910390f35b610220600480360381019061021b9190612589565b6117f7565b005b6000808381548110610237576102366125d2565b5b906000526020600020906005020160010190506000838154811061025e5761025d6125d2565b5b9060005260206000209060050201600201818381548110610282576102816125d2565b5b9060005260206000209060030201908060018154018082558091505060019003906000526020600020906003020160009091909190915060008201816000019080546102cd90612630565b6102d8929190611934565b5060018201816001019080546102ef9291906119c1565b506002820181600201908054610306929190611a43565b50505060008290505b600182805490506103209190612690565b8110156103d9578160018261033591906126c4565b81548110610346576103456125d2565b5b9060005260206000209060030201828281548110610367576103666125d2565b5b9060005260206000209060030201600082018160000190805461038990612630565b610394929190611934565b5060018201816001019080546103ab9291906119c1565b5060028201816002019080546103c2929190611a43565b5090505080806103d19061271a565b91505061030f565b50808054806103eb576103ea612762565b5b6001900381819060005260206000209060030201600080820160006104109190611a95565b6001820160006104209190611ad5565b6002820160006104309190611af9565b50509055505050565b606060008060008681548110610452576104516125d2565b5b90600052602060002090600502016001018581548110610475576104746125d2565b5b906000526020600020906003020190506000841015801561049c5750806001018054905084105b6104db576040517f08c379a00000000000000000000000000000000000000000000000000000000081526004016104d2906127dd565b60405180910390fd5b8060010184815481106104f1576104f06125d2565b5b9060005260206000209060020201600001816001018581548110610518576105176125d2565b5b90600052602060002090600202016001015481805461053690612630565b80601f016020809104026020016040519081016040528092919081815260200182805461056290612630565b80156105af5780601f10610584576101008083540402835291602001916105af565b820191906000526020600020905b81548152906001019060200180831161059257829003601f168201915b505050505091509250925050935093915050565b6000821015610607576040517f08c379a00000000000000000000000000000000000000000000000000000000081526004016105fe90612849565b60405180910390fd5b600073ffffffffffffffffffffffffffffffffffffffff168173ffffffffffffffffffffffffffffffffffffffff1603610676576040517f08c379a000000000000000000000000000000000000000000000000000000000815260040161066d906128b5565b60405180910390fd5b600080838154811061068b5761068a6125d2565b5b9060005260206000209060050201905060005b8160030180549050811015610861578273ffffffffffffffffffffffffffffffffffffffff168260030182815481106106da576106d96125d2565b5b9060005260206000200160009054906101000a900473ffffffffffffffffffffffffffffffffffffffff1673ffffffffffffffffffffffffffffffffffffffff160361084e5760008190505b6001836003018054905061073a9190612690565b8110156107ff578260030160018261075291906126c4565b81548110610763576107626125d2565b5b9060005260206000200160009054906101000a900473ffffffffffffffffffffffffffffffffffffffff168360030182815481106107a4576107a36125d2565b5b9060005260206000200160006101000a81548173ffffffffffffffffffffffffffffffffffffffff021916908373ffffffffffffffffffffffffffffffffffffffff16021790555080806107f79061271a565b915050610726565b508160030180548061081457610813612762565b5b6001900381819060005260206000200160006101000a81549073ffffffffffffffffffffffffffffffffffffffff02191690559055610861565b80806108599061271a565b91505061069e565b50505050565b600080838154811061087c5761087b6125d2565b5b90600052602060002090600502016001016001600085815481106108a3576108a26125d2565b5b9060005260206000209060050201600101805490506108c29190612690565b815481106108d3576108d26125d2565b5b90600052602060002090600302016001019050806040518060400160405280848152602001600081525090806001815401808255809150506001900390600052602060002090600202016000909190919091506000820151816000019080519060200190610942929190611b1a565b50602082015181600101555050505050565b6000808381548110610969576109686125d2565b5b9060005260206000209060050201905080600301829080600181540180825580915050600190039060005260206000200160009091909190916101000a81548173ffffffffffffffffffffffffffffffffffffffff021916908373ffffffffffffffffffffffffffffffffffffffff160217905550505050565b600082815481106109f7576109f66125d2565b5b906000526020600020906005020160040160009054906101000a900473ffffffffffffffffffffffffffffffffffffffff1673ffffffffffffffffffffffffffffffffffffffff163373ffffffffffffffffffffffffffffffffffffffff1614610a6057600080fd5b6000808381548110610a7557610a746125d2565b5b90600052602060002090600502016001019050806001816001815401808255809150500390600052602060002090505060008160018380549050610ab99190612690565b81548110610aca57610ac96125d2565b5b9060005260206000209060030201905082816000019080519060200190610af2929190611b1a565b5050505050565b6000808481548110610b0e57610b0d6125d2565b5b90600052602060002090600502016001018381548110610b3157610b306125d2565b5b906000526020600020906003020190506000808581548110610b5657610b556125d2565b5b9060005260206000209060050201600301905060005b8180549050811015610bfc573373ffffffffffffffffffffffffffffffffffffffff16828281548110610ba257610ba16125d2565b5b9060005260206000200160009054906101000a900473ffffffffffffffffffffffffffffffffffffffff1673ffffffffffffffffffffffffffffffffffffffff160315610bfc578080610bf49061271a565b915050610b6c565b8180549050811015610dab57600090505b8260020180549050811015610ca3573373ffffffffffffffffffffffffffffffffffffffff16836002018281548110610c4957610c486125d2565b5b9060005260206000200160009054906101000a900473ffffffffffffffffffffffffffffffffffffffff1673ffffffffffffffffffffffffffffffffffffffff160315610ca3578080610c9b9061271a565b915050610c0d565b82600201805490508103610daa5760008410158015610cc85750826001018054905084105b610d07576040517f08c379a0000000000000000000000000000000000000000000000000000000008152600401610cfe906127dd565b60405180910390fd5b826001018481548110610d1d57610d1c6125d2565b5b90600052602060002090600202016001016000815480929190610d3f9061271a565b919050555082600201339080600181540180825580915050600190039060005260206000200160009091909190916101000a81548173ffffffffffffffffffffffffffffffffffffffff021916908373ffffffffffffffffffffffffffffffffffffffff1602179055505b5b505050505050565b60008181548110610dc357600080fd5b9060005260206000209060050201600091509050806000018054610de690612630565b80601f0160208091040260200160405190810160405280929190818152602001828054610e1290612630565b8015610e5f5780601f10610e3457610100808354040283529160200191610e5f565b820191906000526020600020905b815481529060010190602001808311610e4257829003601f168201915b5050505050908060040160009054906101000a900473ffffffffffffffffffffffffffffffffffffffff16905082565b606060008281548110610ea557610ea46125d2565b5b9060005260206000209060050201600101805480602002602001604051908101604052809291908181526020016000905b828210156111235783829060005260206000209060030201604051806060016040529081600082018054610f0990612630565b80601f0160208091040260200160405190810160405280929190818152602001828054610f3590612630565b8015610f825780601f10610f5757610100808354040283529160200191610f82565b820191906000526020600020905b815481529060010190602001808311610f6557829003601f168201915b5050505050815260200160018201805480602002602001604051908101604052809291908181526020016000905b8282101561107e5783829060005260206000209060020201604051806040016040529081600082018054610fe390612630565b80601f016020809104026020016040519081016040528092919081815260200182805461100f90612630565b801561105c5780601f106110315761010080835404028352916020019161105c565b820191906000526020600020905b81548152906001019060200180831161103f57829003601f168201915b5050505050815260200160018201548152505081526020019060010190610fb0565b5050505081526020016002820180548060200260200160405190810160405280929190818152602001828054801561110b57602002820191906000526020600020905b8160009054906101000a900473ffffffffffffffffffffffffffffffffffffffff1673ffffffffffffffffffffffffffffffffffffffff16815260200190600101908083116110c1575b50505050508152505081526020019060010190610ed6565b505050509050919050565b60606000805480602002602001604051908101604052809291908181526020016000905b828210156117ee57838290600052602060002090600502016040518060a001604052908160008201805461118590612630565b80601f01602080910402602001604051908101604052809291908181526020018280546111b190612630565b80156111fe5780601f106111d3576101008083540402835291602001916111fe565b820191906000526020600020905b8154815290600101906020018083116111e157829003601f168201915b5050505050815260200160018201805480602002602001604051908101604052809291908181526020016000905b82821015611479578382906000526020600020906003020160405180606001604052908160008201805461125f90612630565b80601f016020809104026020016040519081016040528092919081815260200182805461128b90612630565b80156112d85780601f106112ad576101008083540402835291602001916112d8565b820191906000526020600020905b8154815290600101906020018083116112bb57829003601f168201915b5050505050815260200160018201805480602002602001604051908101604052809291908181526020016000905b828210156113d4578382906000526020600020906002020160405180604001604052908160008201805461133990612630565b80601f016020809104026020016040519081016040528092919081815260200182805461136590612630565b80156113b25780601f10611387576101008083540402835291602001916113b2565b820191906000526020600020905b81548152906001019060200180831161139557829003601f168201915b5050505050815260200160018201548152505081526020019060010190611306565b5050505081526020016002820180548060200260200160405190810160405280929190818152602001828054801561146157602002820191906000526020600020905b8160009054906101000a900473ffffffffffffffffffffffffffffffffffffffff1673ffffffffffffffffffffffffffffffffffffffff1681526020019060010190808311611417575b5050505050815250508152602001906001019061122c565b50505050815260200160028201805480602002602001604051908101604052809291908181526020016000905b828210156116f357838290600052602060002090600302016040518060600160405290816000820180546114d990612630565b80601f016020809104026020016040519081016040528092919081815260200182805461150590612630565b80156115525780601f1061152757610100808354040283529160200191611552565b820191906000526020600020905b81548152906001019060200180831161153557829003601f168201915b5050505050815260200160018201805480602002602001604051908101604052809291908181526020016000905b8282101561164e57838290600052602060002090600202016040518060400160405290816000820180546115b390612630565b80601f01602080910402602001604051908101604052809291908181526020018280546115df90612630565b801561162c5780601f106116015761010080835404028352916020019161162c565b820191906000526020600020905b81548152906001019060200180831161160f57829003601f168201915b5050505050815260200160018201548152505081526020019060010190611580565b505050508152602001600282018054806020026020016040519081016040528092919081815260200182805480156116db57602002820191906000526020600020905b8160009054906101000a900473ffffffffffffffffffffffffffffffffffffffff1673ffffffffffffffffffffffffffffffffffffffff1681526020019060010190808311611691575b505050505081525050815260200190600101906114a6565b5050505081526020016003820180548060200260200160405190810160405280929190818152602001828054801561178057602002820191906000526020600020905b8160009054906101000a900473ffffffffffffffffffffffffffffffffffffffff1673ffffffffffffffffffffffffffffffffffffffff1681526020019060010190808311611736575b505050505081526020016004820160009054906101000a900473ffffffffffffffffffffffffffffffffffffffff1673ffffffffffffffffffffffffffffffffffffffff1673ffffffffffffffffffffffffffffffffffffffff168152505081526020019060010190611152565b50505050905090565b600060018160018154018082558091505003906000526020600020905050600080600160008054905061182a9190612690565b8154811061183b5761183a6125d2565b5b9060005260206000209060050201905081816000019080519060200190611863929190611b1a565b50338160040160006101000a81548173ffffffffffffffffffffffffffffffffffffffff021916908373ffffffffffffffffffffffffffffffffffffffff160217905550806003018160040160009054906101000a900473ffffffffffffffffffffffffffffffffffffffff169080600181540180825580915050600190039060005260206000200160009091909190916101000a81548173ffffffffffffffffffffffffffffffffffffffff021916908373ffffffffffffffffffffffffffffffffffffffff1602179055505050565b82805461194090612630565b90600052602060002090601f01602090048101928261196257600085556119b0565b82601f1061197357805485556119b0565b828001600101855582156119b057600052602060002091601f016020900482015b828111156119af578254825591600101919060010190611994565b5b5090506119bd9190611ba0565b5090565b828054828255906000526020600020906002028101928215611a325760005260206000209160020282015b82811115611a315782826000820181600001908054611a0a90612630565b611a15929190611934565b50600182015481600101555050916002019190600201906119ec565b5b509050611a3f9190611bbd565b5090565b828054828255906000526020600020908101928215611a845760005260206000209182015b82811115611a83578254825591600101919060010190611a68565b5b509050611a919190611ba0565b5090565b508054611aa190612630565b6000825580601f10611ab35750611ad2565b601f016020900490600052602060002090810190611ad19190611ba0565b5b50565b5080546000825560020290600052602060002090810190611af69190611bbd565b50565b5080546000825590600052602060002090810190611b179190611ba0565b50565b828054611b2690612630565b90600052602060002090601f016020900481019282611b485760008555611b8f565b82601f10611b6157805160ff1916838001178555611b8f565b82800160010185558215611b8f579182015b82811115611b8e578251825591602001919060010190611b73565b5b509050611b9c9190611ba0565b5090565b5b80821115611bb9576000816000905550600101611ba1565b5090565b5b80821115611be85760008082016000611bd79190611a95565b600182016000905550600201611bbe565b5090565b6000604051905090565b600080fd5b600080fd5b6000819050919050565b611c1381611c00565b8114611c1e57600080fd5b50565b600081359050611c3081611c0a565b92915050565b60008060408385031215611c4d57611c4c611bf6565b5b6000611c5b85828601611c21565b9250506020611c6c85828601611c21565b9150509250929050565b600080600060608486031215611c8f57611c8e611bf6565b5b6000611c9d86828701611c21565b9350506020611cae86828701611c21565b9250506040611cbf86828701611c21565b9150509250925092565b600081519050919050565b600082825260208201905092915050565b60005b83811015611d03578082015181840152602081019050611ce8565b83811115611d12576000848401525b50505050565b6000601f19601f8301169050919050565b6000611d3482611cc9565b611d3e8185611cd4565b9350611d4e818560208601611ce5565b611d5781611d18565b840191505092915050565b611d6b81611c00565b82525050565b60006040820190508181036000830152611d8b8185611d29565b9050611d9a6020830184611d62565b9392505050565b600073ffffffffffffffffffffffffffffffffffffffff82169050919050565b6000611dcc82611da1565b9050919050565b611ddc81611dc1565b8114611de757600080fd5b50565b600081359050611df981611dd3565b92915050565b60008060408385031215611e1657611e15611bf6565b5b6000611e2485828601611c21565b9250506020611e3585828601611dea565b9150509250929050565b600080fd5b600080fd5b7f4e487b7100000000000000000000000000000000000000000000000000000000600052604160045260246000fd5b611e8182611d18565b810181811067ffffffffffffffff82111715611ea057611e9f611e49565b5b80604052505050565b6000611eb3611bec565b9050611ebf8282611e78565b919050565b600067ffffffffffffffff821115611edf57611ede611e49565b5b611ee882611d18565b9050602081019050919050565b82818337600083830152505050565b6000611f17611f1284611ec4565b611ea9565b905082815260208101848484011115611f3357611f32611e44565b5b611f3e848285611ef5565b509392505050565b600082601f830112611f5b57611f5a611e3f565b5b8135611f6b848260208601611f04565b91505092915050565b60008060408385031215611f8b57611f8a611bf6565b5b6000611f9985828601611c21565b925050602083013567ffffffffffffffff811115611fba57611fb9611bfb565b5b611fc685828601611f46565b9150509250929050565b600060208284031215611fe657611fe5611bf6565b5b6000611ff484828501611c21565b91505092915050565b61200681611dc1565b82525050565b600060408201905081810360008301526120268185611d29565b90506120356020830184611ffd565b9392505050565b600081519050919050565b600082825260208201905092915050565b6000819050602082019050919050565b600082825260208201905092915050565b600061208482611cc9565b61208e8185612068565b935061209e818560208601611ce5565b6120a781611d18565b840191505092915050565b600081519050919050565b600082825260208201905092915050565b6000819050602082019050919050565b6120e781611c00565b82525050565b6000604083016000830151848203600086015261210a8282612079565b915050602083015161211f60208601826120de565b508091505092915050565b600061213683836120ed565b905092915050565b6000602082019050919050565b6000612156826120b2565b61216081856120bd565b935083602082028501612172856120ce565b8060005b858110156121ae578484038952815161218f858261212a565b945061219a8361213e565b925060208a01995050600181019050612176565b50829750879550505050505092915050565b600081519050919050565b600082825260208201905092915050565b6000819050602082019050919050565b6121f581611dc1565b82525050565b600061220783836121ec565b60208301905092915050565b6000602082019050919050565b600061222b826121c0565b61223581856121cb565b9350612240836121dc565b8060005b8381101561227157815161225888826121fb565b975061226383612213565b925050600181019050612244565b5085935050505092915050565b6000606083016000830151848203600086015261229b8282612079565b915050602083015184820360208601526122b5828261214b565b915050604083015184820360408601526122cf8282612220565b9150508091505092915050565b60006122e8838361227e565b905092915050565b6000602082019050919050565b60006123088261203c565b6123128185612047565b93508360208202850161232485612058565b8060005b85811015612360578484038952815161234185826122dc565b945061234c836122f0565b925060208a01995050600181019050612328565b50829750879550505050505092915050565b6000602082019050818103600083015261238c81846122fd565b905092915050565b600081519050919050565b600082825260208201905092915050565b6000819050602082019050919050565b600082825260208201905092915050565b60006123dc8261203c565b6123e681856123c0565b9350836020820285016123f885612058565b8060005b85811015612434578484038952815161241585826122dc565b9450612420836122f0565b925060208a019950506001810190506123fc565b50829750879550505050505092915050565b600060a08301600083015184820360008601526124638282612079565b9150506020830151848203602086015261247d82826123d1565b9150506040830151848203604086015261249782826123d1565b915050606083015184820360608601526124b18282612220565b91505060808301516124c660808601826121ec565b508091505092915050565b60006124dd8383612446565b905092915050565b6000602082019050919050565b60006124fd82612394565b612507818561239f565b935083602082028501612519856123b0565b8060005b85811015612555578484038952815161253685826124d1565b9450612541836124e5565b925060208a0199505060018101905061251d565b50829750879550505050505092915050565b6000602082019050818103600083015261258181846124f2565b905092915050565b60006020828403121561259f5761259e611bf6565b5b600082013567ffffffffffffffff8111156125bd576125bc611bfb565b5b6125c984828501611f46565b91505092915050565b7f4e487b7100000000000000000000000000000000000000000000000000000000600052603260045260246000fd5b7f4e487b7100000000000000000000000000000000000000000000000000000000600052602260045260246000fd5b6000600282049050600182168061264857607f821691505b60208210810361265b5761265a612601565b5b50919050565b7f4e487b7100000000000000000000000000000000000000000000000000000000600052601160045260246000fd5b600061269b82611c00565b91506126a683611c00565b9250828210156126b9576126b8612661565b5b828203905092915050565b60006126cf82611c00565b91506126da83611c00565b9250827fffffffffffffffffffffffffffffffffffffffffffffffffffffffffffffffff0382111561270f5761270e612661565b5b828201905092915050565b600061272582611c00565b91507fffffffffffffffffffffffffffffffffffffffffffffffffffffffffffffffff820361275757612756612661565b5b600182019050919050565b7f4e487b7100000000000000000000000000000000000000000000000000000000600052603160045260246000fd5b7f496e76616c69642063616e64696461746520696e646578000000000000000000600082015250565b60006127c7601783611cd4565b91506127d282612791565b602082019050919050565b600060208201905081810360008301526127f6816127ba565b9050919050565b7f496e76616c69642067726f757049440000000000000000000000000000000000600082015250565b6000612833600f83611cd4565b915061283e826127fd565b602082019050919050565b6000602082019050818103600083015261286281612826565b9050919050565b7f496e76616c6964206d656d6265725f6164647265737300000000000000000000600082015250565b600061289f601683611cd4565b91506128aa82612869565b602082019050919050565b600060208201905081810360008301526128ce81612892565b905091905056fea2646970667358221220ba5228a1a60477b61f773a84f7c116ae293d1da9040bf322904b030cfe5952e164736f6c634300080d0033",
  "immutableReferences": {},
  "source": "pragma solidity ^0.8.0;\r\n\r\n//import \"@openzeppelin/contracts/utils/Strings.sol\";\r\n\r\ncontract Voting {\r\n    \r\n    // Candidate struct\r\n    struct Candidate {\r\n        string name;\r\n        uint voteCount;\r\n    }\r\n\r\n    // Structure of election\r\n    struct Election {\r\n        string electionTitle;\r\n        Candidate[] candidates;\r\n        address[] voted;  // members addresses for those who have already voted\r\n    }\r\n\r\n    struct Group {\r\n        string groupTitle;\r\n        Election[] elections; // active elections\r\n        Election[] completed; // completed elections\r\n        address[] members; // Array of member addresses\r\n        address adminAddress;\r\n    }\r\n\r\n    // Array of groups\r\n    Group[] public groups;\r\n\r\n    // Constructor to initialize the candidates\r\n    constructor() {\r\n        createGroup('main');\r\n        createElection(0, '2016 dem primary');\r\n        createCandidate(0, 'Candidate 1');\r\n        createCandidate(0, 'Candidate 2');\r\n    }\r\n    // adds a new group to groups[]\r\n    function createGroup(string memory name) public { \r\n        // Expand the storage array\r\n        groups.push();\r\n        Group storage newGroup = groups[groups.length - 1];\r\n        newGroup.groupTitle = name;\r\n        newGroup.adminAddress=msg.sender;// set admin to the address which calls the function\r\n        newGroup.members.push(newGroup.adminAddress);\r\n    }\r\n    \r\n    // adds a new election to a specified group in groups[]\r\n    // function createElection(uint groupID, string memory name) public { \r\n    //     Election[] storage elections = groups[groupID].elections;\r\n    //     elections.push();\r\n    //     Election storage newElection = elections[elections.length-1];\r\n    //     newElection.electionTitle=name;\r\n    // }\r\n\r\n   function createElection(uint groupID, string memory name) public { \r\n        require(msg.sender == groups[groupID].adminAddress);\r\n        Election[] storage elections = groups[groupID].elections;\r\n        elections.push();\r\n        Election storage newElection = elections[elections.length-1];\r\n        newElection.electionTitle=name;\r\n    }    \r\n    // adds a new candidate to the last election in a specified group\r\n    function createCandidate(uint groupID, string memory name) public {\r\n        Candidate[] storage candidates = groups[groupID].elections[groups[groupID].elections.length - 1].candidates;\r\n        candidates.push(Candidate(name, 0));\r\n    }\r\n    function getGroups() public view returns (Group[] memory) {\r\n        return groups;\r\n    }\r\n\r\n    function getElections(uint groupID) public view returns(Election[] memory) {\r\n        return groups[groupID].elections;\r\n    }\r\n\r\n    // Function to vote for a candidate\r\n    function vote(uint groupID, uint electionIndex, uint candidateIndex) public {\r\n        Election storage election = groups[groupID].elections[electionIndex];\r\n        address[] storage members = groups[groupID].members;\r\n        uint i = 0;\r\n        for(; i < members.length; i++) { // checks if user is a member of the group\r\n            if(members[i]==msg.sender) { \r\n                break;\r\n            }\r\n        }\r\n        if(i < members.length) {\r\n            i = 0;\r\n            for(; i < election.voted.length; i++) { // checks if user has already voted\r\n                if(election.voted[i]==msg.sender) { \r\n                    break;\r\n                }\r\n            }\r\n            if(i==election.voted.length) {\r\n                // Check if candidate index is valid\r\n                require(candidateIndex >= 0 && candidateIndex < election.candidates.length, \"Invalid candidate index\");\r\n                // Increment the vote count for the candidate\r\n                election.candidates[candidateIndex].voteCount++;\r\n                election.voted.push(msg.sender);\r\n            }\r\n        }\r\n        \r\n    }\r\n\r\n    // Function to get the name and vote count for a candidate\r\n    function getCandidate(uint groupID, uint electionIndex, uint candidateIndex) public view returns (string memory, uint) {\r\n        Election storage election = groups[groupID].elections[electionIndex];\r\n        // Check if candidate index is valid\r\n        require(candidateIndex >= 0 && candidateIndex < election.candidates.length, \"Invalid candidate index\");\r\n\r\n        // Return the name and vote count for the candidate\r\n        return (election.candidates[candidateIndex].name, election.candidates[candidateIndex].voteCount);\r\n    }\r\n\r\n    function addMember(uint groupID, address member_address) public{\r\n        //require(groupID >= 0, \"Invalid groupID\");\r\n        //require(member_address != address(0),\"Invalid member_address\");\r\n\r\n        Group storage m_group = groups[groupID];\r\n        m_group.members.push(member_address);\r\n    }\r\n\r\n    function removeMember(uint groupID, address member_address) public {\r\n        require(groupID >= 0, \"Invalid groupID\");\r\n        require(member_address != address(0),\"Invalid member_address\");\r\n        Group storage m_group = groups[groupID];\r\n        uint i = 0;\r\n        for (; i < m_group.members.length; i++) {\r\n            if(m_group.members[i] == member_address){ // this address is the one to remove\r\n                for(uint j = i; j < m_group.members.length-1; j++) {\r\n                    m_group.members[j]=m_group.members[j+1];\r\n                }\r\n                m_group.members.pop();\r\n                break;\r\n            }\r\n        }\r\n    }\r\n\r\n    function endElection (uint groupID, uint electionIndex) public {\r\n        Election[] storage elections = groups[groupID].elections;\r\n        groups[groupID].completed.push(elections[electionIndex]);\r\n        for(uint i = electionIndex; i < elections.length-1; i++) {\r\n            elections[i]=elections[i+1];\r\n        }\r\n        elections.pop();\r\n    }\r\n}",
  "sourcePath": "c:\\Users\\kaitl\\VotingBlockGit\\contracts\\Voting.sol",
  "compiler": {
    "name": "solc",
    "version": "0.8.13+commit.abaa5c0e.Emscripten.clang"
  },
  "schemaVersion": "3.4.11",
  "updatedAt": "2023-05-24T04:50:15.189Z",
  "networkType": "ethereum",
  "devdoc": {
    "kind": "dev",
    "methods": {},
    "version": 1
  },
  "userdoc": {
    "kind": "user",
    "methods": {},
    "version": 1
  }
}