{
  "contractName": "Voting",
  "abi": [
    {
      "inputs": [
        {
          "internalType": "uint256",
          "name": "",
          "type": "uint256"
        }
      ],
      "name": "groups",
      "outputs": [
        {
          "internalType": "string",
          "name": "groupTitle",
          "type": "string"
        },
        {
          "internalType": "address",
          "name": "adminAddress",
          "type": "address"
        }
      ],
      "stateMutability": "view",
      "type": "function",
      "constant": true
    },
    {
      "inputs": [
        {
          "internalType": "string",
          "name": "name",
          "type": "string"
        }
      ],
      "name": "createGroup",
      "outputs": [],
      "stateMutability": "nonpayable",
      "type": "function"
    },
    {
      "inputs": [
        {
          "internalType": "uint256",
          "name": "groupID",
          "type": "uint256"
        },
        {
          "internalType": "string",
          "name": "name",
          "type": "string"
        },
        {
          "internalType": "string[]",
          "name": "options",
          "type": "string[]"
        }
      ],
      "name": "createPoll",
      "outputs": [],
      "stateMutability": "nonpayable",
      "type": "function"
    },
    {
      "inputs": [],
      "name": "getGroups",
      "outputs": [
        {
          "components": [
            {
              "internalType": "string",
              "name": "groupTitle",
              "type": "string"
            },
            {
              "components": [
                {
                  "internalType": "string",
                  "name": "pollTitle",
                  "type": "string"
                },
                {
                  "components": [
                    {
                      "internalType": "string",
                      "name": "name",
                      "type": "string"
                    },
                    {
                      "internalType": "uint256",
                      "name": "voteCount",
                      "type": "uint256"
                    }
                  ],
                  "internalType": "struct Voting.Option[]",
                  "name": "options",
                  "type": "tuple[]"
                },
                {
                  "internalType": "address[]",
                  "name": "voted",
                  "type": "address[]"
                }
              ],
              "internalType": "struct Voting.Poll[]",
              "name": "polls",
              "type": "tuple[]"
            },
            {
              "components": [
                {
                  "internalType": "string",
                  "name": "pollTitle",
                  "type": "string"
                },
                {
                  "components": [
                    {
                      "internalType": "string",
                      "name": "name",
                      "type": "string"
                    },
                    {
                      "internalType": "uint256",
                      "name": "voteCount",
                      "type": "uint256"
                    }
                  ],
                  "internalType": "struct Voting.Option[]",
                  "name": "options",
                  "type": "tuple[]"
                },
                {
                  "internalType": "address[]",
                  "name": "voted",
                  "type": "address[]"
                }
              ],
              "internalType": "struct Voting.Poll[]",
              "name": "completed",
              "type": "tuple[]"
            },
            {
              "internalType": "address[]",
              "name": "members",
              "type": "address[]"
            },
            {
              "internalType": "address",
              "name": "adminAddress",
              "type": "address"
            }
          ],
          "internalType": "struct Voting.Group[]",
          "name": "",
          "type": "tuple[]"
        }
      ],
      "stateMutability": "view",
      "type": "function",
      "constant": true
    },
    {
      "inputs": [
        {
          "internalType": "uint256",
          "name": "groupID",
          "type": "uint256"
        }
      ],
      "name": "getPolls",
      "outputs": [
        {
          "components": [
            {
              "internalType": "string",
              "name": "pollTitle",
              "type": "string"
            },
            {
              "components": [
                {
                  "internalType": "string",
                  "name": "name",
                  "type": "string"
                },
                {
                  "internalType": "uint256",
                  "name": "voteCount",
                  "type": "uint256"
                }
              ],
              "internalType": "struct Voting.Option[]",
              "name": "options",
              "type": "tuple[]"
            },
            {
              "internalType": "address[]",
              "name": "voted",
              "type": "address[]"
            }
          ],
          "internalType": "struct Voting.Poll[]",
          "name": "",
          "type": "tuple[]"
        }
      ],
      "stateMutability": "view",
      "type": "function",
      "constant": true
    },
    {
      "inputs": [
        {
          "internalType": "uint256",
          "name": "groupID",
          "type": "uint256"
        },
        {
          "internalType": "uint256",
          "name": "pollIndex",
          "type": "uint256"
        },
        {
          "internalType": "uint256",
          "name": "optionIndex",
          "type": "uint256"
        }
      ],
      "name": "vote",
      "outputs": [],
      "stateMutability": "nonpayable",
      "type": "function"
    },
    {
      "inputs": [
        {
          "internalType": "uint256",
          "name": "groupID",
          "type": "uint256"
        },
        {
          "internalType": "uint256",
          "name": "pollIndex",
          "type": "uint256"
        },
        {
          "internalType": "uint256",
          "name": "optionIndex",
          "type": "uint256"
        }
      ],
      "name": "getOption",
      "outputs": [
        {
          "internalType": "string",
          "name": "",
          "type": "string"
        },
        {
          "internalType": "uint256",
          "name": "",
          "type": "uint256"
        }
      ],
      "stateMutability": "view",
      "type": "function",
      "constant": true
    },
    {
      "inputs": [
        {
          "internalType": "uint256",
          "name": "groupID",
          "type": "uint256"
        },
        {
          "internalType": "uint256",
          "name": "pollIndex",
          "type": "uint256"
        }
      ],
      "name": "endPoll",
      "outputs": [],
      "stateMutability": "nonpayable",
      "type": "function"
    },
    {
      "inputs": [
        {
          "internalType": "uint256",
          "name": "groupID",
          "type": "uint256"
        },
        {
          "internalType": "address",
          "name": "member_address",
          "type": "address"
        }
      ],
      "name": "addMember",
      "outputs": [],
      "stateMutability": "nonpayable",
      "type": "function"
    },
    {
      "inputs": [
        {
          "internalType": "uint256",
          "name": "groupID",
          "type": "uint256"
        },
        {
          "internalType": "address",
          "name": "member_address",
          "type": "address"
        }
      ],
      "name": "removeMember",
      "outputs": [],
      "stateMutability": "nonpayable",
      "type": "function"
    }
  ],
  "bytecode": "0x608060405234801561001057600080fd5b506129b3806100206000396000f3fe608060405234801561001057600080fd5b506004361061009e5760003560e01c806396324bd41161006657806396324bd414610144578063bbd8c7db14610175578063c72b517614610191578063ce2dee05146101af578063dc2ddcae146101df5761009e565b80630c9ef9a2146100a357806357c98b4e146100bf5780636be7658b146100f057806374d0a6761461010c5780638a6655d614610128575b600080fd5b6100bd60048036038101906100b89190611df5565b6101fb565b005b6100d960048036038101906100d49190611e80565b6103b8565b6040516100e7929190611f6a565b60405180910390f35b61010a60048036038101906101059190611ff8565b610542565b005b61012660048036038101906101219190611ff8565b6107e6565b005b610142600480360381019061013d9190611e80565b610875565b005b61015e60048036038101906101599190612038565b610b2f565b60405161016c929190612074565b60405180910390f35b61018f600480360381019061018a91906120a4565b610c0b565b005b610199610e22565b6040516101a69190612567565b60405180910390f35b6101c960048036038101906101c49190612038565b6114eb565b6040516101d6919061260f565b60405180910390f35b6101f960048036038101906101f49190612631565b61178a565b005b6000838154811061020f5761020e61267a565b5b906000526020600020906005020160040160009054906101000a900473ffffffffffffffffffffffffffffffffffffffff1673ffffffffffffffffffffffffffffffffffffffff163373ffffffffffffffffffffffffffffffffffffffff161461027857600080fd5b600080848154811061028d5761028c61267a565b5b906000526020600020906005020160010190508060018160018154018082558091505003906000526020600020905050600081600183805490506102d191906126d8565b815481106102e2576102e161267a565b5b906000526020600020906003020190508381600001908051906020019061030a9291906118c7565b5060005b83518110156103b0578160010160405180604001604052808684815181106103395761033861267a565b5b602002602001015181526020016000815250908060018154018082558091505060019003906000526020600020906002020160009091909190915060008201518160000190805190602001906103909291906118c7565b5060208201518160010155505080806103a89061270c565b91505061030e565b505050505050565b6060600080600086815481106103d1576103d061267a565b5b906000526020600020906005020160010185815481106103f4576103f361267a565b5b906000526020600020906003020190506000841015801561041b5750806001018054905084105b61045a576040517f08c379a0000000000000000000000000000000000000000000000000000000008152600401610451906127a0565b60405180910390fd5b8060010184815481106104705761046f61267a565b5b90600052602060002090600202016000018160010185815481106104975761049661267a565b5b9060005260206000209060020201600101548180546104b5906127ef565b80601f01602080910402602001604051908101604052809291908181526020018280546104e1906127ef565b801561052e5780601f106105035761010080835404028352916020019161052e565b820191906000526020600020905b81548152906001019060200180831161051157829003601f168201915b505050505091509250925050935093915050565b6000821015610586576040517f08c379a000000000000000000000000000000000000000000000000000000000815260040161057d9061286c565b60405180910390fd5b600073ffffffffffffffffffffffffffffffffffffffff168173ffffffffffffffffffffffffffffffffffffffff16036105f5576040517f08c379a00000000000000000000000000000000000000000000000000000000081526004016105ec906128d8565b60405180910390fd5b600080838154811061060a5761060961267a565b5b9060005260206000209060050201905060005b81600301805490508110156107e0578273ffffffffffffffffffffffffffffffffffffffff168260030182815481106106595761065861267a565b5b9060005260206000200160009054906101000a900473ffffffffffffffffffffffffffffffffffffffff1673ffffffffffffffffffffffffffffffffffffffff16036107cd5760008190505b600183600301805490506106b991906126d8565b81101561077e57826003016001826106d191906128f8565b815481106106e2576106e161267a565b5b9060005260206000200160009054906101000a900473ffffffffffffffffffffffffffffffffffffffff168360030182815481106107235761072261267a565b5b9060005260206000200160006101000a81548173ffffffffffffffffffffffffffffffffffffffff021916908373ffffffffffffffffffffffffffffffffffffffff16021790555080806107769061270c565b9150506106a5565b50816003018054806107935761079261294e565b5b6001900381819060005260206000200160006101000a81549073ffffffffffffffffffffffffffffffffffffffff021916905590556107e0565b80806107d89061270c565b91505061061d565b50505050565b60008083815481106107fb576107fa61267a565b5b9060005260206000209060050201905080600301829080600181540180825580915050600190039060005260206000200160009091909190916101000a81548173ffffffffffffffffffffffffffffffffffffffff021916908373ffffffffffffffffffffffffffffffffffffffff160217905550505050565b600080848154811061088a5761088961267a565b5b906000526020600020906005020160010183815481106108ad576108ac61267a565b5b9060005260206000209060030201905060008085815481106108d2576108d161267a565b5b9060005260206000209060050201600301905060005b8180549050811015610978573373ffffffffffffffffffffffffffffffffffffffff1682828154811061091e5761091d61267a565b5b9060005260206000200160009054906101000a900473ffffffffffffffffffffffffffffffffffffffff1673ffffffffffffffffffffffffffffffffffffffff1603156109785780806109709061270c565b9150506108e8565b8180549050811015610b2757600090505b8260020180549050811015610a1f573373ffffffffffffffffffffffffffffffffffffffff168360020182815481106109c5576109c461267a565b5b9060005260206000200160009054906101000a900473ffffffffffffffffffffffffffffffffffffffff1673ffffffffffffffffffffffffffffffffffffffff160315610a1f578080610a179061270c565b915050610989565b82600201805490508103610b265760008410158015610a445750826001018054905084105b610a83576040517f08c379a0000000000000000000000000000000000000000000000000000000008152600401610a7a906127a0565b60405180910390fd5b826001018481548110610a9957610a9861267a565b5b90600052602060002090600202016001016000815480929190610abb9061270c565b919050555082600201339080600181540180825580915050600190039060005260206000200160009091909190916101000a81548173ffffffffffffffffffffffffffffffffffffffff021916908373ffffffffffffffffffffffffffffffffffffffff1602179055505b5b505050505050565b60008181548110610b3f57600080fd5b9060005260206000209060050201600091509050806000018054610b62906127ef565b80601f0160208091040260200160405190810160405280929190818152602001828054610b8e906127ef565b8015610bdb5780601f10610bb057610100808354040283529160200191610bdb565b820191906000526020600020905b815481529060010190602001808311610bbe57829003601f168201915b5050505050908060040160009054906101000a900473ffffffffffffffffffffffffffffffffffffffff16905082565b6000808381548110610c2057610c1f61267a565b5b9060005260206000209060050201600101905060008381548110610c4757610c4661267a565b5b9060005260206000209060050201600201818381548110610c6b57610c6a61267a565b5b906000526020600020906003020190806001815401808255809150506001900390600052602060002090600302016000909190919091506000820181600001908054610cb6906127ef565b610cc192919061194d565b506001820181600101908054610cd89291906119da565b506002820181600201908054610cef929190611a5c565b50505060008290505b60018280549050610d0991906126d8565b811015610dc25781600182610d1e91906128f8565b81548110610d2f57610d2e61267a565b5b9060005260206000209060030201828281548110610d5057610d4f61267a565b5b90600052602060002090600302016000820181600001908054610d72906127ef565b610d7d92919061194d565b506001820181600101908054610d949291906119da565b506002820181600201908054610dab929190611a5c565b509050508080610dba9061270c565b915050610cf8565b5080805480610dd457610dd361294e565b5b600190038181906000526020600020906003020160008082016000610df99190611aae565b600182016000610e099190611aee565b600282016000610e199190611b12565b50509055505050565b60606000805480602002602001604051908101604052809291908181526020016000905b828210156114e257838290600052602060002090600502016040518060a0016040529081600082018054610e79906127ef565b80601f0160208091040260200160405190810160405280929190818152602001828054610ea5906127ef565b8015610ef25780601f10610ec757610100808354040283529160200191610ef2565b820191906000526020600020905b815481529060010190602001808311610ed557829003601f168201915b5050505050815260200160018201805480602002602001604051908101604052809291908181526020016000905b8282101561116d5783829060005260206000209060030201604051806060016040529081600082018054610f53906127ef565b80601f0160208091040260200160405190810160405280929190818152602001828054610f7f906127ef565b8015610fcc5780601f10610fa157610100808354040283529160200191610fcc565b820191906000526020600020905b815481529060010190602001808311610faf57829003601f168201915b5050505050815260200160018201805480602002602001604051908101604052809291908181526020016000905b828210156110c8578382906000526020600020906002020160405180604001604052908160008201805461102d906127ef565b80601f0160208091040260200160405190810160405280929190818152602001828054611059906127ef565b80156110a65780601f1061107b576101008083540402835291602001916110a6565b820191906000526020600020905b81548152906001019060200180831161108957829003601f168201915b5050505050815260200160018201548152505081526020019060010190610ffa565b5050505081526020016002820180548060200260200160405190810160405280929190818152602001828054801561115557602002820191906000526020600020905b8160009054906101000a900473ffffffffffffffffffffffffffffffffffffffff1673ffffffffffffffffffffffffffffffffffffffff168152602001906001019080831161110b575b50505050508152505081526020019060010190610f20565b50505050815260200160028201805480602002602001604051908101604052809291908181526020016000905b828210156113e757838290600052602060002090600302016040518060600160405290816000820180546111cd906127ef565b80601f01602080910402602001604051908101604052809291908181526020018280546111f9906127ef565b80156112465780601f1061121b57610100808354040283529160200191611246565b820191906000526020600020905b81548152906001019060200180831161122957829003601f168201915b5050505050815260200160018201805480602002602001604051908101604052809291908181526020016000905b8282101561134257838290600052602060002090600202016040518060400160405290816000820180546112a7906127ef565b80601f01602080910402602001604051908101604052809291908181526020018280546112d3906127ef565b80156113205780601f106112f557610100808354040283529160200191611320565b820191906000526020600020905b81548152906001019060200180831161130357829003601f168201915b5050505050815260200160018201548152505081526020019060010190611274565b505050508152602001600282018054806020026020016040519081016040528092919081815260200182805480156113cf57602002820191906000526020600020905b8160009054906101000a900473ffffffffffffffffffffffffffffffffffffffff1673ffffffffffffffffffffffffffffffffffffffff1681526020019060010190808311611385575b5050505050815250508152602001906001019061119a565b5050505081526020016003820180548060200260200160405190810160405280929190818152602001828054801561147457602002820191906000526020600020905b8160009054906101000a900473ffffffffffffffffffffffffffffffffffffffff1673ffffffffffffffffffffffffffffffffffffffff168152602001906001019080831161142a575b505050505081526020016004820160009054906101000a900473ffffffffffffffffffffffffffffffffffffffff1673ffffffffffffffffffffffffffffffffffffffff1673ffffffffffffffffffffffffffffffffffffffff168152505081526020019060010190610e46565b50505050905090565b6060600082815481106115015761150061267a565b5b9060005260206000209060050201600101805480602002602001604051908101604052809291908181526020016000905b8282101561177f5783829060005260206000209060030201604051806060016040529081600082018054611565906127ef565b80601f0160208091040260200160405190810160405280929190818152602001828054611591906127ef565b80156115de5780601f106115b3576101008083540402835291602001916115de565b820191906000526020600020905b8154815290600101906020018083116115c157829003601f168201915b5050505050815260200160018201805480602002602001604051908101604052809291908181526020016000905b828210156116da578382906000526020600020906002020160405180604001604052908160008201805461163f906127ef565b80601f016020809104026020016040519081016040528092919081815260200182805461166b906127ef565b80156116b85780601f1061168d576101008083540402835291602001916116b8565b820191906000526020600020905b81548152906001019060200180831161169b57829003601f168201915b505050505081526020016001820154815250508152602001906001019061160c565b5050505081526020016002820180548060200260200160405190810160405280929190818152602001828054801561176757602002820191906000526020600020905b8160009054906101000a900473ffffffffffffffffffffffffffffffffffffffff1673ffffffffffffffffffffffffffffffffffffffff168152602001906001019080831161171d575b50505050508152505081526020019060010190611532565b505050509050919050565b60006001816001815401808255809150500390600052602060002090505060008060016000805490506117bd91906126d8565b815481106117ce576117cd61267a565b5b90600052602060002090600502019050818160000190805190602001906117f69291906118c7565b50338160040160006101000a81548173ffffffffffffffffffffffffffffffffffffffff021916908373ffffffffffffffffffffffffffffffffffffffff160217905550806003018160040160009054906101000a900473ffffffffffffffffffffffffffffffffffffffff169080600181540180825580915050600190039060005260206000200160009091909190916101000a81548173ffffffffffffffffffffffffffffffffffffffff021916908373ffffffffffffffffffffffffffffffffffffffff1602179055505050565b8280546118d3906127ef565b90600052602060002090601f0160209004810192826118f5576000855561193c565b82601f1061190e57805160ff191683800117855561193c565b8280016001018555821561193c579182015b8281111561193b578251825591602001919060010190611920565b5b5090506119499190611b33565b5090565b828054611959906127ef565b90600052602060002090601f01602090048101928261197b57600085556119c9565b82601f1061198c57805485556119c9565b828001600101855582156119c957600052602060002091601f016020900482015b828111156119c85782548255916001019190600101906119ad565b5b5090506119d69190611b33565b5090565b828054828255906000526020600020906002028101928215611a4b5760005260206000209160020282015b82811115611a4a5782826000820181600001908054611a23906127ef565b611a2e92919061194d565b5060018201548160010155505091600201919060020190611a05565b5b509050611a589190611b50565b5090565b828054828255906000526020600020908101928215611a9d5760005260206000209182015b82811115611a9c578254825591600101919060010190611a81565b5b509050611aaa9190611b33565b5090565b508054611aba906127ef565b6000825580601f10611acc5750611aeb565b601f016020900490600052602060002090810190611aea9190611b33565b5b50565b5080546000825560020290600052602060002090810190611b0f9190611b50565b50565b5080546000825590600052602060002090810190611b309190611b33565b50565b5b80821115611b4c576000816000905550600101611b34565b5090565b5b80821115611b7b5760008082016000611b6a9190611aae565b600182016000905550600201611b51565b5090565b6000604051905090565b600080fd5b600080fd5b6000819050919050565b611ba681611b93565b8114611bb157600080fd5b50565b600081359050611bc381611b9d565b92915050565b600080fd5b600080fd5b6000601f19601f8301169050919050565b7f4e487b7100000000000000000000000000000000000000000000000000000000600052604160045260246000fd5b611c1c82611bd3565b810181811067ffffffffffffffff82111715611c3b57611c3a611be4565b5b80604052505050565b6000611c4e611b7f565b9050611c5a8282611c13565b919050565b600067ffffffffffffffff821115611c7a57611c79611be4565b5b611c8382611bd3565b9050602081019050919050565b82818337600083830152505050565b6000611cb2611cad84611c5f565b611c44565b905082815260208101848484011115611cce57611ccd611bce565b5b611cd9848285611c90565b509392505050565b600082601f830112611cf657611cf5611bc9565b5b8135611d06848260208601611c9f565b91505092915050565b600067ffffffffffffffff821115611d2a57611d29611be4565b5b602082029050602081019050919050565b600080fd5b6000611d53611d4e84611d0f565b611c44565b90508083825260208201905060208402830185811115611d7657611d75611d3b565b5b835b81811015611dbd57803567ffffffffffffffff811115611d9b57611d9a611bc9565b5b808601611da88982611ce1565b85526020850194505050602081019050611d78565b5050509392505050565b600082601f830112611ddc57611ddb611bc9565b5b8135611dec848260208601611d40565b91505092915050565b600080600060608486031215611e0e57611e0d611b89565b5b6000611e1c86828701611bb4565b935050602084013567ffffffffffffffff811115611e3d57611e3c611b8e565b5b611e4986828701611ce1565b925050604084013567ffffffffffffffff811115611e6a57611e69611b8e565b5b611e7686828701611dc7565b9150509250925092565b600080600060608486031215611e9957611e98611b89565b5b6000611ea786828701611bb4565b9350506020611eb886828701611bb4565b9250506040611ec986828701611bb4565b9150509250925092565b600081519050919050565b600082825260208201905092915050565b60005b83811015611f0d578082015181840152602081019050611ef2565b83811115611f1c576000848401525b50505050565b6000611f2d82611ed3565b611f378185611ede565b9350611f47818560208601611eef565b611f5081611bd3565b840191505092915050565b611f6481611b93565b82525050565b60006040820190508181036000830152611f848185611f22565b9050611f936020830184611f5b565b9392505050565b600073ffffffffffffffffffffffffffffffffffffffff82169050919050565b6000611fc582611f9a565b9050919050565b611fd581611fba565b8114611fe057600080fd5b50565b600081359050611ff281611fcc565b92915050565b6000806040838503121561200f5761200e611b89565b5b600061201d85828601611bb4565b925050602061202e85828601611fe3565b9150509250929050565b60006020828403121561204e5761204d611b89565b5b600061205c84828501611bb4565b91505092915050565b61206e81611fba565b82525050565b6000604082019050818103600083015261208e8185611f22565b905061209d6020830184612065565b9392505050565b600080604083850312156120bb576120ba611b89565b5b60006120c985828601611bb4565b92505060206120da85828601611bb4565b9150509250929050565b600081519050919050565b600082825260208201905092915050565b6000819050602082019050919050565b600082825260208201905092915050565b600061212c82611ed3565b6121368185612110565b9350612146818560208601611eef565b61214f81611bd3565b840191505092915050565b600081519050919050565b600082825260208201905092915050565b6000819050602082019050919050565b600081519050919050565b600082825260208201905092915050565b6000819050602082019050919050565b6121bb81611b93565b82525050565b600060408301600083015184820360008601526121de8282612121565b91505060208301516121f360208601826121b2565b508091505092915050565b600061220a83836121c1565b905092915050565b6000602082019050919050565b600061222a82612186565b6122348185612191565b935083602082028501612246856121a2565b8060005b85811015612282578484038952815161226385826121fe565b945061226e83612212565b925060208a0199505060018101905061224a565b50829750879550505050505092915050565b600081519050919050565b600082825260208201905092915050565b6000819050602082019050919050565b6122c981611fba565b82525050565b60006122db83836122c0565b60208301905092915050565b6000602082019050919050565b60006122ff82612294565b612309818561229f565b9350612314836122b0565b8060005b8381101561234557815161232c88826122cf565b9750612337836122e7565b925050600181019050612318565b5085935050505092915050565b6000606083016000830151848203600086015261236f8282612121565b91505060208301518482036020860152612389828261221f565b915050604083015184820360408601526123a382826122f4565b9150508091505092915050565b60006123bc8383612352565b905092915050565b6000602082019050919050565b60006123dc8261215a565b6123e68185612165565b9350836020820285016123f885612176565b8060005b85811015612434578484038952815161241585826123b0565b9450612420836123c4565b925060208a019950506001810190506123fc565b50829750879550505050505092915050565b600060a08301600083015184820360008601526124638282612121565b9150506020830151848203602086015261247d82826123d1565b9150506040830151848203604086015261249782826123d1565b915050606083015184820360608601526124b182826122f4565b91505060808301516124c660808601826122c0565b508091505092915050565b60006124dd8383612446565b905092915050565b6000602082019050919050565b60006124fd826120e4565b61250781856120ef565b93508360208202850161251985612100565b8060005b85811015612555578484038952815161253685826124d1565b9450612541836124e5565b925060208a0199505060018101905061251d565b50829750879550505050505092915050565b6000602082019050818103600083015261258181846124f2565b905092915050565b600082825260208201905092915050565b60006125a58261215a565b6125af8185612589565b9350836020820285016125c185612176565b8060005b858110156125fd57848403895281516125de85826123b0565b94506125e9836123c4565b925060208a019950506001810190506125c5565b50829750879550505050505092915050565b60006020820190508181036000830152612629818461259a565b905092915050565b60006020828403121561264757612646611b89565b5b600082013567ffffffffffffffff81111561266557612664611b8e565b5b61267184828501611ce1565b91505092915050565b7f4e487b7100000000000000000000000000000000000000000000000000000000600052603260045260246000fd5b7f4e487b7100000000000000000000000000000000000000000000000000000000600052601160045260246000fd5b60006126e382611b93565b91506126ee83611b93565b925082821015612701576127006126a9565b5b828203905092915050565b600061271782611b93565b91507fffffffffffffffffffffffffffffffffffffffffffffffffffffffffffffffff8203612749576127486126a9565b5b600182019050919050565b7f496e76616c6964206f7074696f6e20696e646578000000000000000000000000600082015250565b600061278a601483611ede565b915061279582612754565b602082019050919050565b600060208201905081810360008301526127b98161277d565b9050919050565b7f4e487b7100000000000000000000000000000000000000000000000000000000600052602260045260246000fd5b6000600282049050600182168061280757607f821691505b60208210810361281a576128196127c0565b5b50919050565b7f496e76616c69642067726f757049440000000000000000000000000000000000600082015250565b6000612856600f83611ede565b915061286182612820565b602082019050919050565b6000602082019050818103600083015261288581612849565b9050919050565b7f496e76616c6964206d656d6265725f6164647265737300000000000000000000600082015250565b60006128c2601683611ede565b91506128cd8261288c565b602082019050919050565b600060208201905081810360008301526128f1816128b5565b9050919050565b600061290382611b93565b915061290e83611b93565b9250827fffffffffffffffffffffffffffffffffffffffffffffffffffffffffffffffff03821115612943576129426126a9565b5b828201905092915050565b7f4e487b7100000000000000000000000000000000000000000000000000000000600052603160045260246000fdfea2646970667358221220823ed5d513933ab941cdf3b8ef76707a0f8fedd1cada0acb6cf00de3b567145364736f6c634300080d0033",
  "immutableReferences": {},
  "source": "pragma solidity ^0.8.0;\n\n//import \"@openzeppelin/contracts/utils/Strings.sol\";\n\ncontract Voting {\n    \n    // Option struct\n    struct Option {\n        string name;\n        uint voteCount;\n    }\n\n    // Structure of poll\n    struct Poll {\n        string pollTitle;\n        Option[] options;\n        address[] voted;  // members addresses for those who have already voted\n    }\n\n    struct Group {\n        string groupTitle;\n        Poll[] polls; // active polls\n        Poll[] completed; // completed polls\n        address[] members; // Array of member addresses\n        address adminAddress;\n    }\n\n    // Array of groups\n    Group[] public groups;\n\n    // adds a new group to groups[]\n    function createGroup(string memory name) public { \n        // Expand the storage array\n        groups.push();\n        Group storage newGroup = groups[groups.length - 1];\n        newGroup.groupTitle = name;\n        newGroup.adminAddress=msg.sender;// set admin to the address which calls the function\n        newGroup.members.push(newGroup.adminAddress);\n    }\n\n   function createPoll(uint groupID, string memory name, string[] memory options) public { \n        require(msg.sender == groups[groupID].adminAddress);\n        Poll[] storage polls = groups[groupID].polls;\n        polls.push();\n        Poll storage newPoll = polls[polls.length-1];\n        newPoll.pollTitle=name;\n        for(uint i = 0; i < options.length; i++) {\n            newPoll.options.push(Option(options[i], 0));\n        }\n    } \n\n    // adds a new option to the last poll in a specified group\n    // function createOptions(uint groupID, string[] memory names) public {\n    //     Option[] storage options = groups[groupID].polls[groups[groupID].polls.length - 1].options;\n    //     for(uint i = 0; i < names.length; i++) {\n    //         options.push(Option(names[i], 0));\n    //     }\n    // }\n\n    function getGroups() public view returns (Group[] memory) {\n        return groups;\n    }\n\n    function getPolls(uint groupID) public view returns(Poll[] memory) {\n        return groups[groupID].polls;\n    }\n\n    // Function to vote for an option\n    function vote(uint groupID, uint pollIndex, uint optionIndex) public {\n        Poll storage poll = groups[groupID].polls[pollIndex];\n        address[] storage members = groups[groupID].members;\n        uint i = 0;\n        for(; i < members.length; i++) { // checks if user is a member of the group\n            if(members[i]==msg.sender) { \n                break;\n            }\n        }\n        if(i < members.length) {\n            i = 0;\n            for(; i < poll.voted.length; i++) { // checks if user has already voted\n                if(poll.voted[i]==msg.sender) { \n                    break;\n                }\n            }\n            if(i==poll.voted.length) {\n                // Check if option index is valid\n                require(optionIndex >= 0 && optionIndex < poll.options.length, \"Invalid option index\");\n                // Increment the vote count for the option\n                poll.options[optionIndex].voteCount++;\n                poll.voted.push(msg.sender);\n            }\n        }\n        \n    }\n\n    // Function to get the name and vote count for a option\n    function getOption(uint groupID, uint pollIndex, uint optionIndex) public view returns (string memory, uint) {\n        Poll storage poll = groups[groupID].polls[pollIndex];\n        // Check if option index is valid\n        require(optionIndex >= 0 && optionIndex < poll.options.length, \"Invalid option index\");\n\n        // Return the name and vote count for the option\n        return (poll.options[optionIndex].name, poll.options[optionIndex].voteCount);\n    }\n\n    function endPoll (uint groupID, uint pollIndex) public {\n        Poll[] storage polls = groups[groupID].polls;\n        groups[groupID].completed.push(polls[pollIndex]);\n        for(uint i = pollIndex; i < polls.length-1; i++) {\n            polls[i]=polls[i+1];\n        }\n        polls.pop();\n    }\n\n    function addMember(uint groupID, address member_address) public{\n        //require(groupID >= 0, \"Invalid groupID\");\n        //require(member_address != address(0),\"Invalid member_address\");\n\n        Group storage m_group = groups[groupID];\n        m_group.members.push(member_address);\n    }\n\n    function removeMember(uint groupID, address member_address) public {\n        require(groupID >= 0, \"Invalid groupID\");\n        require(member_address != address(0),\"Invalid member_address\");\n        Group storage m_group = groups[groupID];\n        uint i = 0;\n        for (; i < m_group.members.length; i++) {\n            if(m_group.members[i] == member_address){ // this address is the one to remove\n                for(uint j = i; j < m_group.members.length-1; j++) {\n                    m_group.members[j]=m_group.members[j+1];\n                }\n                m_group.members.pop();\n                break;\n            }\n        }\n    }\n}",
  "sourcePath": "/Users/darhart1/Desktop/repos/VotingBlock/contracts/Voting.sol",
  "compiler": {
    "name": "solc",
    "version": "0.8.13+commit.abaa5c0e.Emscripten.clang"
  },
  "schemaVersion": "3.4.11",
  "updatedAt": "2023-06-06T07:11:41.151Z",
  "networkType": "ethereum",
  "devdoc": {
    "kind": "dev",
    "methods": {},
    "version": 1
  },
  "userdoc": {
    "kind": "user",
    "methods": {},
    "version": 1
  }
}