{
  "contractName": "Voting",
  "abi": [
    {
      "inputs": [],
      "stateMutability": "nonpayable",
      "type": "constructor"
    },
    {
      "inputs": [
        {
          "internalType": "uint256",
          "name": "",
          "type": "uint256"
        }
      ],
      "name": "groups",
      "outputs": [
        {
          "internalType": "string",
          "name": "groupTitle",
          "type": "string"
        },
        {
          "internalType": "address",
          "name": "adminAddress",
          "type": "address"
        }
      ],
      "stateMutability": "view",
      "type": "function",
      "constant": true
    },
    {
      "inputs": [
        {
          "internalType": "string",
          "name": "name",
          "type": "string"
        }
      ],
      "name": "createGroup",
      "outputs": [],
      "stateMutability": "nonpayable",
      "type": "function"
    },
    {
      "inputs": [
        {
          "internalType": "uint256",
          "name": "groupID",
          "type": "uint256"
        },
        {
          "internalType": "string",
          "name": "name",
          "type": "string"
        }
      ],
      "name": "createElection",
      "outputs": [],
      "stateMutability": "nonpayable",
      "type": "function"
    },
    {
      "inputs": [
        {
          "internalType": "uint256",
          "name": "groupID",
          "type": "uint256"
        },
        {
          "internalType": "string",
          "name": "name",
          "type": "string"
        }
      ],
      "name": "createCandidate",
      "outputs": [],
      "stateMutability": "nonpayable",
      "type": "function"
    },
    {
      "inputs": [],
      "name": "getGroups",
      "outputs": [
        {
          "components": [
            {
              "internalType": "string",
              "name": "groupTitle",
              "type": "string"
            },
            {
              "components": [
                {
                  "internalType": "string",
                  "name": "electionTitle",
                  "type": "string"
                },
                {
                  "components": [
                    {
                      "internalType": "string",
                      "name": "name",
                      "type": "string"
                    },
                    {
                      "internalType": "uint256",
                      "name": "voteCount",
                      "type": "uint256"
                    }
                  ],
                  "internalType": "struct Voting.Candidate[]",
                  "name": "candidates",
                  "type": "tuple[]"
                },
                {
                  "internalType": "address[]",
                  "name": "voted",
                  "type": "address[]"
                }
              ],
              "internalType": "struct Voting.Election[]",
              "name": "elections",
              "type": "tuple[]"
            },
            {
              "components": [
                {
                  "internalType": "string",
                  "name": "electionTitle",
                  "type": "string"
                },
                {
                  "components": [
                    {
                      "internalType": "string",
                      "name": "name",
                      "type": "string"
                    },
                    {
                      "internalType": "uint256",
                      "name": "voteCount",
                      "type": "uint256"
                    }
                  ],
                  "internalType": "struct Voting.Candidate[]",
                  "name": "candidates",
                  "type": "tuple[]"
                },
                {
                  "internalType": "address[]",
                  "name": "voted",
                  "type": "address[]"
                }
              ],
              "internalType": "struct Voting.Election[]",
              "name": "completed",
              "type": "tuple[]"
            },
            {
              "internalType": "address[]",
              "name": "members",
              "type": "address[]"
            },
            {
              "internalType": "address",
              "name": "adminAddress",
              "type": "address"
            }
          ],
          "internalType": "struct Voting.Group[]",
          "name": "",
          "type": "tuple[]"
        }
      ],
      "stateMutability": "view",
      "type": "function",
      "constant": true
    },
    {
      "inputs": [
        {
          "internalType": "uint256",
          "name": "groupID",
          "type": "uint256"
        }
      ],
      "name": "getElections",
      "outputs": [
        {
          "components": [
            {
              "internalType": "string",
              "name": "electionTitle",
              "type": "string"
            },
            {
              "components": [
                {
                  "internalType": "string",
                  "name": "name",
                  "type": "string"
                },
                {
                  "internalType": "uint256",
                  "name": "voteCount",
                  "type": "uint256"
                }
              ],
              "internalType": "struct Voting.Candidate[]",
              "name": "candidates",
              "type": "tuple[]"
            },
            {
              "internalType": "address[]",
              "name": "voted",
              "type": "address[]"
            }
          ],
          "internalType": "struct Voting.Election[]",
          "name": "",
          "type": "tuple[]"
        }
      ],
      "stateMutability": "view",
      "type": "function",
      "constant": true
    },
    {
      "inputs": [
        {
          "internalType": "uint256",
          "name": "groupID",
          "type": "uint256"
        },
        {
          "internalType": "uint256",
          "name": "electionIndex",
          "type": "uint256"
        },
        {
          "internalType": "uint256",
          "name": "candidateIndex",
          "type": "uint256"
        }
      ],
      "name": "vote",
      "outputs": [],
      "stateMutability": "nonpayable",
      "type": "function"
    },
    {
      "inputs": [
        {
          "internalType": "uint256",
          "name": "groupID",
          "type": "uint256"
        },
        {
          "internalType": "uint256",
          "name": "electionIndex",
          "type": "uint256"
        },
        {
          "internalType": "uint256",
          "name": "candidateIndex",
          "type": "uint256"
        }
      ],
      "name": "getCandidate",
      "outputs": [
        {
          "internalType": "string",
          "name": "",
          "type": "string"
        },
        {
          "internalType": "uint256",
          "name": "",
          "type": "uint256"
        }
      ],
      "stateMutability": "view",
      "type": "function",
      "constant": true
    },
    {
      "inputs": [
        {
          "internalType": "uint256",
          "name": "groupID",
          "type": "uint256"
        },
        {
          "internalType": "address",
          "name": "member_address",
          "type": "address"
        }
      ],
      "name": "addMember",
      "outputs": [],
      "stateMutability": "nonpayable",
      "type": "function"
    },
    {
      "inputs": [
        {
          "internalType": "uint256",
          "name": "groupID",
          "type": "uint256"
        },
        {
          "internalType": "address",
          "name": "member_address",
          "type": "address"
        }
      ],
      "name": "removeMember",
      "outputs": [],
      "stateMutability": "nonpayable",
      "type": "function"
    },
    {
      "inputs": [
        {
          "internalType": "uint256",
          "name": "groupID",
          "type": "uint256"
        },
        {
          "internalType": "uint256",
          "name": "electionIndex",
          "type": "uint256"
        }
      ],
      "name": "endElection",
      "outputs": [],
      "stateMutability": "nonpayable",
      "type": "function"
    }
  ],
  "bytecode": "0x60806040523480156200001157600080fd5b50620000586040518060400160405280600481526020017f6d61696e000000000000000000000000000000000000000000000000000000008152506200013660201b60201c565b620000a060006040518060400160405280601081526020017f323031362064656d207072696d617279000000000000000000000000000000008152506200027a60201b60201c565b620000e860006040518060400160405280600b81526020017f43616e64696461746520310000000000000000000000000000000000000000008152506200039e60201b60201c565b6200013060006040518060400160405280600b81526020017f43616e64696461746520320000000000000000000000000000000000000000008152506200039e60201b60201c565b6200064f565b60006001816001815401808255809150500390600052602060002090505060008060016000805490506200016b919062000581565b815481106200017f576200017e620005bc565b5b9060005260206000209060050201905081816000019080519060200190620001a992919062000498565b50338160040160006101000a81548173ffffffffffffffffffffffffffffffffffffffff021916908373ffffffffffffffffffffffffffffffffffffffff160217905550806003018160040160009054906101000a900473ffffffffffffffffffffffffffffffffffffffff169080600181540180825580915050600190039060005260206000200160009091909190916101000a81548173ffffffffffffffffffffffffffffffffffffffff021916908373ffffffffffffffffffffffffffffffffffffffff1602179055505050565b60008281548110620002915762000290620005bc565b5b906000526020600020906005020160040160009054906101000a900473ffffffffffffffffffffffffffffffffffffffff1673ffffffffffffffffffffffffffffffffffffffff163373ffffffffffffffffffffffffffffffffffffffff1614620002fb57600080fd5b6000808381548110620003135762000312620005bc565b5b9060005260206000209060050201600101905080600181600181540180825580915050039060005260206000209050506000816001838054905062000359919062000581565b815481106200036d576200036c620005bc565b5b90600052602060002090600302019050828160000190805190602001906200039792919062000498565b5050505050565b6000808381548110620003b657620003b5620005bc565b5b9060005260206000209060050201600101600160008581548110620003e057620003df620005bc565b5b90600052602060002090600502016001018054905062000401919062000581565b81548110620004155762000414620005bc565b5b906000526020600020906003020160010190508060405180604001604052808481526020016000815250908060018154018082558091505060019003906000526020600020906002020160009091909190915060008201518160000190805190602001906200048692919062000498565b50602082015181600101555050505050565b828054620004a6906200061a565b90600052602060002090601f016020900481019282620004ca576000855562000516565b82601f10620004e557805160ff191683800117855562000516565b8280016001018555821562000516579182015b8281111562000515578251825591602001919060010190620004f8565b5b50905062000525919062000529565b5090565b5b80821115620005445760008160009055506001016200052a565b5090565b6000819050919050565b7f4e487b7100000000000000000000000000000000000000000000000000000000600052601160045260246000fd5b60006200058e8262000548565b91506200059b8362000548565b925082821015620005b157620005b062000552565b5b828203905092915050565b7f4e487b7100000000000000000000000000000000000000000000000000000000600052603260045260246000fd5b7f4e487b7100000000000000000000000000000000000000000000000000000000600052602260045260246000fd5b600060028204905060018216806200063357607f821691505b602082108103620006495762000648620005eb565b5b50919050565b612c25806200065f6000396000f3fe608060405234801561001057600080fd5b50600436106100a95760003560e01c80637da09d94116100715780637da09d941461014f5780638a6655d61461016b57806396324bd414610187578063b1c0fbf6146101b8578063c72b5176146101e8578063dc2ddcae14610206576100a9565b80634976d0b0146100ae578063588d49f4146100ca5780636be7658b146100fb57806373ddf4111461011757806374d0a67614610133575b600080fd5b6100c860048036038101906100c39190611d94565b610222565b005b6100e460048036038101906100df9190611dd4565b610439565b6040516100f2929190611ecf565b60405180910390f35b61011560048036038101906101109190611f5d565b6105c3565b005b610131600480360381019061012c91906120d2565b6108b0565b005b61014d60048036038101906101489190611f5d565b61099d565b005b610169600480360381019061016491906120d2565b610b41565b005b61018560048036038101906101809190611dd4565b610c57565b005b6101a1600480360381019061019c919061212e565b610f11565b6040516101af92919061216a565b60405180910390f35b6101d260048036038101906101cd919061212e565b610fed565b6040516101df91906124d0565b60405180910390f35b6101f061128c565b6040516101fd91906126c5565b60405180910390f35b610220600480360381019061021b91906126e7565b611955565b005b600080838154811061023757610236612730565b5b906000526020600020906005020160010190506000838154811061025e5761025d612730565b5b906000526020600020906005020160020181838154811061028257610281612730565b5b9060005260206000209060030201908060018154018082558091505060019003906000526020600020906003020160009091909190915060008201816000019080546102cd9061278e565b6102d8929190611a92565b5060018201816001019080546102ef929190611b1f565b506002820181600201908054610306929190611ba1565b50505060008290505b6001828054905061032091906127ee565b8110156103d957816001826103359190612822565b8154811061034657610345612730565b5b906000526020600020906003020182828154811061036757610366612730565b5b906000526020600020906003020160008201816000019080546103899061278e565b610394929190611a92565b5060018201816001019080546103ab929190611b1f565b5060028201816002019080546103c2929190611ba1565b5090505080806103d190612878565b91505061030f565b50808054806103eb576103ea6128c0565b5b6001900381819060005260206000209060030201600080820160006104109190611bf3565b6001820160006104209190611c33565b6002820160006104309190611c57565b50509055505050565b60606000806000868154811061045257610451612730565b5b9060005260206000209060050201600101858154811061047557610474612730565b5b906000526020600020906003020190506000841015801561049c5750806001018054905084105b6104db576040517f08c379a00000000000000000000000000000000000000000000000000000000081526004016104d29061293b565b60405180910390fd5b8060010184815481106104f1576104f0612730565b5b906000526020600020906002020160000181600101858154811061051857610517612730565b5b9060005260206000209060020201600101548180546105369061278e565b80601f01602080910402602001604051908101604052809291908181526020018280546105629061278e565b80156105af5780601f10610584576101008083540402835291602001916105af565b820191906000526020600020905b81548152906001019060200180831161059257829003601f168201915b505050505091509250925050935093915050565b6000821015610607576040517f08c379a00000000000000000000000000000000000000000000000000000000081526004016105fe906129a7565b60405180910390fd5b600073ffffffffffffffffffffffffffffffffffffffff168173ffffffffffffffffffffffffffffffffffffffff1603610676576040517f08c379a000000000000000000000000000000000000000000000000000000000815260040161066d90612a13565b60405180910390fd5b600080838154811061068b5761068a612730565b5b9060005260206000209060050201905060005b8160030180549050811015610861578273ffffffffffffffffffffffffffffffffffffffff168260030182815481106106da576106d9612730565b5b9060005260206000200160009054906101000a900473ffffffffffffffffffffffffffffffffffffffff1673ffffffffffffffffffffffffffffffffffffffff160361084e5760008190505b6001836003018054905061073a91906127ee565b8110156107ff57826003016001826107529190612822565b8154811061076357610762612730565b5b9060005260206000200160009054906101000a900473ffffffffffffffffffffffffffffffffffffffff168360030182815481106107a4576107a3612730565b5b9060005260206000200160006101000a81548173ffffffffffffffffffffffffffffffffffffffff021916908373ffffffffffffffffffffffffffffffffffffffff16021790555080806107f790612878565b915050610726565b5081600301805480610814576108136128c0565b5b6001900381819060005260206000200160006101000a81549073ffffffffffffffffffffffffffffffffffffffff02191690559055610861565b808061085990612878565b91505061069e565b816003018054905081036108aa576040517f08c379a00000000000000000000000000000000000000000000000000000000081526004016108a190612af1565b60405180910390fd5b50505050565b60008083815481106108c5576108c4612730565b5b90600052602060002090600502016001016001600085815481106108ec576108eb612730565b5b90600052602060002090600502016001018054905061090b91906127ee565b8154811061091c5761091b612730565b5b9060005260206000209060030201600101905080604051806040016040528084815260200160008152509080600181540180825580915050600190039060005260206000209060020201600090919091909150600082015181600001908051906020019061098b929190611c78565b50602082015181600101555050505050565b60008210156109e1576040517f08c379a00000000000000000000000000000000000000000000000000000000081526004016109d8906129a7565b60405180910390fd5b600073ffffffffffffffffffffffffffffffffffffffff168173ffffffffffffffffffffffffffffffffffffffff1603610a50576040517f08c379a0000000000000000000000000000000000000000000000000000000008152600401610a4790612a13565b60405180910390fd5b6000808381548110610a6557610a64612730565b5b9060005260206000209060050201905060008160030180549050905081600301839080600181540180825580915050600190039060005260206000200160009091909190916101000a81548173ffffffffffffffffffffffffffffffffffffffff021916908373ffffffffffffffffffffffffffffffffffffffff16021790555081600301805490508180610af990612878565b925014610b3b576040517f08c379a0000000000000000000000000000000000000000000000000000000008152600401610b3290612bcf565b60405180910390fd5b50505050565b60008281548110610b5557610b54612730565b5b906000526020600020906005020160040160009054906101000a900473ffffffffffffffffffffffffffffffffffffffff1673ffffffffffffffffffffffffffffffffffffffff163373ffffffffffffffffffffffffffffffffffffffff1614610bbe57600080fd5b6000808381548110610bd357610bd2612730565b5b90600052602060002090600502016001019050806001816001815401808255809150500390600052602060002090505060008160018380549050610c1791906127ee565b81548110610c2857610c27612730565b5b9060005260206000209060030201905082816000019080519060200190610c50929190611c78565b5050505050565b6000808481548110610c6c57610c6b612730565b5b90600052602060002090600502016001018381548110610c8f57610c8e612730565b5b906000526020600020906003020190506000808581548110610cb457610cb3612730565b5b9060005260206000209060050201600301905060005b8180549050811015610d5a573373ffffffffffffffffffffffffffffffffffffffff16828281548110610d0057610cff612730565b5b9060005260206000200160009054906101000a900473ffffffffffffffffffffffffffffffffffffffff1673ffffffffffffffffffffffffffffffffffffffff160315610d5a578080610d5290612878565b915050610cca565b8180549050811015610f0957600090505b8260020180549050811015610e01573373ffffffffffffffffffffffffffffffffffffffff16836002018281548110610da757610da6612730565b5b9060005260206000200160009054906101000a900473ffffffffffffffffffffffffffffffffffffffff1673ffffffffffffffffffffffffffffffffffffffff160315610e01578080610df990612878565b915050610d6b565b82600201805490508103610f085760008410158015610e265750826001018054905084105b610e65576040517f08c379a0000000000000000000000000000000000000000000000000000000008152600401610e5c9061293b565b60405180910390fd5b826001018481548110610e7b57610e7a612730565b5b90600052602060002090600202016001016000815480929190610e9d90612878565b919050555082600201339080600181540180825580915050600190039060005260206000200160009091909190916101000a81548173ffffffffffffffffffffffffffffffffffffffff021916908373ffffffffffffffffffffffffffffffffffffffff1602179055505b5b505050505050565b60008181548110610f2157600080fd5b9060005260206000209060050201600091509050806000018054610f449061278e565b80601f0160208091040260200160405190810160405280929190818152602001828054610f709061278e565b8015610fbd5780601f10610f9257610100808354040283529160200191610fbd565b820191906000526020600020905b815481529060010190602001808311610fa057829003601f168201915b5050505050908060040160009054906101000a900473ffffffffffffffffffffffffffffffffffffffff16905082565b60606000828154811061100357611002612730565b5b9060005260206000209060050201600101805480602002602001604051908101604052809291908181526020016000905b8282101561128157838290600052602060002090600302016040518060600160405290816000820180546110679061278e565b80601f01602080910402602001604051908101604052809291908181526020018280546110939061278e565b80156110e05780601f106110b5576101008083540402835291602001916110e0565b820191906000526020600020905b8154815290600101906020018083116110c357829003601f168201915b5050505050815260200160018201805480602002602001604051908101604052809291908181526020016000905b828210156111dc57838290600052602060002090600202016040518060400160405290816000820180546111419061278e565b80601f016020809104026020016040519081016040528092919081815260200182805461116d9061278e565b80156111ba5780601f1061118f576101008083540402835291602001916111ba565b820191906000526020600020905b81548152906001019060200180831161119d57829003601f168201915b505050505081526020016001820154815250508152602001906001019061110e565b5050505081526020016002820180548060200260200160405190810160405280929190818152602001828054801561126957602002820191906000526020600020905b8160009054906101000a900473ffffffffffffffffffffffffffffffffffffffff1673ffffffffffffffffffffffffffffffffffffffff168152602001906001019080831161121f575b50505050508152505081526020019060010190611034565b505050509050919050565b60606000805480602002602001604051908101604052809291908181526020016000905b8282101561194c57838290600052602060002090600502016040518060a00160405290816000820180546112e39061278e565b80601f016020809104026020016040519081016040528092919081815260200182805461130f9061278e565b801561135c5780601f106113315761010080835404028352916020019161135c565b820191906000526020600020905b81548152906001019060200180831161133f57829003601f168201915b5050505050815260200160018201805480602002602001604051908101604052809291908181526020016000905b828210156115d757838290600052602060002090600302016040518060600160405290816000820180546113bd9061278e565b80601f01602080910402602001604051908101604052809291908181526020018280546113e99061278e565b80156114365780601f1061140b57610100808354040283529160200191611436565b820191906000526020600020905b81548152906001019060200180831161141957829003601f168201915b5050505050815260200160018201805480602002602001604051908101604052809291908181526020016000905b8282101561153257838290600052602060002090600202016040518060400160405290816000820180546114979061278e565b80601f01602080910402602001604051908101604052809291908181526020018280546114c39061278e565b80156115105780601f106114e557610100808354040283529160200191611510565b820191906000526020600020905b8154815290600101906020018083116114f357829003601f168201915b5050505050815260200160018201548152505081526020019060010190611464565b505050508152602001600282018054806020026020016040519081016040528092919081815260200182805480156115bf57602002820191906000526020600020905b8160009054906101000a900473ffffffffffffffffffffffffffffffffffffffff1673ffffffffffffffffffffffffffffffffffffffff1681526020019060010190808311611575575b5050505050815250508152602001906001019061138a565b50505050815260200160028201805480602002602001604051908101604052809291908181526020016000905b8282101561185157838290600052602060002090600302016040518060600160405290816000820180546116379061278e565b80601f01602080910402602001604051908101604052809291908181526020018280546116639061278e565b80156116b05780601f10611685576101008083540402835291602001916116b0565b820191906000526020600020905b81548152906001019060200180831161169357829003601f168201915b5050505050815260200160018201805480602002602001604051908101604052809291908181526020016000905b828210156117ac57838290600052602060002090600202016040518060400160405290816000820180546117119061278e565b80601f016020809104026020016040519081016040528092919081815260200182805461173d9061278e565b801561178a5780601f1061175f5761010080835404028352916020019161178a565b820191906000526020600020905b81548152906001019060200180831161176d57829003601f168201915b50505050508152602001600182015481525050815260200190600101906116de565b5050505081526020016002820180548060200260200160405190810160405280929190818152602001828054801561183957602002820191906000526020600020905b8160009054906101000a900473ffffffffffffffffffffffffffffffffffffffff1673ffffffffffffffffffffffffffffffffffffffff16815260200190600101908083116117ef575b50505050508152505081526020019060010190611604565b505050508152602001600382018054806020026020016040519081016040528092919081815260200182805480156118de57602002820191906000526020600020905b8160009054906101000a900473ffffffffffffffffffffffffffffffffffffffff1673ffffffffffffffffffffffffffffffffffffffff1681526020019060010190808311611894575b505050505081526020016004820160009054906101000a900473ffffffffffffffffffffffffffffffffffffffff1673ffffffffffffffffffffffffffffffffffffffff1673ffffffffffffffffffffffffffffffffffffffff1681525050815260200190600101906112b0565b50505050905090565b600060018160018154018082558091505003906000526020600020905050600080600160008054905061198891906127ee565b8154811061199957611998612730565b5b90600052602060002090600502019050818160000190805190602001906119c1929190611c78565b50338160040160006101000a81548173ffffffffffffffffffffffffffffffffffffffff021916908373ffffffffffffffffffffffffffffffffffffffff160217905550806003018160040160009054906101000a900473ffffffffffffffffffffffffffffffffffffffff169080600181540180825580915050600190039060005260206000200160009091909190916101000a81548173ffffffffffffffffffffffffffffffffffffffff021916908373ffffffffffffffffffffffffffffffffffffffff1602179055505050565b828054611a9e9061278e565b90600052602060002090601f016020900481019282611ac05760008555611b0e565b82601f10611ad15780548555611b0e565b82800160010185558215611b0e57600052602060002091601f016020900482015b82811115611b0d578254825591600101919060010190611af2565b5b509050611b1b9190611cfe565b5090565b828054828255906000526020600020906002028101928215611b905760005260206000209160020282015b82811115611b8f5782826000820181600001908054611b689061278e565b611b73929190611a92565b5060018201548160010155505091600201919060020190611b4a565b5b509050611b9d9190611d1b565b5090565b828054828255906000526020600020908101928215611be25760005260206000209182015b82811115611be1578254825591600101919060010190611bc6565b5b509050611bef9190611cfe565b5090565b508054611bff9061278e565b6000825580601f10611c115750611c30565b601f016020900490600052602060002090810190611c2f9190611cfe565b5b50565b5080546000825560020290600052602060002090810190611c549190611d1b565b50565b5080546000825590600052602060002090810190611c759190611cfe565b50565b828054611c849061278e565b90600052602060002090601f016020900481019282611ca65760008555611ced565b82601f10611cbf57805160ff1916838001178555611ced565b82800160010185558215611ced579182015b82811115611cec578251825591602001919060010190611cd1565b5b509050611cfa9190611cfe565b5090565b5b80821115611d17576000816000905550600101611cff565b5090565b5b80821115611d465760008082016000611d359190611bf3565b600182016000905550600201611d1c565b5090565b6000604051905090565b600080fd5b600080fd5b6000819050919050565b611d7181611d5e565b8114611d7c57600080fd5b50565b600081359050611d8e81611d68565b92915050565b60008060408385031215611dab57611daa611d54565b5b6000611db985828601611d7f565b9250506020611dca85828601611d7f565b9150509250929050565b600080600060608486031215611ded57611dec611d54565b5b6000611dfb86828701611d7f565b9350506020611e0c86828701611d7f565b9250506040611e1d86828701611d7f565b9150509250925092565b600081519050919050565b600082825260208201905092915050565b60005b83811015611e61578082015181840152602081019050611e46565b83811115611e70576000848401525b50505050565b6000601f19601f8301169050919050565b6000611e9282611e27565b611e9c8185611e32565b9350611eac818560208601611e43565b611eb581611e76565b840191505092915050565b611ec981611d5e565b82525050565b60006040820190508181036000830152611ee98185611e87565b9050611ef86020830184611ec0565b9392505050565b600073ffffffffffffffffffffffffffffffffffffffff82169050919050565b6000611f2a82611eff565b9050919050565b611f3a81611f1f565b8114611f4557600080fd5b50565b600081359050611f5781611f31565b92915050565b60008060408385031215611f7457611f73611d54565b5b6000611f8285828601611d7f565b9250506020611f9385828601611f48565b9150509250929050565b600080fd5b600080fd5b7f4e487b7100000000000000000000000000000000000000000000000000000000600052604160045260246000fd5b611fdf82611e76565b810181811067ffffffffffffffff82111715611ffe57611ffd611fa7565b5b80604052505050565b6000612011611d4a565b905061201d8282611fd6565b919050565b600067ffffffffffffffff82111561203d5761203c611fa7565b5b61204682611e76565b9050602081019050919050565b82818337600083830152505050565b600061207561207084612022565b612007565b90508281526020810184848401111561209157612090611fa2565b5b61209c848285612053565b509392505050565b600082601f8301126120b9576120b8611f9d565b5b81356120c9848260208601612062565b91505092915050565b600080604083850312156120e9576120e8611d54565b5b60006120f785828601611d7f565b925050602083013567ffffffffffffffff81111561211857612117611d59565b5b612124858286016120a4565b9150509250929050565b60006020828403121561214457612143611d54565b5b600061215284828501611d7f565b91505092915050565b61216481611f1f565b82525050565b600060408201905081810360008301526121848185611e87565b9050612193602083018461215b565b9392505050565b600081519050919050565b600082825260208201905092915050565b6000819050602082019050919050565b600082825260208201905092915050565b60006121e282611e27565b6121ec81856121c6565b93506121fc818560208601611e43565b61220581611e76565b840191505092915050565b600081519050919050565b600082825260208201905092915050565b6000819050602082019050919050565b61224581611d5e565b82525050565b6000604083016000830151848203600086015261226882826121d7565b915050602083015161227d602086018261223c565b508091505092915050565b6000612294838361224b565b905092915050565b6000602082019050919050565b60006122b482612210565b6122be818561221b565b9350836020820285016122d08561222c565b8060005b8581101561230c57848403895281516122ed8582612288565b94506122f88361229c565b925060208a019950506001810190506122d4565b50829750879550505050505092915050565b600081519050919050565b600082825260208201905092915050565b6000819050602082019050919050565b61235381611f1f565b82525050565b6000612365838361234a565b60208301905092915050565b6000602082019050919050565b60006123898261231e565b6123938185612329565b935061239e8361233a565b8060005b838110156123cf5781516123b68882612359565b97506123c183612371565b9250506001810190506123a2565b5085935050505092915050565b600060608301600083015184820360008601526123f982826121d7565b9150506020830151848203602086015261241382826122a9565b9150506040830151848203604086015261242d828261237e565b9150508091505092915050565b600061244683836123dc565b905092915050565b6000602082019050919050565b60006124668261219a565b61247081856121a5565b935083602082028501612482856121b6565b8060005b858110156124be578484038952815161249f858261243a565b94506124aa8361244e565b925060208a01995050600181019050612486565b50829750879550505050505092915050565b600060208201905081810360008301526124ea818461245b565b905092915050565b600081519050919050565b600082825260208201905092915050565b6000819050602082019050919050565b600082825260208201905092915050565b600061253a8261219a565b612544818561251e565b935083602082028501612556856121b6565b8060005b858110156125925784840389528151612573858261243a565b945061257e8361244e565b925060208a0199505060018101905061255a565b50829750879550505050505092915050565b600060a08301600083015184820360008601526125c182826121d7565b915050602083015184820360208601526125db828261252f565b915050604083015184820360408601526125f5828261252f565b9150506060830151848203606086015261260f828261237e565b9150506080830151612624608086018261234a565b508091505092915050565b600061263b83836125a4565b905092915050565b6000602082019050919050565b600061265b826124f2565b61266581856124fd565b9350836020820285016126778561250e565b8060005b858110156126b35784840389528151612694858261262f565b945061269f83612643565b925060208a0199505060018101905061267b565b50829750879550505050505092915050565b600060208201905081810360008301526126df8184612650565b905092915050565b6000602082840312156126fd576126fc611d54565b5b600082013567ffffffffffffffff81111561271b5761271a611d59565b5b612727848285016120a4565b91505092915050565b7f4e487b7100000000000000000000000000000000000000000000000000000000600052603260045260246000fd5b7f4e487b7100000000000000000000000000000000000000000000000000000000600052602260045260246000fd5b600060028204905060018216806127a657607f821691505b6020821081036127b9576127b861275f565b5b50919050565b7f4e487b7100000000000000000000000000000000000000000000000000000000600052601160045260246000fd5b60006127f982611d5e565b915061280483611d5e565b925082821015612817576128166127bf565b5b828203905092915050565b600061282d82611d5e565b915061283883611d5e565b9250827fffffffffffffffffffffffffffffffffffffffffffffffffffffffffffffffff0382111561286d5761286c6127bf565b5b828201905092915050565b600061288382611d5e565b91507fffffffffffffffffffffffffffffffffffffffffffffffffffffffffffffffff82036128b5576128b46127bf565b5b600182019050919050565b7f4e487b7100000000000000000000000000000000000000000000000000000000600052603160045260246000fd5b7f496e76616c69642063616e64696461746520696e646578000000000000000000600082015250565b6000612925601783611e32565b9150612930826128ef565b602082019050919050565b6000602082019050818103600083015261295481612918565b9050919050565b7f496e76616c69642067726f757049440000000000000000000000000000000000600082015250565b6000612991600f83611e32565b915061299c8261295b565b602082019050919050565b600060208201905081810360008301526129c081612984565b9050919050565b7f496e76616c6964206d656d6265725f6164647265737300000000000000000000600082015250565b60006129fd601683611e32565b9150612a08826129c7565b602082019050919050565b60006020820190508181036000830152612a2c816129f0565b9050919050565b7f4572726f72202d2d2072656d6f76654d656d626572282920646964206e6f742060008201527f73756363657366756c6c792072756e2e206d656d6265725f616464726573732060208201527f776173206e6f742072656d6f7665642066726f6d2067726f7570206d656d626560408201527f7273206172726179000000000000000000000000000000000000000000000000606082015250565b6000612adb606883611e32565b9150612ae682612a33565b608082019050919050565b60006020820190508181036000830152612b0a81612ace565b9050919050565b7f4572726f72202d2d204164644d656d626572282920646964206e6f742073756360008201527f63657366756c6c792072756e2e206d656d6265725f616464726573732077617360208201527f206e6f7420616464656420746f2067726f7570206d656d62657273206172726160408201527f7900000000000000000000000000000000000000000000000000000000000000606082015250565b6000612bb9606183611e32565b9150612bc482612b11565b608082019050919050565b60006020820190508181036000830152612be881612bac565b905091905056fea2646970667358221220bf03600a8e33361f3bf94863ce852c6ea5f4b1ff96ba03ef2532ac8aea3d5e1b64736f6c634300080d0033",
  "immutableReferences": {},
  "source": "pragma solidity ^0.8.0;\n\n//import \"@openzeppelin/contracts/utils/Strings.sol\";\n\ncontract Voting {\n    \n    // Candidate struct\n    struct Candidate {\n        string name;\n        uint voteCount;\n    }\n\n    // Structure of election\n    struct Election {\n        string electionTitle;\n        Candidate[] candidates;\n        address[] voted;  // members addresses for those who have already voted\n    }\n\n    struct Group {\n        string groupTitle;\n        Election[] elections; // active elections\n        Election[] completed; // completed elections\n        address[] members; // Array of member addresses\n        address adminAddress;\n    }\n\n    // Array of groups\n    Group[] public groups;\n\n    // Constructor to initialize the candidates\n    constructor() {\n        createGroup('main');\n        createElection(0, '2016 dem primary');\n        createCandidate(0, 'Candidate 1');\n        createCandidate(0, 'Candidate 2');\n    }\n    // adds a new group to groups[]\n    function createGroup(string memory name) public { \n        // Expand the storage array\n        groups.push();\n        Group storage newGroup = groups[groups.length - 1];\n        newGroup.groupTitle = name;\n        newGroup.adminAddress=msg.sender;// set admin to the address which calls the function\n        newGroup.members.push(newGroup.adminAddress);\n    }\n    \n    // adds a new election to a specified group in groups[]\n    // function createElection(uint groupID, string memory name) public { \n    //     Election[] storage elections = groups[groupID].elections;\n    //     elections.push();\n    //     Election storage newElection = elections[elections.length-1];\n    //     newElection.electionTitle=name;\n    // }\n\n   function createElection(uint groupID, string memory name) public { \n        require(msg.sender == groups[groupID].adminAddress);\n        Election[] storage elections = groups[groupID].elections;\n        elections.push();\n        Election storage newElection = elections[elections.length-1];\n        newElection.electionTitle=name;\n    }    \n    // adds a new candidate to the last election in a specified group\n    function createCandidate(uint groupID, string memory name) public {\n        Candidate[] storage candidates = groups[groupID].elections[groups[groupID].elections.length - 1].candidates;\n        candidates.push(Candidate(name, 0));\n    }\n    function getGroups() public view returns (Group[] memory) {\n        return groups;\n    }\n\n    function getElections(uint groupID) public view returns(Election[] memory) {\n        return groups[groupID].elections;\n    }\n\n    // Function to vote for a candidate\n    function vote(uint groupID, uint electionIndex, uint candidateIndex) public {\n        Election storage election = groups[groupID].elections[electionIndex];\n        address[] storage members = groups[groupID].members;\n        uint i = 0;\n        for(; i < members.length; i++) { // checks if user is a member of the group\n            if(members[i]==msg.sender) { \n                break;\n            }\n        }\n        if(i < members.length) {\n            i = 0;\n            for(; i < election.voted.length; i++) { // checks if user has already voted\n                if(election.voted[i]==msg.sender) { \n                    break;\n                }\n            }\n            if(i==election.voted.length) {\n                // Check if candidate index is valid\n                require(candidateIndex >= 0 && candidateIndex < election.candidates.length, \"Invalid candidate index\");\n                // Increment the vote count for the candidate\n                election.candidates[candidateIndex].voteCount++;\n                election.voted.push(msg.sender);\n            }\n        }\n        \n    }\n\n    // Function to get the name and vote count for a candidate\n    function getCandidate(uint groupID, uint electionIndex, uint candidateIndex) public view returns (string memory, uint) {\n        Election storage election = groups[groupID].elections[electionIndex];\n        // Check if candidate index is valid\n        require(candidateIndex >= 0 && candidateIndex < election.candidates.length, \"Invalid candidate index\");\n\n        // Return the name and vote count for the candidate\n        return (election.candidates[candidateIndex].name, election.candidates[candidateIndex].voteCount);\n    }\n\n    function addMember(uint groupID, address member_address) public{\n        require(groupID >= 0, \"Invalid groupID\");\n        require(member_address != address(0),\"Invalid member_address\");\n\n        Group storage m_group = groups[groupID];\n        uint init_length = m_group.members.length; // initial length of group members\n\n        m_group.members.push(member_address);\n\n        if(init_length++ != m_group.members.length){\n            revert(\"Error -- AddMember() did not succesfully run. member_address was not added to group members array\");\n        }\n    }\n\n    function removeMember(uint groupID, address member_address) public {\n        require(groupID >= 0, \"Invalid groupID\");\n        require(member_address != address(0),\"Invalid member_address\");\n        Group storage m_group = groups[groupID];\n        uint i = 0;\n        for (; i < m_group.members.length; i++) {\n            if(m_group.members[i] == member_address){ // this address is the one to remove\n                for(uint j = i; j < m_group.members.length-1; j++) {\n                    m_group.members[j]=m_group.members[j+1];\n                }\n                m_group.members.pop();\n                break;\n            }\n        }\n\n        if(i == m_group.members.length){\n            revert(\"Error -- removeMember() did not succesfully run. member_address was not removed from group members array\");\n        }\n    }\n\n    function endElection (uint groupID, uint electionIndex) public {\n        Election[] storage elections = groups[groupID].elections;\n        groups[groupID].completed.push(elections[electionIndex]);\n        for(uint i = electionIndex; i < elections.length-1; i++) {\n            elections[i]=elections[i+1];\n        }\n        elections.pop();\n    }\n}",
  "sourcePath": "/Users/darhart1/Desktop/repos/VotingBlock/contracts/Voting.sol",
  "compiler": {
    "name": "solc",
    "version": "0.8.13+commit.abaa5c0e.Emscripten.clang"
  },
  "schemaVersion": "3.4.11",
  "updatedAt": "2023-05-22T05:26:51.725Z",
  "networkType": "ethereum",
  "devdoc": {
    "kind": "dev",
    "methods": {},
    "version": 1
  },
  "userdoc": {
    "kind": "user",
    "methods": {},
    "version": 1
  }
}