{
  "contractName": "Voting",
  "abi": [
    {
      "inputs": [],
      "stateMutability": "nonpayable",
      "type": "constructor"
    },
    {
      "inputs": [],
      "name": "main_election",
      "outputs": [
        {
          "internalType": "string",
          "name": "election_title",
          "type": "string"
        }
      ],
      "stateMutability": "view",
      "type": "function",
      "constant": true
    },
    {
      "inputs": [],
      "name": "main_group",
      "outputs": [
        {
          "internalType": "string",
          "name": "group_title",
          "type": "string"
        }
      ],
      "stateMutability": "view",
      "type": "function",
      "constant": true
    },
    {
      "inputs": [
        {
          "internalType": "string[]",
          "name": "candidateNames",
          "type": "string[]"
        }
      ],
      "name": "createCandidates",
      "outputs": [],
      "stateMutability": "nonpayable",
      "type": "function"
    }
  ],
  "bytecode": "0x60806040523480156200001157600080fd5b506000600267ffffffffffffffff811115620000325762000031620005bb565b5b6040519080825280602002602001820160405280156200006757816020015b6060815260200190600190039081620000515790505b5090506040518060400160405280600b81526020017f43616e646964617465203100000000000000000000000000000000000000000081525081600081518110620000b757620000b6620005ea565b5b60200260200101819052506040518060400160405280600b81526020017f43616e6469646174652032000000000000000000000000000000000000000000815250816001815181106200010f576200010e620005ea565b5b60200260200101819052506040518060400160405280600d81526020017f7465737420656c656374696f6e00000000000000000000000000000000000000815250600360000190805190602001906200016a9291906200036f565b506200017c81620002bc60201b60201c565b6040518060400160405280600a81526020017f746573742067726f757000000000000000000000000000000000000000000000815250600080019080519060200190620001cb9291906200036f565b506000600101600390806001815401808255809150506001900390600052602060002090600202016000909190919091506000820181600001908054620002129062000648565b6200021f92919062000400565b5060018201816001019080546200023892919062000498565b505050600060020173882e9dcbe8e2ef7f521934f9e6ce21a9c9f9b4fe9080600181540180825580915050600190039060005260206000200160009091909190916101000a81548173ffffffffffffffffffffffffffffffffffffffff021916908373ffffffffffffffffffffffffffffffffffffffff1602179055505062000703565b60005b81518110156200036b5760036001016040518060400160405280848481518110620002ef57620002ee620005ea565b5b60200260200101518152602001600081525090806001815401808255809150506001900390600052602060002090600202016000909190919091506000820151816000019080519060200190620003489291906200036f565b5060208201518160010155505080806200036290620006b6565b915050620002bf565b5050565b8280546200037d9062000648565b90600052602060002090601f016020900481019282620003a15760008555620003ed565b82601f10620003bc57805160ff1916838001178555620003ed565b82800160010185558215620003ed579182015b82811115620003ec578251825591602001919060010190620003cf565b5b509050620003fc919062000523565b5090565b8280546200040e9062000648565b90600052602060002090601f01602090048101928262000432576000855562000485565b82601f1062000445578054855562000485565b828001600101855582156200048557600052602060002091601f016020900482015b828111156200048457825482559160010191906001019062000467565b5b50905062000494919062000523565b5090565b828054828255906000526020600020906002028101928215620005105760005260206000209160020282015b828111156200050f5782826000820181600001908054620004e59062000648565b620004f292919062000400565b5060018201548160010155505091600201919060020190620004c4565b5b5090506200051f919062000542565b5090565b5b808211156200053e57600081600090555060010162000524565b5090565b5b808211156200057157600080820160006200055f919062000575565b60018201600090555060020162000543565b5090565b508054620005839062000648565b6000825580601f10620005975750620005b8565b601f016020900490600052602060002090810190620005b7919062000523565b5b50565b7f4e487b7100000000000000000000000000000000000000000000000000000000600052604160045260246000fd5b7f4e487b7100000000000000000000000000000000000000000000000000000000600052603260045260246000fd5b7f4e487b7100000000000000000000000000000000000000000000000000000000600052602260045260246000fd5b600060028204905060018216806200066157607f821691505b60208210810362000677576200067662000619565b5b50919050565b7f4e487b7100000000000000000000000000000000000000000000000000000000600052601160045260246000fd5b6000819050919050565b6000620006c382620006ac565b91507fffffffffffffffffffffffffffffffffffffffffffffffffffffffffffffffff8203620006f857620006f76200067d565b5b600182019050919050565b61078c80620007136000396000f3fe608060405234801561001057600080fd5b50600436106100415760003560e01c806315cd93a6146100465780639ef5574014610064578063e06cb4a814610082575b600080fd5b61004e61009e565b60405161005b91906103ac565b60405180910390f35b61006c610132565b60405161007991906103ac565b60405180910390f35b61009c600480360381019061009791906105fd565b6101c6565b005b60008060000180546100af90610675565b80601f01602080910402602001604051908101604052809291908181526020018280546100db90610675565b80156101285780601f106100fd57610100808354040283529160200191610128565b820191906000526020600020905b81548152906001019060200180831161010b57829003601f168201915b5050505050905081565b600380600001805461014390610675565b80601f016020809104026020016040519081016040528092919081815260200182805461016f90610675565b80156101bc5780601f10610191576101008083540402835291602001916101bc565b820191906000526020600020905b81548152906001019060200180831161019f57829003601f168201915b5050505050905081565b60005b815181101561026c57600360010160405180604001604052808484815181106101f5576101f46106a6565b5b6020026020010151815260200160008152509080600181540180825580915050600190039060005260206000209060020201600090919091909150600082015181600001908051906020019061024c929190610270565b5060208201518160010155505080806102649061070e565b9150506101c9565b5050565b82805461027c90610675565b90600052602060002090601f01602090048101928261029e57600085556102e5565b82601f106102b757805160ff19168380011785556102e5565b828001600101855582156102e5579182015b828111156102e45782518255916020019190600101906102c9565b5b5090506102f291906102f6565b5090565b5b8082111561030f5760008160009055506001016102f7565b5090565b600081519050919050565b600082825260208201905092915050565b60005b8381101561034d578082015181840152602081019050610332565b8381111561035c576000848401525b50505050565b6000601f19601f8301169050919050565b600061037e82610313565b610388818561031e565b935061039881856020860161032f565b6103a181610362565b840191505092915050565b600060208201905081810360008301526103c68184610373565b905092915050565b6000604051905090565b600080fd5b600080fd5b600080fd5b7f4e487b7100000000000000000000000000000000000000000000000000000000600052604160045260246000fd5b61041f82610362565b810181811067ffffffffffffffff8211171561043e5761043d6103e7565b5b80604052505050565b60006104516103ce565b905061045d8282610416565b919050565b600067ffffffffffffffff82111561047d5761047c6103e7565b5b602082029050602081019050919050565b600080fd5b600080fd5b600067ffffffffffffffff8211156104b3576104b26103e7565b5b6104bc82610362565b9050602081019050919050565b82818337600083830152505050565b60006104eb6104e684610498565b610447565b90508281526020810184848401111561050757610506610493565b5b6105128482856104c9565b509392505050565b600082601f83011261052f5761052e6103e2565b5b813561053f8482602086016104d8565b91505092915050565b600061055b61055684610462565b610447565b9050808382526020820190506020840283018581111561057e5761057d61048e565b5b835b818110156105c557803567ffffffffffffffff8111156105a3576105a26103e2565b5b8086016105b0898261051a565b85526020850194505050602081019050610580565b5050509392505050565b600082601f8301126105e4576105e36103e2565b5b81356105f4848260208601610548565b91505092915050565b600060208284031215610613576106126103d8565b5b600082013567ffffffffffffffff811115610631576106306103dd565b5b61063d848285016105cf565b91505092915050565b7f4e487b7100000000000000000000000000000000000000000000000000000000600052602260045260246000fd5b6000600282049050600182168061068d57607f821691505b6020821081036106a05761069f610646565b5b50919050565b7f4e487b7100000000000000000000000000000000000000000000000000000000600052603260045260246000fd5b7f4e487b7100000000000000000000000000000000000000000000000000000000600052601160045260246000fd5b6000819050919050565b600061071982610704565b91507fffffffffffffffffffffffffffffffffffffffffffffffffffffffffffffffff820361074b5761074a6106d5565b5b60018201905091905056fea26469706673582212200e7d97e3b5e6e7c685036e81ca2bc882e14ca50f0c475b498eeb2b7d476bd7be64736f6c634300080d0033",
  "immutableReferences": {},
  "source": "pragma solidity ^0.8.0;\r\n\r\n/*This code was taken from chat-gpt and then altered.\r\n*/\r\ncontract Voting {\r\n    \r\n    // Candidate struct\r\nstruct Candidate {\r\n    string name;\r\n    uint voteCount;\r\n}\r\n\r\n// structure of election\r\nstruct Election {\r\n    string election_title;\r\n    Candidate[] candidates;\r\n}\r\n\r\nstruct Group {\r\n    string group_title;\r\n    Election[] elections;\r\n    address[] members; // array of member addresses\r\n}\r\n\r\n// Array of candidates\r\nGroup public main_group;\r\nElection public main_election;\r\n\r\n// Constructor to initialize the candidates\r\nconstructor() {\r\n    string[] memory _candidateNames = new string[](2);\r\n    _candidateNames[0] = \"Candidate 1\";\r\n    _candidateNames[1] = \"Candidate 2\";\r\n    main_election.election_title=\"test election\";\r\n    createCandidates(_candidateNames);\r\n    main_group.group_title=\"test group\";\r\n    main_group.elections.push(main_election);\r\n    main_group.members.push(0x882e9dCbe8e2EF7f521934F9E6CE21A9c9f9b4FE);\r\n}\r\n\r\nfunction createCandidates(string[] memory candidateNames) public {\r\n    for(uint i = 0; i < candidateNames.length; i++) {\r\n        main_election.candidates.push(Candidate(candidateNames[i], 0));\r\n    }\r\n}\r\n\r\n/*\r\n    // Function to vote for a candidate\r\n    function vote(uint candidateIndex, Candidate[] memory candidates) public {\r\n        // Check if candidate index is valid\r\n        require(candidateIndex >= 0 && candidateIndex < candidates.length, \"Invalid candidate index\");\r\n\r\n        // Increment the vote count for the candidate\r\n        candidates[candidateIndex].voteCount++;\r\n    }\r\n\r\n    // Function to get the name and vote count for a candidate\r\n    function getCandidate(uint candidateIndex, Candidate[] memory candidates) public view returns (string memory, uint) {\r\n        // Check if candidate index is valid\r\n        require(candidateIndex >= 0 && candidateIndex < candidates.length, \"Invalid candidate index\");\r\n\r\n        // Return the name and vote count for the candidate\r\n        return (candidates[candidateIndex].name, candidates[candidateIndex].voteCount);\r\n    }\r\n    function addCandidate(Candidate[] memory candidates, string memory _name, uint index) public {\r\n        candidates[index]=Candidate(_name, 0);\r\n    }\r\n    */\r\n\r\n    \r\n    \r\n}\r\n",
  "sourcePath": "c:\\Users\\kaitl\\VotingBlockGit\\contracts\\Voting.sol",
  "compiler": {
    "name": "solc",
    "version": "0.8.13+commit.abaa5c0e.Emscripten.clang"
  },
  "schemaVersion": "3.4.11",
  "updatedAt": "2023-04-27T05:18:17.588Z",
  "networkType": "ethereum",
  "devdoc": {
    "kind": "dev",
    "methods": {},
    "version": 1
  },
  "userdoc": {
    "kind": "user",
    "methods": {},
    "version": 1
  }
}