{
  "contractName": "Voting",
  "abi": [
    {
      "inputs": [],
      "stateMutability": "nonpayable",
      "type": "constructor"
    },
    {
      "inputs": [
        {
          "internalType": "uint256",
          "name": "",
          "type": "uint256"
        }
      ],
      "name": "candidates",
      "outputs": [
        {
          "internalType": "string",
          "name": "name",
          "type": "string"
        },
        {
          "internalType": "uint256",
          "name": "voteCount",
          "type": "uint256"
        }
      ],
      "stateMutability": "view",
      "type": "function",
      "constant": true
    },
    {
      "inputs": [
        {
          "internalType": "uint256",
          "name": "candidateIndex",
          "type": "uint256"
        }
      ],
      "name": "vote",
      "outputs": [],
      "stateMutability": "nonpayable",
      "type": "function"
    },
    {
      "inputs": [
        {
          "internalType": "uint256",
          "name": "candidateIndex",
          "type": "uint256"
        }
      ],
      "name": "getCandidate",
      "outputs": [
        {
          "internalType": "string",
          "name": "",
          "type": "string"
        },
        {
          "internalType": "uint256",
          "name": "",
          "type": "uint256"
        }
      ],
      "stateMutability": "view",
      "type": "function",
      "constant": true
    },
    {
      "inputs": [
        {
          "internalType": "string",
          "name": "_name",
          "type": "string"
        }
      ],
      "name": "addCandidate",
      "outputs": [],
      "stateMutability": "nonpayable",
      "type": "function"
    }
  ],
  "bytecode": "0x608060405234801561001057600080fd5b506100556040518060400160405280600b81526020017f43616e646964617465203100000000000000000000000000000000000000000081525061009e60201b60201c565b6100996040518060400160405280600b81526020017f43616e646964617465203200000000000000000000000000000000000000000081525061009e60201b60201c565b61020e565b600060405180604001604052808381526020016000815250908060018154018082558091505060019003906000526020600020906002020160009091909190915060008201518160000190805190602001906100fb92919061010b565b5060208201518160010155505050565b828054610117906101dd565b90600052602060002090601f0160209004810192826101395760008555610180565b82601f1061015257805160ff1916838001178555610180565b82800160010185558215610180579182015b8281111561017f578251825591602001919060010190610164565b5b50905061018d9190610191565b5090565b5b808211156101aa576000816000905550600101610192565b5090565b7f4e487b7100000000000000000000000000000000000000000000000000000000600052602260045260246000fd5b600060028204905060018216806101f557607f821691505b602082108103610208576102076101ae565b5b50919050565b6108f58061021d6000396000f3fe608060405234801561001057600080fd5b506004361061004c5760003560e01c80630121b93f146100515780633477ee2e1461006d57806335b8e8201461009e578063462e91ec146100cf575b600080fd5b61006b600480360381019061006691906104ca565b6100eb565b005b610087600480360381019061008291906104ca565b61017d565b60405161009592919061059f565b60405180910390f35b6100b860048036038101906100b391906104ca565b610239565b6040516100c692919061059f565b60405180910390f35b6100e960048036038101906100e49190610704565b610370565b005b60008110158015610100575060008054905081105b61013f576040517f08c379a000000000000000000000000000000000000000000000000000000000815260040161013690610799565b60405180910390fd5b60008181548110610153576101526107b9565b5b9060005260206000209060020201600101600081548092919061017590610817565b919050555050565b6000818154811061018d57600080fd5b90600052602060002090600202016000915090508060000180546101b09061088e565b80601f01602080910402602001604051908101604052809291908181526020018280546101dc9061088e565b80156102295780601f106101fe57610100808354040283529160200191610229565b820191906000526020600020905b81548152906001019060200180831161020c57829003601f168201915b5050505050908060010154905082565b60606000808310158015610251575060008054905083105b610290576040517f08c379a000000000000000000000000000000000000000000000000000000000815260040161028790610799565b60405180910390fd5b600083815481106102a4576102a36107b9565b5b9060005260206000209060020201600001600084815481106102c9576102c86107b9565b5b9060005260206000209060020201600101548180546102e79061088e565b80601f01602080910402602001604051908101604052809291908181526020018280546103139061088e565b80156103605780601f1061033557610100808354040283529160200191610360565b820191906000526020600020905b81548152906001019060200180831161034357829003601f168201915b5050505050915091509150915091565b600060405180604001604052808381526020016000815250908060018154018082558091505060019003906000526020600020906002020160009091909190915060008201518160000190805190602001906103cd9291906103dd565b5060208201518160010155505050565b8280546103e99061088e565b90600052602060002090601f01602090048101928261040b5760008555610452565b82601f1061042457805160ff1916838001178555610452565b82800160010185558215610452579182015b82811115610451578251825591602001919060010190610436565b5b50905061045f9190610463565b5090565b5b8082111561047c576000816000905550600101610464565b5090565b6000604051905090565b600080fd5b600080fd5b6000819050919050565b6104a781610494565b81146104b257600080fd5b50565b6000813590506104c48161049e565b92915050565b6000602082840312156104e0576104df61048a565b5b60006104ee848285016104b5565b91505092915050565b600081519050919050565b600082825260208201905092915050565b60005b83811015610531578082015181840152602081019050610516565b83811115610540576000848401525b50505050565b6000601f19601f8301169050919050565b6000610562826104f7565b61056c8185610502565b935061057c818560208601610513565b61058581610546565b840191505092915050565b61059981610494565b82525050565b600060408201905081810360008301526105b98185610557565b90506105c86020830184610590565b9392505050565b600080fd5b600080fd5b7f4e487b7100000000000000000000000000000000000000000000000000000000600052604160045260246000fd5b61061182610546565b810181811067ffffffffffffffff821117156106305761062f6105d9565b5b80604052505050565b6000610643610480565b905061064f8282610608565b919050565b600067ffffffffffffffff82111561066f5761066e6105d9565b5b61067882610546565b9050602081019050919050565b82818337600083830152505050565b60006106a76106a284610654565b610639565b9050828152602081018484840111156106c3576106c26105d4565b5b6106ce848285610685565b509392505050565b600082601f8301126106eb576106ea6105cf565b5b81356106fb848260208601610694565b91505092915050565b60006020828403121561071a5761071961048a565b5b600082013567ffffffffffffffff8111156107385761073761048f565b5b610744848285016106d6565b91505092915050565b7f496e76616c69642063616e64696461746520696e646578000000000000000000600082015250565b6000610783601783610502565b915061078e8261074d565b602082019050919050565b600060208201905081810360008301526107b281610776565b9050919050565b7f4e487b7100000000000000000000000000000000000000000000000000000000600052603260045260246000fd5b7f4e487b7100000000000000000000000000000000000000000000000000000000600052601160045260246000fd5b600061082282610494565b91507fffffffffffffffffffffffffffffffffffffffffffffffffffffffffffffffff8203610854576108536107e8565b5b600182019050919050565b7f4e487b7100000000000000000000000000000000000000000000000000000000600052602260045260246000fd5b600060028204905060018216806108a657607f821691505b6020821081036108b9576108b861085f565b5b5091905056fea2646970667358221220ef0a34b8f52a9001c377ff102f1ca0c87a545dbc37650ace2b9f0ee1a4ab44d464736f6c634300080d0033",
  "immutableReferences": {},
  "source": "pragma solidity ^0.8.0;\r\n\r\n/*This code was taken from chat-gpt and then altered.\r\n*/\r\ncontract Voting {\r\n    // Candidate struct\r\n    struct Candidate {\r\n        string name;\r\n        uint voteCount;\r\n    }\r\n\r\n    // Array of candidates\r\n    Candidate[] public candidates;\r\n\r\n    // Constructor to initialize the candidates\r\n    constructor() {\r\n        addCandidate(\"Candidate 1\");\r\n        addCandidate(\"Candidate 2\");\r\n    }\r\n\r\n    // Function to vote for a candidate\r\n    function vote(uint candidateIndex) public {\r\n        // Check if candidate index is valid\r\n        require(candidateIndex >= 0 && candidateIndex < candidates.length, \"Invalid candidate index\");\r\n\r\n        // Increment the vote count for the candidate\r\n        candidates[candidateIndex].voteCount++;\r\n    }\r\n\r\n    // Function to get the name and vote count for a candidate\r\n    function getCandidate(uint candidateIndex) public view returns (string memory, uint) {\r\n        // Check if candidate index is valid\r\n        require(candidateIndex >= 0 && candidateIndex < candidates.length, \"Invalid candidate index\");\r\n\r\n        // Return the name and vote count for the candidate\r\n        return (candidates[candidateIndex].name, candidates[candidateIndex].voteCount);\r\n    }\r\n\r\n    function addCandidate(string memory _name) public {\r\n        candidates.push(Candidate(_name, 0));\r\n    }\r\n}\r\n",
  "sourcePath": "c:\\Users\\BryceG23\\CS\\CS5\\VotingBlock\\contracts\\Voting.sol",
  "compiler": {
    "name": "solc",
    "version": "0.8.13+commit.abaa5c0e.Emscripten.clang"
  },
  "schemaVersion": "3.4.11",
  "updatedAt": "2023-03-21T16:06:39.854Z",
  "networkType": "ethereum",
  "devdoc": {
    "kind": "dev",
    "methods": {},
    "version": 1
  },
  "userdoc": {
    "kind": "user",
    "methods": {},
    "version": 1
  }
}