{
  "contractName": "Voting",
  "abi": [
    {
      "inputs": [],
      "stateMutability": "nonpayable",
      "type": "constructor"
    },
    {
      "inputs": [
        {
          "internalType": "uint256",
          "name": "",
          "type": "uint256"
        }
      ],
      "name": "candidates",
      "outputs": [
        {
          "internalType": "string",
          "name": "name",
          "type": "string"
        },
        {
          "internalType": "uint256",
          "name": "voteCount",
          "type": "uint256"
        }
      ],
      "stateMutability": "view",
      "type": "function",
      "constant": true
    },
    {
      "inputs": [],
      "name": "main_election",
      "outputs": [
        {
          "internalType": "string",
          "name": "election_title",
          "type": "string"
        }
      ],
      "stateMutability": "view",
      "type": "function",
      "constant": true
    },
    {
      "inputs": [
        {
          "internalType": "uint256",
          "name": "candidateIndex",
          "type": "uint256"
        }
      ],
      "name": "vote",
      "outputs": [],
      "stateMutability": "nonpayable",
      "type": "function"
    },
    {
      "inputs": [
        {
          "internalType": "uint256",
          "name": "candidateIndex",
          "type": "uint256"
        }
      ],
      "name": "getCandidate",
      "outputs": [
        {
          "internalType": "string",
          "name": "",
          "type": "string"
        },
        {
          "internalType": "uint256",
          "name": "",
          "type": "uint256"
        }
      ],
      "stateMutability": "view",
      "type": "function",
      "constant": true
    },
    {
      "inputs": [
        {
          "internalType": "string",
          "name": "_name",
          "type": "string"
        }
      ],
      "name": "addCandidate",
      "outputs": [],
      "stateMutability": "nonpayable",
      "type": "function"
    },
    {
      "inputs": [],
      "name": "createElection",
      "outputs": [],
      "stateMutability": "nonpayable",
      "type": "function"
    }
  ],
  "bytecode": "0x60806040523480156200001157600080fd5b50620000586040518060400160405280600b81526020017f43616e64696461746520310000000000000000000000000000000000000000008152506200010c60201b60201c565b6200009e6040518060400160405280600b81526020017f43616e64696461746520320000000000000000000000000000000000000000008152506200010c60201b60201c565b60405180602001604052806040518060400160405280600d81526020017f7465737420656c656374696f6e0000000000000000000000000000000000000081525081525060016000820151816000019080519060200190620001029291906200017b565b509050506200028f565b600060405180604001604052808381526020016000815250908060018154018082558091505060019003906000526020600020906002020160009091909190915060008201518160000190805190602001906200016b9291906200017b565b5060208201518160010155505050565b82805462000189906200025a565b90600052602060002090601f016020900481019282620001ad5760008555620001f9565b82601f10620001c857805160ff1916838001178555620001f9565b82800160010185558215620001f9579182015b82811115620001f8578251825591602001919060010190620001db565b5b5090506200020891906200020c565b5090565b5b80821115620002275760008160009055506001016200020d565b5090565b7f4e487b7100000000000000000000000000000000000000000000000000000000600052602260045260246000fd5b600060028204905060018216806200027357607f821691505b6020821081036200028957620002886200022b565b5b50919050565b6109eb806200029f6000396000f3fe608060405234801561001057600080fd5b50600436106100625760003560e01c80630121b93f1461006757806324c2286c146100835780633477ee2e1461008d57806335b8e820146100be578063462e91ec146100ef5780639ef557401461010b575b600080fd5b610081600480360381019061007c919061059e565b610129565b005b61008b6101bb565b005b6100a760048036038101906100a2919061059e565b6101bd565b6040516100b5929190610673565b60405180910390f35b6100d860048036038101906100d3919061059e565b610279565b6040516100e6929190610673565b60405180910390f35b610109600480360381019061010491906107d8565b6103b0565b005b61011361041d565b6040516101209190610821565b60405180910390f35b6000811015801561013e575060008054905081105b61017d576040517f08c379a00000000000000000000000000000000000000000000000000000000081526004016101749061088f565b60405180910390fd5b60008181548110610191576101906108af565b5b906000526020600020906002020160010160008154809291906101b39061090d565b919050555050565b565b600081815481106101cd57600080fd5b90600052602060002090600202016000915090508060000180546101f090610984565b80601f016020809104026020016040519081016040528092919081815260200182805461021c90610984565b80156102695780601f1061023e57610100808354040283529160200191610269565b820191906000526020600020905b81548152906001019060200180831161024c57829003601f168201915b5050505050908060010154905082565b60606000808310158015610291575060008054905083105b6102d0576040517f08c379a00000000000000000000000000000000000000000000000000000000081526004016102c79061088f565b60405180910390fd5b600083815481106102e4576102e36108af565b5b906000526020600020906002020160000160008481548110610309576103086108af565b5b90600052602060002090600202016001015481805461032790610984565b80601f016020809104026020016040519081016040528092919081815260200182805461035390610984565b80156103a05780601f10610375576101008083540402835291602001916103a0565b820191906000526020600020905b81548152906001019060200180831161038357829003601f168201915b5050505050915091509150915091565b6000604051806040016040528083815260200160008152509080600181540180825580915050600190039060005260206000209060020201600090919091909150600082015181600001908051906020019061040d9291906104b1565b5060208201518160010155505050565b600180600001805461042e90610984565b80601f016020809104026020016040519081016040528092919081815260200182805461045a90610984565b80156104a75780601f1061047c576101008083540402835291602001916104a7565b820191906000526020600020905b81548152906001019060200180831161048a57829003601f168201915b5050505050905081565b8280546104bd90610984565b90600052602060002090601f0160209004810192826104df5760008555610526565b82601f106104f857805160ff1916838001178555610526565b82800160010185558215610526579182015b8281111561052557825182559160200191906001019061050a565b5b5090506105339190610537565b5090565b5b80821115610550576000816000905550600101610538565b5090565b6000604051905090565b600080fd5b600080fd5b6000819050919050565b61057b81610568565b811461058657600080fd5b50565b60008135905061059881610572565b92915050565b6000602082840312156105b4576105b361055e565b5b60006105c284828501610589565b91505092915050565b600081519050919050565b600082825260208201905092915050565b60005b838110156106055780820151818401526020810190506105ea565b83811115610614576000848401525b50505050565b6000601f19601f8301169050919050565b6000610636826105cb565b61064081856105d6565b93506106508185602086016105e7565b6106598161061a565b840191505092915050565b61066d81610568565b82525050565b6000604082019050818103600083015261068d818561062b565b905061069c6020830184610664565b9392505050565b600080fd5b600080fd5b7f4e487b7100000000000000000000000000000000000000000000000000000000600052604160045260246000fd5b6106e58261061a565b810181811067ffffffffffffffff82111715610704576107036106ad565b5b80604052505050565b6000610717610554565b905061072382826106dc565b919050565b600067ffffffffffffffff821115610743576107426106ad565b5b61074c8261061a565b9050602081019050919050565b82818337600083830152505050565b600061077b61077684610728565b61070d565b905082815260208101848484011115610797576107966106a8565b5b6107a2848285610759565b509392505050565b600082601f8301126107bf576107be6106a3565b5b81356107cf848260208601610768565b91505092915050565b6000602082840312156107ee576107ed61055e565b5b600082013567ffffffffffffffff81111561080c5761080b610563565b5b610818848285016107aa565b91505092915050565b6000602082019050818103600083015261083b818461062b565b905092915050565b7f496e76616c69642063616e64696461746520696e646578000000000000000000600082015250565b60006108796017836105d6565b915061088482610843565b602082019050919050565b600060208201905081810360008301526108a88161086c565b9050919050565b7f4e487b7100000000000000000000000000000000000000000000000000000000600052603260045260246000fd5b7f4e487b7100000000000000000000000000000000000000000000000000000000600052601160045260246000fd5b600061091882610568565b91507fffffffffffffffffffffffffffffffffffffffffffffffffffffffffffffffff820361094a576109496108de565b5b600182019050919050565b7f4e487b7100000000000000000000000000000000000000000000000000000000600052602260045260246000fd5b6000600282049050600182168061099c57607f821691505b6020821081036109af576109ae610955565b5b5091905056fea26469706673582212204ce21cba111b614140e135c20469f5dc34d153f56e7adbde91302011aca0716a64736f6c634300080d0033",
  "immutableReferences": {},
  "source": "pragma solidity ^0.8.0;\n\n/*This code was taken from chat-gpt and then altered.\n*/\ncontract Voting {\n    \n    // Candidate struct\n    struct Candidate {\n        string name;\n        uint voteCount;\n    }\n\n    // structure of election\n    struct Election {\n        string election_title;\n    }\n\n    // Array of candidates\n    Candidate[] public candidates;\n\n    Election public main_election;\n\n    // Constructor to initialize the candidates\n    constructor() {\n        addCandidate(\"Candidate 1\");\n        addCandidate(\"Candidate 2\");\n        main_election = Election(\"test election\");\n    }\n\n    // Function to vote for a candidate\n    function vote(uint candidateIndex) public {\n        // Check if candidate index is valid\n        require(candidateIndex >= 0 && candidateIndex < candidates.length, \"Invalid candidate index\");\n\n        // Increment the vote count for the candidate\n        candidates[candidateIndex].voteCount++;\n    }\n\n    // Function to get the name and vote count for a candidate\n    function getCandidate(uint candidateIndex) public view returns (string memory, uint) {\n        // Check if candidate index is valid\n        require(candidateIndex >= 0 && candidateIndex < candidates.length, \"Invalid candidate index\");\n\n        // Return the name and vote count for the candidate\n        return (candidates[candidateIndex].name, candidates[candidateIndex].voteCount);\n    }\n\n    function addCandidate(string memory _name) public {\n        candidates.push(Candidate(_name, 0));\n    }\n\n    function createElection() public{\n        \n    }\n}\n",
  "sourcePath": "/Users/darhart1/Desktop/repos/VotingBlock/contracts/Voting.sol",
  "compiler": {
    "name": "solc",
    "version": "0.8.13+commit.abaa5c0e.Emscripten.clang"
  },
  "schemaVersion": "3.4.11",
  "updatedAt": "2023-03-29T16:02:16.969Z",
  "networkType": "ethereum",
  "devdoc": {
    "kind": "dev",
    "methods": {},
    "version": 1
  },
  "userdoc": {
    "kind": "user",
    "methods": {},
    "version": 1
  }
}